{
  "contractName": "JetrisUser",
  "abi": [
    {
      "inputs": [
        {
          "internalType": "address",
          "name": "_tokenContractAddress",
          "type": "address"
        },
        {
          "internalType": "address",
          "name": "_nftContractAddress",
          "type": "address"
        },
        {
          "internalType": "address",
          "name": "_itemContractAddress",
          "type": "address"
        },
        {
          "internalType": "address payable",
          "name": "_treasuryWallet",
          "type": "address"
        }
      ],
      "stateMutability": "nonpayable",
      "type": "constructor"
    },
    {
      "anonymous": false,
      "inputs": [
        {
          "indexed": true,
          "internalType": "address",
          "name": "previousOwner",
          "type": "address"
        },
        {
          "indexed": true,
          "internalType": "address",
          "name": "newOwner",
          "type": "address"
        }
      ],
      "name": "OwnershipTransferred",
      "type": "event"
    },
    {
      "anonymous": false,
      "inputs": [
        {
          "indexed": false,
          "internalType": "uint256",
          "name": "charId",
          "type": "uint256"
        },
        {
          "indexed": false,
          "internalType": "uint256",
          "name": "jtemId",
          "type": "uint256"
        },
        {
          "indexed": false,
          "internalType": "uint256",
          "name": "userId",
          "type": "uint256"
        },
        {
          "indexed": false,
          "internalType": "address",
          "name": "user",
          "type": "address"
        }
      ],
      "name": "UserCreated",
      "type": "event"
    },
    {
      "anonymous": false,
      "inputs": [
        {
          "indexed": false,
          "internalType": "uint256",
          "name": "charId",
          "type": "uint256"
        },
        {
          "indexed": false,
          "internalType": "uint256",
          "name": "jtemId",
          "type": "uint256"
        },
        {
          "indexed": false,
          "internalType": "address",
          "name": "user",
          "type": "address"
        }
      ],
      "name": "UserDeleated",
      "type": "event"
    },
    {
      "anonymous": false,
      "inputs": [
        {
          "indexed": false,
          "internalType": "uint256",
          "name": "charId",
          "type": "uint256"
        },
        {
          "indexed": false,
          "internalType": "uint256",
          "name": "jtemId",
          "type": "uint256"
        },
        {
          "indexed": false,
          "internalType": "address",
          "name": "user",
          "type": "address"
        }
      ],
      "name": "UserUpdated",
      "type": "event"
    },
    {
      "inputs": [],
      "name": "owner",
      "outputs": [
        {
          "internalType": "address",
          "name": "",
          "type": "address"
        }
      ],
      "stateMutability": "view",
      "type": "function"
    },
    {
      "inputs": [],
      "name": "renounceOwnership",
      "outputs": [],
      "stateMutability": "nonpayable",
      "type": "function"
    },
    {
      "inputs": [
        {
          "internalType": "address",
          "name": "newOwner",
          "type": "address"
        }
      ],
      "name": "transferOwnership",
      "outputs": [],
      "stateMutability": "nonpayable",
      "type": "function"
    },
    {
      "inputs": [
        {
          "internalType": "uint256",
          "name": "_charId",
          "type": "uint256"
        },
        {
          "internalType": "uint256",
          "name": "_jtemId",
          "type": "uint256"
        }
      ],
      "name": "signUp",
      "outputs": [],
      "stateMutability": "nonpayable",
      "type": "function"
    },
    {
      "inputs": [
        {
          "internalType": "uint256",
          "name": "_charId",
          "type": "uint256"
        }
      ],
      "name": "updateChar",
      "outputs": [],
      "stateMutability": "nonpayable",
      "type": "function"
    },
    {
      "inputs": [
        {
          "internalType": "uint256",
          "name": "_jtemId",
          "type": "uint256"
        }
      ],
      "name": "updateJtem",
      "outputs": [],
      "stateMutability": "nonpayable",
      "type": "function"
    },
    {
      "inputs": [
        {
          "internalType": "address",
          "name": "_user",
          "type": "address"
        }
      ],
      "name": "fetchUser",
      "outputs": [
        {
          "components": [
            {
              "internalType": "uint256",
              "name": "userId",
              "type": "uint256"
            },
            {
              "components": [
                {
                  "internalType": "address",
                  "name": "contractAddr",
                  "type": "address"
                },
                {
                  "internalType": "uint256",
                  "name": "tokenId",
                  "type": "uint256"
                }
              ],
              "internalType": "struct JetrisUser.Token",
              "name": "charToken",
              "type": "tuple"
            },
            {
              "components": [
                {
                  "internalType": "address",
                  "name": "contractAddr",
                  "type": "address"
                },
                {
                  "internalType": "uint256",
                  "name": "tokenId",
                  "type": "uint256"
                }
              ],
              "internalType": "struct JetrisUser.Token",
              "name": "jtemToken",
              "type": "tuple"
            },
            {
              "internalType": "address payable",
              "name": "user",
              "type": "address"
            }
          ],
          "internalType": "struct JetrisUser.UserInfo",
          "name": "",
          "type": "tuple"
        }
      ],
      "stateMutability": "view",
      "type": "function"
    },
    {
      "inputs": [],
      "name": "fetchUsers",
      "outputs": [
        {
          "components": [
            {
              "internalType": "uint256",
              "name": "userId",
              "type": "uint256"
            },
            {
              "components": [
                {
                  "internalType": "address",
                  "name": "contractAddr",
                  "type": "address"
                },
                {
                  "internalType": "uint256",
                  "name": "tokenId",
                  "type": "uint256"
                }
              ],
              "internalType": "struct JetrisUser.Token",
              "name": "charToken",
              "type": "tuple"
            },
            {
              "components": [
                {
                  "internalType": "address",
                  "name": "contractAddr",
                  "type": "address"
                },
                {
                  "internalType": "uint256",
                  "name": "tokenId",
                  "type": "uint256"
                }
              ],
              "internalType": "struct JetrisUser.Token",
              "name": "jtemToken",
              "type": "tuple"
            },
            {
              "internalType": "address payable",
              "name": "user",
              "type": "address"
            }
          ],
          "internalType": "struct JetrisUser.UserInfo[]",
          "name": "",
          "type": "tuple[]"
        }
      ],
      "stateMutability": "view",
      "type": "function"
    },
    {
      "inputs": [
        {
          "internalType": "address",
          "name": "",
          "type": "address"
        },
        {
          "internalType": "address",
          "name": "",
          "type": "address"
        },
        {
          "internalType": "uint256",
          "name": "",
          "type": "uint256"
        },
        {
          "internalType": "uint256",
          "name": "",
          "type": "uint256"
        },
        {
          "internalType": "bytes",
          "name": "",
          "type": "bytes"
        }
      ],
      "name": "onERC1155Received",
      "outputs": [
        {
          "internalType": "bytes4",
          "name": "",
          "type": "bytes4"
        }
      ],
      "stateMutability": "nonpayable",
      "type": "function"
    },
    {
      "inputs": [
        {
          "internalType": "address",
          "name": "",
          "type": "address"
        },
        {
          "internalType": "address",
          "name": "",
          "type": "address"
        },
        {
          "internalType": "uint256[]",
          "name": "",
          "type": "uint256[]"
        },
        {
          "internalType": "uint256[]",
          "name": "",
          "type": "uint256[]"
        },
        {
          "internalType": "bytes",
          "name": "",
          "type": "bytes"
        }
      ],
      "name": "onERC1155BatchReceived",
      "outputs": [
        {
          "internalType": "bytes4",
          "name": "",
          "type": "bytes4"
        }
      ],
      "stateMutability": "nonpayable",
      "type": "function"
    },
    {
      "inputs": [
        {
          "internalType": "address",
          "name": "",
          "type": "address"
        },
        {
          "internalType": "address",
          "name": "",
          "type": "address"
        },
        {
          "internalType": "uint256",
          "name": "",
          "type": "uint256"
        },
        {
          "internalType": "bytes",
          "name": "",
          "type": "bytes"
        }
      ],
      "name": "onERC721Received",
      "outputs": [
        {
          "internalType": "bytes4",
          "name": "",
          "type": "bytes4"
        }
      ],
      "stateMutability": "nonpayable",
      "type": "function"
    }
  ],
  "bytecode": "0x6080604052670de0b6b3a76400006002556000600355600060045560006005553480156200002c57600080fd5b50604051620023473803806200234783398181016040528101906200005291906200041c565b62000072620000666200015160201b60201c565b6200015960201b60201c565b62000083846200021d60201b60201c565b5082600860006101000a81548173ffffffffffffffffffffffffffffffffffffffff021916908373ffffffffffffffffffffffffffffffffffffffff16021790555081600960006101000a81548173ffffffffffffffffffffffffffffffffffffffff021916908373ffffffffffffffffffffffffffffffffffffffff16021790555080600760006101000a81548173ffffffffffffffffffffffffffffffffffffffff021916908373ffffffffffffffffffffffffffffffffffffffff1602179055505050505062000511565b600033905090565b60008060009054906101000a900473ffffffffffffffffffffffffffffffffffffffff169050816000806101000a81548173ffffffffffffffffffffffffffffffffffffffff021916908373ffffffffffffffffffffffffffffffffffffffff1602179055508173ffffffffffffffffffffffffffffffffffffffff168173ffffffffffffffffffffffffffffffffffffffff167f8be0079c531659141344cd1fd0a4f28419497f9722a3daafe3b4186f6b6457e060405160405180910390a35050565b60006200022f620002b360201b60201c565b600073ffffffffffffffffffffffffffffffffffffffff168273ffffffffffffffffffffffffffffffffffffffff16036200026957600080fd5b81600660006101000a81548173ffffffffffffffffffffffffffffffffffffffff021916908373ffffffffffffffffffffffffffffffffffffffff16021790555060019050919050565b620002c36200015160201b60201c565b73ffffffffffffffffffffffffffffffffffffffff16620002e96200034460201b60201c565b73ffffffffffffffffffffffffffffffffffffffff161462000342576040517f08c379a00000000000000000000000000000000000000000000000000000000081526004016200033990620004ef565b60405180910390fd5b565b60008060009054906101000a900473ffffffffffffffffffffffffffffffffffffffff16905090565b600080fd5b600073ffffffffffffffffffffffffffffffffffffffff82169050919050565b60006200039f8262000372565b9050919050565b620003b18162000392565b8114620003bd57600080fd5b50565b600081519050620003d181620003a6565b92915050565b6000620003e48262000372565b9050919050565b620003f681620003d7565b81146200040257600080fd5b50565b6000815190506200041681620003eb565b92915050565b600080600080608085870312156200043957620004386200036d565b5b60006200044987828801620003c0565b94505060206200045c87828801620003c0565b93505060406200046f87828801620003c0565b9250506060620004828782880162000405565b91505092959194509250565b600082825260208201905092915050565b7f4f776e61626c653a2063616c6c6572206973206e6f7420746865206f776e6572600082015250565b6000620004d76020836200048e565b9150620004e4826200049f565b602082019050919050565b600060208201905081810360008301526200050a81620004c8565b9050919050565b611e2680620005216000396000f3fe608060405234801561001057600080fd5b50600436106100a95760003560e01c8063bc197c8111610071578063bc197c811461013e578063be6f0ea21461016e578063bfcad4331461019e578063ea9eb0b7146101bc578063f23a6e61146101d8578063f2fde38b14610208576100a9565b8063150b7a02146100ae578063715018a6146100de5780638da5cb5b146100e857806399c6dc0514610106578063aeeda6bf14610122575b600080fd5b6100c860048036038101906100c39190611363565b610224565b6040516100d59190611421565b60405180910390f35b6100e6610238565b005b6100f061024c565b6040516100fd919061144b565b60405180910390f35b610120600480360381019061011b9190611466565b610275565b005b61013c60048036038101906101379190611493565b61044b565b005b6101586004803603810190610153919061159b565b61090a565b6040516101659190611421565b60405180910390f35b6101886004803603810190610183919061166a565b61091f565b604051610195919061175a565b60405180910390f35b6101a6610ac0565b6040516101b39190611879565b60405180910390f35b6101d660048036038101906101d19190611466565b610d49565b005b6101f260048036038101906101ed919061189b565b610ef5565b6040516101ff9190611421565b60405180910390f35b610222600480360381019061021d919061166a565b610f0a565b005b600063150b7a0260e01b9050949350505050565b610240610f8d565b61024a600061100b565b565b60008060009054906101000a900473ffffffffffffffffffffffffffffffffffffffff16905090565b600860009054906101000a900473ffffffffffffffffffffffffffffffffffffffff1673ffffffffffffffffffffffffffffffffffffffff16636352211e826040518263ffffffff1660e01b81526004016102d09190611941565b602060405180830381865afa1580156102ed573d6000803e3d6000fd5b505050506040513d601f19601f820116820180604052508101906103119190611971565b73ffffffffffffffffffffffffffffffffffffffff163373ffffffffffffffffffffffffffffffffffffffff161461037e576040517f08c379a000000000000000000000000000000000000000000000000000000000815260040161037590611a21565b60405180910390fd5b80600b60003373ffffffffffffffffffffffffffffffffffffffff1673ffffffffffffffffffffffffffffffffffffffff168152602001908152602001600020600101600101819055507fb4e54a03420cbd5ff517551dc147bf23b4185e3b819d2f217ea0e6c6281d8d8381600b60003373ffffffffffffffffffffffffffffffffffffffff1673ffffffffffffffffffffffffffffffffffffffff168152602001908152602001600020600301600101543360405161044093929190611a41565b60405180910390a150565b600860009054906101000a900473ffffffffffffffffffffffffffffffffffffffff1673ffffffffffffffffffffffffffffffffffffffff16636352211e836040518263ffffffff1660e01b81526004016104a69190611941565b602060405180830381865afa1580156104c3573d6000803e3d6000fd5b505050506040513d601f19601f820116820180604052508101906104e79190611971565b73ffffffffffffffffffffffffffffffffffffffff163373ffffffffffffffffffffffffffffffffffffffff1614610554576040517f08c379a000000000000000000000000000000000000000000000000000000000815260040161054b90611a21565b60405180910390fd5b6000600960009054906101000a900473ffffffffffffffffffffffffffffffffffffffff1673ffffffffffffffffffffffffffffffffffffffff1662fdd58e33846040518363ffffffff1660e01b81526004016105b2929190611a78565b602060405180830381865afa1580156105cf573d6000803e3d6000fd5b505050506040513d601f19601f820116820180604052508101906105f39190611ab6565b03610633576040517f08c379a000000000000000000000000000000000000000000000000000000000815260040161062a90611b55565b60405180910390fd5b61063d60016110cf565b600061064960016110e5565b9050600a339080600181540180825580915050600190039060005260206000200160009091909190916101000a81548173ffffffffffffffffffffffffffffffffffffffff021916908373ffffffffffffffffffffffffffffffffffffffff16021790555060405180608001604052808281526020016040518060400160405280600860009054906101000a900473ffffffffffffffffffffffffffffffffffffffff1673ffffffffffffffffffffffffffffffffffffffff1681526020018681525081526020016040518060400160405280600960009054906101000a900473ffffffffffffffffffffffffffffffffffffffff1673ffffffffffffffffffffffffffffffffffffffff1681526020018581525081526020013373ffffffffffffffffffffffffffffffffffffffff16815250600b60003373ffffffffffffffffffffffffffffffffffffffff1673ffffffffffffffffffffffffffffffffffffffff1681526020019081526020016000206000820151816000015560208201518160010160008201518160000160006101000a81548173ffffffffffffffffffffffffffffffffffffffff021916908373ffffffffffffffffffffffffffffffffffffffff16021790555060208201518160010155505060408201518160030160008201518160000160006101000a81548173ffffffffffffffffffffffffffffffffffffffff021916908373ffffffffffffffffffffffffffffffffffffffff16021790555060208201518160010155505060608201518160050160006101000a81548173ffffffffffffffffffffffffffffffffffffffff021916908373ffffffffffffffffffffffffffffffffffffffff1602179055509050507fb71cf8dd9f35ff09f0b312ae47365f80792968af9383e6cbc7f9c12054d6cc3d838383336040516108fd9493929190611b75565b60405180910390a1505050565b600063bc197c8160e01b905095945050505050565b6109276110fb565b600b60008373ffffffffffffffffffffffffffffffffffffffff1673ffffffffffffffffffffffffffffffffffffffff16815260200190815260200160002060405180608001604052908160008201548152602001600182016040518060400160405290816000820160009054906101000a900473ffffffffffffffffffffffffffffffffffffffff1673ffffffffffffffffffffffffffffffffffffffff1673ffffffffffffffffffffffffffffffffffffffff1681526020016001820154815250508152602001600382016040518060400160405290816000820160009054906101000a900473ffffffffffffffffffffffffffffffffffffffff1673ffffffffffffffffffffffffffffffffffffffff1673ffffffffffffffffffffffffffffffffffffffff16815260200160018201548152505081526020016005820160009054906101000a900473ffffffffffffffffffffffffffffffffffffffff1673ffffffffffffffffffffffffffffffffffffffff1673ffffffffffffffffffffffffffffffffffffffff16815250509050919050565b60606000610ace60016110e5565b905060008167ffffffffffffffff811115610aec57610aeb611238565b5b604051908082528060200260200182016040528015610b2557816020015b610b126110fb565b815260200190600190039081610b0a5790505b50905060005b82811015610d40576000600a8281548110610b4957610b48611bba565b5b9060005260206000200160009054906101000a900473ffffffffffffffffffffffffffffffffffffffff1690506000600b60008373ffffffffffffffffffffffffffffffffffffffff1673ffffffffffffffffffffffffffffffffffffffff16815260200190815260200160002090508060405180608001604052908160008201548152602001600182016040518060400160405290816000820160009054906101000a900473ffffffffffffffffffffffffffffffffffffffff1673ffffffffffffffffffffffffffffffffffffffff1673ffffffffffffffffffffffffffffffffffffffff1681526020016001820154815250508152602001600382016040518060400160405290816000820160009054906101000a900473ffffffffffffffffffffffffffffffffffffffff1673ffffffffffffffffffffffffffffffffffffffff1673ffffffffffffffffffffffffffffffffffffffff16815260200160018201548152505081526020016005820160009054906101000a900473ffffffffffffffffffffffffffffffffffffffff1673ffffffffffffffffffffffffffffffffffffffff1673ffffffffffffffffffffffffffffffffffffffff1681525050848481518110610d2057610d1f611bba565b5b602002602001018190525050508080610d3890611c18565b915050610b2b565b50809250505090565b6000600960009054906101000a900473ffffffffffffffffffffffffffffffffffffffff1673ffffffffffffffffffffffffffffffffffffffff1662fdd58e33846040518363ffffffff1660e01b8152600401610da7929190611a78565b602060405180830381865afa158015610dc4573d6000803e3d6000fd5b505050506040513d601f19601f82011682018060405250810190610de89190611ab6565b03610e28576040517f08c379a0000000000000000000000000000000000000000000000000000000008152600401610e1f90611cd2565b60405180910390fd5b80600b60003373ffffffffffffffffffffffffffffffffffffffff1673ffffffffffffffffffffffffffffffffffffffff168152602001908152602001600020600301600101819055507fb4e54a03420cbd5ff517551dc147bf23b4185e3b819d2f217ea0e6c6281d8d83600b60003373ffffffffffffffffffffffffffffffffffffffff1673ffffffffffffffffffffffffffffffffffffffff168152602001908152602001600020600101600101548233604051610eea93929190611a41565b60405180910390a150565b600063f23a6e6160e01b905095945050505050565b610f12610f8d565b600073ffffffffffffffffffffffffffffffffffffffff168173ffffffffffffffffffffffffffffffffffffffff1603610f81576040517f08c379a0000000000000000000000000000000000000000000000000000000008152600401610f7890611d64565b60405180910390fd5b610f8a8161100b565b50565b610f956110f3565b73ffffffffffffffffffffffffffffffffffffffff16610fb361024c565b73ffffffffffffffffffffffffffffffffffffffff1614611009576040517f08c379a000000000000000000000000000000000000000000000000000000000815260040161100090611dd0565b60405180910390fd5b565b60008060009054906101000a900473ffffffffffffffffffffffffffffffffffffffff169050816000806101000a81548173ffffffffffffffffffffffffffffffffffffffff021916908373ffffffffffffffffffffffffffffffffffffffff1602179055508173ffffffffffffffffffffffffffffffffffffffff168173ffffffffffffffffffffffffffffffffffffffff167f8be0079c531659141344cd1fd0a4f28419497f9722a3daafe3b4186f6b6457e060405160405180910390a35050565b6001816000016000828254019250508190555050565b600081600001549050919050565b600033905090565b604051806080016040528060008152602001611115611145565b8152602001611122611145565b8152602001600073ffffffffffffffffffffffffffffffffffffffff1681525090565b6040518060400160405280600073ffffffffffffffffffffffffffffffffffffffff168152602001600081525090565b6000604051905090565b600080fd5b600080fd5b600073ffffffffffffffffffffffffffffffffffffffff82169050919050565b60006111b482611189565b9050919050565b6111c4816111a9565b81146111cf57600080fd5b50565b6000813590506111e1816111bb565b92915050565b6000819050919050565b6111fa816111e7565b811461120557600080fd5b50565b600081359050611217816111f1565b92915050565b600080fd5b600080fd5b6000601f19601f8301169050919050565b7f4e487b7100000000000000000000000000000000000000000000000000000000600052604160045260246000fd5b61127082611227565b810181811067ffffffffffffffff8211171561128f5761128e611238565b5b80604052505050565b60006112a2611175565b90506112ae8282611267565b919050565b600067ffffffffffffffff8211156112ce576112cd611238565b5b6112d782611227565b9050602081019050919050565b82818337600083830152505050565b6000611306611301846112b3565b611298565b90508281526020810184848401111561132257611321611222565b5b61132d8482856112e4565b509392505050565b600082601f83011261134a5761134961121d565b5b813561135a8482602086016112f3565b91505092915050565b6000806000806080858703121561137d5761137c61117f565b5b600061138b878288016111d2565b945050602061139c878288016111d2565b93505060406113ad87828801611208565b925050606085013567ffffffffffffffff8111156113ce576113cd611184565b5b6113da87828801611335565b91505092959194509250565b60007fffffffff0000000000000000000000000000000000000000000000000000000082169050919050565b61141b816113e6565b82525050565b60006020820190506114366000830184611412565b92915050565b611445816111a9565b82525050565b6000602082019050611460600083018461143c565b92915050565b60006020828403121561147c5761147b61117f565b5b600061148a84828501611208565b91505092915050565b600080604083850312156114aa576114a961117f565b5b60006114b885828601611208565b92505060206114c985828601611208565b9150509250929050565b600067ffffffffffffffff8211156114ee576114ed611238565b5b602082029050602081019050919050565b600080fd5b6000611517611512846114d3565b611298565b9050808382526020820190506020840283018581111561153a576115396114ff565b5b835b81811015611563578061154f8882611208565b84526020840193505060208101905061153c565b5050509392505050565b600082601f8301126115825761158161121d565b5b8135611592848260208601611504565b91505092915050565b600080600080600060a086880312156115b7576115b661117f565b5b60006115c5888289016111d2565b95505060206115d6888289016111d2565b945050604086013567ffffffffffffffff8111156115f7576115f6611184565b5b6116038882890161156d565b935050606086013567ffffffffffffffff81111561162457611623611184565b5b6116308882890161156d565b925050608086013567ffffffffffffffff81111561165157611650611184565b5b61165d88828901611335565b9150509295509295909350565b6000602082840312156116805761167f61117f565b5b600061168e848285016111d2565b91505092915050565b6116a0816111e7565b82525050565b6116af816111a9565b82525050565b6040820160008201516116cb60008501826116a6565b5060208201516116de6020850182611697565b50505050565b60006116ef82611189565b9050919050565b6116ff816116e4565b82525050565b60c08201600082015161171b6000850182611697565b50602082015161172e60208501826116b5565b50604082015161174160608501826116b5565b50606082015161175460a08501826116f6565b50505050565b600060c08201905061176f6000830184611705565b92915050565b600081519050919050565b600082825260208201905092915050565b6000819050602082019050919050565b60c0820160008201516117b76000850182611697565b5060208201516117ca60208501826116b5565b5060408201516117dd60608501826116b5565b5060608201516117f060a08501826116f6565b50505050565b600061180283836117a1565b60c08301905092915050565b6000602082019050919050565b600061182682611775565b6118308185611780565b935061183b83611791565b8060005b8381101561186c57815161185388826117f6565b975061185e8361180e565b92505060018101905061183f565b5085935050505092915050565b60006020820190508181036000830152611893818461181b565b905092915050565b600080600080600060a086880312156118b7576118b661117f565b5b60006118c5888289016111d2565b95505060206118d6888289016111d2565b94505060406118e788828901611208565b93505060606118f888828901611208565b925050608086013567ffffffffffffffff81111561191957611918611184565b5b61192588828901611335565b9150509295509295909350565b61193b816111e7565b82525050565b60006020820190506119566000830184611932565b92915050565b60008151905061196b816111bb565b92915050565b6000602082840312156119875761198661117f565b5b60006119958482850161195c565b91505092915050565b600082825260208201905092915050565b7f6f6e6c7920636861726163746572206f776e6572732063616e207369676e207560008201527f7000000000000000000000000000000000000000000000000000000000000000602082015250565b6000611a0b60218361199e565b9150611a16826119af565b604082019050919050565b60006020820190508181036000830152611a3a816119fe565b9050919050565b6000606082019050611a566000830186611932565b611a636020830185611932565b611a70604083018461143c565b949350505050565b6000604082019050611a8d600083018561143c565b611a9a6020830184611932565b9392505050565b600081519050611ab0816111f1565b92915050565b600060208284031215611acc57611acb61117f565b5b6000611ada84828501611aa1565b91505092915050565b7f6f6e6c79204a6574726973204974656d206f776e6572732063616e207369676e60008201527f2075700000000000000000000000000000000000000000000000000000000000602082015250565b6000611b3f60238361199e565b9150611b4a82611ae3565b604082019050919050565b60006020820190508181036000830152611b6e81611b32565b9050919050565b6000608082019050611b8a6000830187611932565b611b976020830186611932565b611ba46040830185611932565b611bb1606083018461143c565b95945050505050565b7f4e487b7100000000000000000000000000000000000000000000000000000000600052603260045260246000fd5b7f4e487b7100000000000000000000000000000000000000000000000000000000600052601160045260246000fd5b6000611c23826111e7565b91507fffffffffffffffffffffffffffffffffffffffffffffffffffffffffffffffff8203611c5557611c54611be9565b5b600182019050919050565b7f6f6e6c79204a6574726973204974656d206f776e6572732063616e207570646160008201527f74652075736572496e666f000000000000000000000000000000000000000000602082015250565b6000611cbc602b8361199e565b9150611cc782611c60565b604082019050919050565b60006020820190508181036000830152611ceb81611caf565b9050919050565b7f4f776e61626c653a206e6577206f776e657220697320746865207a65726f206160008201527f6464726573730000000000000000000000000000000000000000000000000000602082015250565b6000611d4e60268361199e565b9150611d5982611cf2565b604082019050919050565b60006020820190508181036000830152611d7d81611d41565b9050919050565b7f4f776e61626c653a2063616c6c6572206973206e6f7420746865206f776e6572600082015250565b6000611dba60208361199e565b9150611dc582611d84565b602082019050919050565b60006020820190508181036000830152611de981611dad565b905091905056fea2646970667358221220c74869b22969268af58067d3de5ee2acda342277cad9f5e4094a1dff0ed0823864736f6c63430008110033",
  "immutableReferences": {},
  "source": "// SPDX-License-Identifier: MIT\npragma solidity ^0.8.0;\n\nimport \"@openzeppelin/contracts/token/ERC721/ERC721.sol\";\nimport \"@openzeppelin/contracts/token/ERC1155/ERC1155.sol\";\nimport \"@openzeppelin/contracts/token/ERC1155/IERC1155Receiver.sol\";\nimport \"@openzeppelin/contracts/access/Ownable.sol\";\nimport \"@openzeppelin/contracts/utils/Counters.sol\";\nimport \"./JetToken.sol\";\n\ncontract JetrisUser is Ownable {\n    using Counters for Counters.Counter;\n    Counters.Counter private _userIds;\n    uint256 decimals = 10**18;\n    uint256 firstReward = 0;\n    uint256 secondReward = 0;\n    uint256 thirdReward = 0;\n\n    JetToken private token;\n    address payable private treasuryWallet;\n    address private nftContractAddress;\n    address private itemContractAddress;\n    address[] private addrList;\n\n    constructor (\n        address _tokenContractAddress,\n        address _nftContractAddress,\n        address _itemContractAddress,\n        address payable _treasuryWallet\n    ) {\n        _setToken(_tokenContractAddress);\n        nftContractAddress = _nftContractAddress;\n        itemContractAddress = _itemContractAddress;\n        treasuryWallet = _treasuryWallet;\n    }\n\n    mapping(address => UserInfo) idUserInfo;\n\n    struct Token {\n        address contractAddr;\n        uint256 tokenId;\n    }\n\n    struct UserInfo {\n        uint256 userId;\n        Token charToken;\n        Token jtemToken;\n        address payable user;\n    }\n\n    event UserCreated (\n        uint256 charId,\n        uint256 jtemId,\n        uint256 userId,\n        address user\n    );\n\n    event UserUpdated (\n        uint256 charId,\n        uint256 jtemId,\n        address user\n    );\n\n    event UserDeleated (\n        uint256 charId,\n        uint256 jtemId,\n        address user\n    );\n\n\n    function _setToken(address _tokenAddress) private onlyOwner returns (bool) {\n        require(_tokenAddress != address(0x0));\n        token = JetToken(_tokenAddress);\n        return true;\n    }\n\n    function signUp(\n        uint256 _charId,\n        uint256 _jtemId\n    ) public {\n        require(msg.sender == ERC721(nftContractAddress).ownerOf(_charId),  \"only character owners can sign up\");\n        require(ERC1155(itemContractAddress).balanceOf(msg.sender, _jtemId)!=0,  \"only Jetris Item owners can sign up\");\n\n        _userIds.increment();\n        uint256 userId = _userIds.current();\n        addrList.push(msg.sender);\n        idUserInfo[msg.sender] = UserInfo({\n            userId: userId,\n            charToken: Token({\n                contractAddr: nftContractAddress,\n                tokenId: _charId\n            }),\n            jtemToken: Token({\n                contractAddr: itemContractAddress,\n                tokenId: _jtemId\n            }),\n            user: payable(msg.sender)\n        });\n\n        emit UserCreated(\n            _charId,\n            _jtemId,\n            userId,\n            msg.sender\n        );\n    }\n\n    function updateChar(\n        uint256 _charId\n    ) public {\n        require(msg.sender == ERC721(nftContractAddress).ownerOf(_charId),  \"only character owners can sign up\");\n\n        idUserInfo[msg.sender].charToken.tokenId = _charId;\n\n        emit UserUpdated(\n            _charId,\n            idUserInfo[msg.sender].jtemToken.tokenId,\n            msg.sender\n        );\n    }\n\n    function updateJtem(\n        uint256 _jtemId\n    ) public {\n        require(ERC1155(itemContractAddress).balanceOf(msg.sender, _jtemId)!=0,  \"only Jetris Item owners can update userInfo\");\n\n        idUserInfo[msg.sender].jtemToken.tokenId = _jtemId;\n\n        emit UserUpdated(\n            idUserInfo[msg.sender].charToken.tokenId,\n            _jtemId,\n            msg.sender\n        );\n    }\n\n    function fetchUser(address _user) public view returns (UserInfo memory) {\n        return idUserInfo[_user];\n    }\n\n    function fetchUsers() public view returns (UserInfo[] memory) {\n        uint userCount = _userIds.current();\n        UserInfo[] memory users =  new UserInfo[](userCount);\n\n        for (uint i = 0; i < userCount; i++) {\n            address currentAddr = addrList[i];\n            UserInfo storage currentUser = idUserInfo[currentAddr];\n            users[i] = currentUser;\n        }\n        return users;\n    }\n\n    function onERC1155Received(address, address, uint256, uint256, bytes memory) public virtual returns (bytes4) {\n        return this.onERC1155Received.selector;\n    }\n\n    function onERC1155BatchReceived(address, address, uint256[] memory, uint256[] memory, bytes memory) public virtual returns (bytes4) {\n        return this.onERC1155BatchReceived.selector;\n    }\n\n    function onERC721Received(address, address, uint256, bytes memory) public virtual returns (bytes4) {\n        return this.onERC721Received.selector;\n    }\n}\n",
  "sourcePath": "C:\\Users\\user\\Desktop\\project3\\BEB-06-FINAL-06\\contract\\contracts\\JetrisUser.sol",
  "compiler": {
    "name": "solc",
    "version": "0.8.17+commit.8df45f5f.Emscripten.clang"
  },
  "schemaVersion": "3.4.10",
  "updatedAt": "2022-11-29T14:59:18.727Z",
  "networkType": "ethereum",
  "devdoc": {
    "kind": "dev",
    "methods": {
      "owner()": {
        "details": "Returns the address of the current owner."
      },
      "renounceOwnership()": {
        "details": "Leaves the contract without owner. It will not be possible to call `onlyOwner` functions anymore. Can only be called by the current owner. NOTE: Renouncing ownership will leave the contract without an owner, thereby removing any functionality that is only available to the owner."
      },
      "transferOwnership(address)": {
        "details": "Transfers ownership of the contract to a new account (`newOwner`). Can only be called by the current owner."
      }
    },
    "version": 1
  },
  "userdoc": {
    "kind": "user",
    "methods": {},
    "version": 1
  }
}