{
  "contractName": "JetrisNFT",
  "abi": [
    {
      "inputs": [
        {
          "internalType": "address",
          "name": "_marketAddress",
          "type": "address"
        },
        {
          "internalType": "address",
          "name": "_tokenContractAddress",
          "type": "address"
        },
        {
          "internalType": "string",
          "name": "_JetrisBaseURI",
          "type": "string"
        },
        {
          "internalType": "address payable",
          "name": "_treasuryWallet",
          "type": "address"
        }
      ],
      "stateMutability": "nonpayable",
      "type": "constructor"
    },
    {
      "anonymous": false,
      "inputs": [
        {
          "indexed": true,
          "internalType": "address",
          "name": "owner",
          "type": "address"
        },
        {
          "indexed": true,
          "internalType": "address",
          "name": "approved",
          "type": "address"
        },
        {
          "indexed": true,
          "internalType": "uint256",
          "name": "tokenId",
          "type": "uint256"
        }
      ],
      "name": "Approval",
      "type": "event"
    },
    {
      "anonymous": false,
      "inputs": [
        {
          "indexed": true,
          "internalType": "address",
          "name": "owner",
          "type": "address"
        },
        {
          "indexed": true,
          "internalType": "address",
          "name": "operator",
          "type": "address"
        },
        {
          "indexed": false,
          "internalType": "bool",
          "name": "approved",
          "type": "bool"
        }
      ],
      "name": "ApprovalForAll",
      "type": "event"
    },
    {
      "anonymous": false,
      "inputs": [
        {
          "indexed": false,
          "internalType": "address",
          "name": "addr",
          "type": "address"
        },
        {
          "indexed": false,
          "internalType": "uint256",
          "name": "tokenId",
          "type": "uint256"
        },
        {
          "indexed": false,
          "internalType": "string",
          "name": "tokenURI",
          "type": "string"
        }
      ],
      "name": "Minted",
      "type": "event"
    },
    {
      "anonymous": false,
      "inputs": [
        {
          "indexed": true,
          "internalType": "address",
          "name": "previousOwner",
          "type": "address"
        },
        {
          "indexed": true,
          "internalType": "address",
          "name": "newOwner",
          "type": "address"
        }
      ],
      "name": "OwnershipTransferred",
      "type": "event"
    },
    {
      "anonymous": false,
      "inputs": [
        {
          "indexed": true,
          "internalType": "address",
          "name": "from",
          "type": "address"
        },
        {
          "indexed": true,
          "internalType": "address",
          "name": "to",
          "type": "address"
        },
        {
          "indexed": true,
          "internalType": "uint256",
          "name": "tokenId",
          "type": "uint256"
        }
      ],
      "name": "Transfer",
      "type": "event"
    },
    {
      "inputs": [
        {
          "internalType": "address",
          "name": "to",
          "type": "address"
        },
        {
          "internalType": "uint256",
          "name": "tokenId",
          "type": "uint256"
        }
      ],
      "name": "approve",
      "outputs": [],
      "stateMutability": "nonpayable",
      "type": "function"
    },
    {
      "inputs": [
        {
          "internalType": "address",
          "name": "owner",
          "type": "address"
        }
      ],
      "name": "balanceOf",
      "outputs": [
        {
          "internalType": "uint256",
          "name": "",
          "type": "uint256"
        }
      ],
      "stateMutability": "view",
      "type": "function"
    },
    {
      "inputs": [
        {
          "internalType": "uint256",
          "name": "tokenId",
          "type": "uint256"
        }
      ],
      "name": "getApproved",
      "outputs": [
        {
          "internalType": "address",
          "name": "",
          "type": "address"
        }
      ],
      "stateMutability": "view",
      "type": "function"
    },
    {
      "inputs": [
        {
          "internalType": "address",
          "name": "owner",
          "type": "address"
        },
        {
          "internalType": "address",
          "name": "operator",
          "type": "address"
        }
      ],
      "name": "isApprovedForAll",
      "outputs": [
        {
          "internalType": "bool",
          "name": "",
          "type": "bool"
        }
      ],
      "stateMutability": "view",
      "type": "function"
    },
    {
      "inputs": [],
      "name": "name",
      "outputs": [
        {
          "internalType": "string",
          "name": "",
          "type": "string"
        }
      ],
      "stateMutability": "view",
      "type": "function"
    },
    {
      "inputs": [],
      "name": "owner",
      "outputs": [
        {
          "internalType": "address",
          "name": "",
          "type": "address"
        }
      ],
      "stateMutability": "view",
      "type": "function"
    },
    {
      "inputs": [
        {
          "internalType": "uint256",
          "name": "tokenId",
          "type": "uint256"
        }
      ],
      "name": "ownerOf",
      "outputs": [
        {
          "internalType": "address",
          "name": "",
          "type": "address"
        }
      ],
      "stateMutability": "view",
      "type": "function"
    },
    {
      "inputs": [],
      "name": "renounceOwnership",
      "outputs": [],
      "stateMutability": "nonpayable",
      "type": "function"
    },
    {
      "inputs": [
        {
          "internalType": "address",
          "name": "from",
          "type": "address"
        },
        {
          "internalType": "address",
          "name": "to",
          "type": "address"
        },
        {
          "internalType": "uint256",
          "name": "tokenId",
          "type": "uint256"
        }
      ],
      "name": "safeTransferFrom",
      "outputs": [],
      "stateMutability": "nonpayable",
      "type": "function"
    },
    {
      "inputs": [
        {
          "internalType": "address",
          "name": "from",
          "type": "address"
        },
        {
          "internalType": "address",
          "name": "to",
          "type": "address"
        },
        {
          "internalType": "uint256",
          "name": "tokenId",
          "type": "uint256"
        },
        {
          "internalType": "bytes",
          "name": "data",
          "type": "bytes"
        }
      ],
      "name": "safeTransferFrom",
      "outputs": [],
      "stateMutability": "nonpayable",
      "type": "function"
    },
    {
      "inputs": [
        {
          "internalType": "address",
          "name": "operator",
          "type": "address"
        },
        {
          "internalType": "bool",
          "name": "approved",
          "type": "bool"
        }
      ],
      "name": "setApprovalForAll",
      "outputs": [],
      "stateMutability": "nonpayable",
      "type": "function"
    },
    {
      "inputs": [],
      "name": "symbol",
      "outputs": [
        {
          "internalType": "string",
          "name": "",
          "type": "string"
        }
      ],
      "stateMutability": "view",
      "type": "function"
    },
    {
      "inputs": [
        {
          "internalType": "uint256",
          "name": "index",
          "type": "uint256"
        }
      ],
      "name": "tokenByIndex",
      "outputs": [
        {
          "internalType": "uint256",
          "name": "",
          "type": "uint256"
        }
      ],
      "stateMutability": "view",
      "type": "function"
    },
    {
      "inputs": [
        {
          "internalType": "address",
          "name": "owner",
          "type": "address"
        },
        {
          "internalType": "uint256",
          "name": "index",
          "type": "uint256"
        }
      ],
      "name": "tokenOfOwnerByIndex",
      "outputs": [
        {
          "internalType": "uint256",
          "name": "",
          "type": "uint256"
        }
      ],
      "stateMutability": "view",
      "type": "function"
    },
    {
      "inputs": [],
      "name": "totalSupply",
      "outputs": [
        {
          "internalType": "uint256",
          "name": "",
          "type": "uint256"
        }
      ],
      "stateMutability": "view",
      "type": "function"
    },
    {
      "inputs": [
        {
          "internalType": "address",
          "name": "from",
          "type": "address"
        },
        {
          "internalType": "address",
          "name": "to",
          "type": "address"
        },
        {
          "internalType": "uint256",
          "name": "tokenId",
          "type": "uint256"
        }
      ],
      "name": "transferFrom",
      "outputs": [],
      "stateMutability": "nonpayable",
      "type": "function"
    },
    {
      "inputs": [
        {
          "internalType": "address",
          "name": "newOwner",
          "type": "address"
        }
      ],
      "name": "transferOwnership",
      "outputs": [],
      "stateMutability": "nonpayable",
      "type": "function"
    },
    {
      "inputs": [],
      "name": "treasuryWallet",
      "outputs": [
        {
          "internalType": "address payable",
          "name": "",
          "type": "address"
        }
      ],
      "stateMutability": "view",
      "type": "function"
    },
    {
      "inputs": [],
      "name": "mintJetrisNFT",
      "outputs": [
        {
          "internalType": "uint256",
          "name": "",
          "type": "uint256"
        }
      ],
      "stateMutability": "payable",
      "type": "function"
    },
    {
      "inputs": [
        {
          "internalType": "bytes4",
          "name": "interfaceId",
          "type": "bytes4"
        }
      ],
      "name": "supportsInterface",
      "outputs": [
        {
          "internalType": "bool",
          "name": "",
          "type": "bool"
        }
      ],
      "stateMutability": "view",
      "type": "function"
    },
    {
      "inputs": [
        {
          "internalType": "uint256",
          "name": "_tokenId",
          "type": "uint256"
        }
      ],
      "name": "tokenURI",
      "outputs": [
        {
          "internalType": "string",
          "name": "",
          "type": "string"
        }
      ],
      "stateMutability": "view",
      "type": "function"
    },
    {
      "inputs": [],
      "name": "withdraw",
      "outputs": [
        {
          "internalType": "uint256",
          "name": "",
          "type": "uint256"
        }
      ],
      "stateMutability": "nonpayable",
      "type": "function"
    }
  ],
  "bytecode": "0x6080604052670de0b6b3a7640000600d553480156200001d57600080fd5b5060405162004ba338038062004ba38339818101604052810190620000439190620006a1565b6040518060400160405280600981526020017f4a65747269734e465400000000000000000000000000000000000000000000008152506040518060400160405280600381526020017f4e46540000000000000000000000000000000000000000000000000000000000815250620000cf620000c3620001c460201b60201c565b620001cc60201b60201c565b8160019081620000e091906200097d565b508060029081620000f291906200097d565b50505083601060006101000a81548173ffffffffffffffffffffffffffffffffffffffff021916908373ffffffffffffffffffffffffffffffffffffffff1602179055506001600f81905550601460128190555062000157836200029060201b60201c565b5062000169826200032660201b60201c565b620001796200034b60201b60201c565b80600e60006101000a81548173ffffffffffffffffffffffffffffffffffffffff021916908373ffffffffffffffffffffffffffffffffffffffff1602179055505050505062000b63565b600033905090565b60008060009054906101000a900473ffffffffffffffffffffffffffffffffffffffff169050816000806101000a81548173ffffffffffffffffffffffffffffffffffffffff021916908373ffffffffffffffffffffffffffffffffffffffff1602179055508173ffffffffffffffffffffffffffffffffffffffff168173ffffffffffffffffffffffffffffffffffffffff167f8be0079c531659141344cd1fd0a4f28419497f9722a3daafe3b4186f6b6457e060405160405180910390a35050565b6000620002a2620003aa60201b60201c565b600073ffffffffffffffffffffffffffffffffffffffff168273ffffffffffffffffffffffffffffffffffffffff1603620002dc57600080fd5b81600c60006101000a81548173ffffffffffffffffffffffffffffffffffffffff021916908373ffffffffffffffffffffffffffffffffffffffff16021790555060019050919050565b62000336620003aa60201b60201c565b80601390816200034791906200097d565b5050565b6200035b620003aa60201b60201c565b60005b6012548111620003a757601181908060018154018082558091505060019003906000526020600020016000909190919091505580806200039e9062000a93565b9150506200035e565b50565b620003ba620001c460201b60201c565b73ffffffffffffffffffffffffffffffffffffffff16620003e06200043b60201b60201c565b73ffffffffffffffffffffffffffffffffffffffff161462000439576040517f08c379a0000000000000000000000000000000000000000000000000000000008152600401620004309062000b41565b60405180910390fd5b565b60008060009054906101000a900473ffffffffffffffffffffffffffffffffffffffff16905090565b6000604051905090565b600080fd5b600080fd5b600073ffffffffffffffffffffffffffffffffffffffff82169050919050565b6000620004a58262000478565b9050919050565b620004b78162000498565b8114620004c357600080fd5b50565b600081519050620004d781620004ac565b92915050565b600080fd5b600080fd5b6000601f19601f8301169050919050565b7f4e487b7100000000000000000000000000000000000000000000000000000000600052604160045260246000fd5b6200053282620004e7565b810181811067ffffffffffffffff82111715620005545762000553620004f8565b5b80604052505050565b60006200056962000464565b905062000577828262000527565b919050565b600067ffffffffffffffff8211156200059a5762000599620004f8565b5b620005a582620004e7565b9050602081019050919050565b60005b83811015620005d2578082015181840152602081019050620005b5565b60008484015250505050565b6000620005f5620005ef846200057c565b6200055d565b905082815260208101848484011115620006145762000613620004e2565b5b62000621848285620005b2565b509392505050565b600082601f830112620006415762000640620004dd565b5b815162000653848260208601620005de565b91505092915050565b6000620006698262000478565b9050919050565b6200067b816200065c565b81146200068757600080fd5b50565b6000815190506200069b8162000670565b92915050565b60008060008060808587031215620006be57620006bd6200046e565b5b6000620006ce87828801620004c6565b9450506020620006e187828801620004c6565b935050604085015167ffffffffffffffff81111562000705576200070462000473565b5b620007138782880162000629565b925050606062000726878288016200068a565b91505092959194509250565b600081519050919050565b7f4e487b7100000000000000000000000000000000000000000000000000000000600052602260045260246000fd5b600060028204905060018216806200078557607f821691505b6020821081036200079b576200079a6200073d565b5b50919050565b60008190508160005260206000209050919050565b60006020601f8301049050919050565b600082821b905092915050565b600060088302620008057fffffffffffffffffffffffffffffffffffffffffffffffffffffffffffffffff82620007c6565b620008118683620007c6565b95508019841693508086168417925050509392505050565b6000819050919050565b6000819050919050565b60006200085e62000858620008528462000829565b62000833565b62000829565b9050919050565b6000819050919050565b6200087a836200083d565b62000892620008898262000865565b848454620007d3565b825550505050565b600090565b620008a96200089a565b620008b68184846200086f565b505050565b5b81811015620008de57620008d26000826200089f565b600181019050620008bc565b5050565b601f8211156200092d57620008f781620007a1565b6200090284620007b6565b8101602085101562000912578190505b6200092a6200092185620007b6565b830182620008bb565b50505b505050565b600082821c905092915050565b6000620009526000198460080262000932565b1980831691505092915050565b60006200096d83836200093f565b9150826002028217905092915050565b620009888262000732565b67ffffffffffffffff811115620009a457620009a3620004f8565b5b620009b082546200076c565b620009bd828285620008e2565b600060209050601f831160018114620009f55760008415620009e0578287015190505b620009ec85826200095f565b86555062000a5c565b601f19841662000a0586620007a1565b60005b8281101562000a2f5784890151825560018201915060208501945060208101905062000a08565b8683101562000a4f578489015162000a4b601f8916826200093f565b8355505b6001600288020188555050505b505050505050565b7f4e487b7100000000000000000000000000000000000000000000000000000000600052601160045260246000fd5b600062000aa08262000829565b91507fffffffffffffffffffffffffffffffffffffffffffffffffffffffffffffffff820362000ad55762000ad462000a64565b5b600182019050919050565b600082825260208201905092915050565b7f4f776e61626c653a2063616c6c6572206973206e6f7420746865206f776e6572600082015250565b600062000b2960208362000ae0565b915062000b368262000af1565b602082019050919050565b6000602082019050818103600083015262000b5c8162000b1a565b9050919050565b6140308062000b736000396000f3fe6080604052600436106101355760003560e01c80636352211e116100ab578063a22cb4651161006f578063a22cb4651461043c578063b88d4fde14610465578063c87b56dd1461048e578063e985e9c5146104cb578063ef244d8314610508578063f2fde38b1461052657610135565b80636352211e1461035557806370a0823114610392578063715018a6146103cf5780638da5cb5b146103e657806395d89b411461041157610135565b806323b872dd116100fd57806323b872dd146102335780632f745c591461025c5780633ccfd60b1461029957806342842e0e146102c45780634626402b146102ed5780634f6ccce71461031857610135565b806301ffc9a71461013a57806306fdde0314610177578063081812fc146101a2578063095ea7b3146101df57806318160ddd14610208575b600080fd5b34801561014657600080fd5b50610161600480360381019061015c9190612b1c565b61054f565b60405161016e9190612b64565b60405180910390f35b34801561018357600080fd5b5061018c610561565b6040516101999190612c0f565b60405180910390f35b3480156101ae57600080fd5b506101c960048036038101906101c49190612c67565b6105f3565b6040516101d69190612cd5565b60405180910390f35b3480156101eb57600080fd5b5061020660048036038101906102019190612d1c565b610639565b005b34801561021457600080fd5b5061021d610750565b60405161022a9190612d6b565b60405180910390f35b34801561023f57600080fd5b5061025a60048036038101906102559190612d86565b61075d565b005b34801561026857600080fd5b50610283600480360381019061027e9190612d1c565b6107bd565b6040516102909190612d6b565b60405180910390f35b3480156102a557600080fd5b506102ae610862565b6040516102bb9190612d6b565b60405180910390f35b3480156102d057600080fd5b506102eb60048036038101906102e69190612d86565b610a57565b005b3480156102f957600080fd5b50610302610a77565b60405161030f9190612dfa565b60405180910390f35b34801561032457600080fd5b5061033f600480360381019061033a9190612c67565b610a9d565b60405161034c9190612d6b565b60405180910390f35b34801561036157600080fd5b5061037c60048036038101906103779190612c67565b610b0e565b6040516103899190612cd5565b60405180910390f35b34801561039e57600080fd5b506103b960048036038101906103b49190612e15565b610b94565b6040516103c69190612d6b565b60405180910390f35b3480156103db57600080fd5b506103e4610c4b565b005b3480156103f257600080fd5b506103fb610c5f565b6040516104089190612cd5565b60405180910390f35b34801561041d57600080fd5b50610426610c88565b6040516104339190612c0f565b60405180910390f35b34801561044857600080fd5b50610463600480360381019061045e9190612e6e565b610d1a565b005b34801561047157600080fd5b5061048c60048036038101906104879190612fe3565b610d30565b005b34801561049a57600080fd5b506104b560048036038101906104b09190612c67565b610d92565b6040516104c29190612c0f565b60405180910390f35b3480156104d757600080fd5b506104f260048036038101906104ed9190613066565b610da4565b6040516104ff9190612b64565b60405180910390f35b610510610e38565b60405161051d9190612d6b565b60405180910390f35b34801561053257600080fd5b5061054d60048036038101906105489190612e15565b6112e1565b005b600061055a82611364565b9050919050565b606060018054610570906130d5565b80601f016020809104026020016040519081016040528092919081815260200182805461059c906130d5565b80156105e95780601f106105be576101008083540402835291602001916105e9565b820191906000526020600020905b8154815290600101906020018083116105cc57829003601f168201915b5050505050905090565b60006105fe826113de565b6005600083815260200190815260200160002060009054906101000a900473ffffffffffffffffffffffffffffffffffffffff169050919050565b600061064482610b0e565b90508073ffffffffffffffffffffffffffffffffffffffff168373ffffffffffffffffffffffffffffffffffffffff16036106b4576040517f08c379a00000000000000000000000000000000000000000000000000000000081526004016106ab90613178565b60405180910390fd5b8073ffffffffffffffffffffffffffffffffffffffff166106d3611429565b73ffffffffffffffffffffffffffffffffffffffff1614806107025750610701816106fc611429565b610da4565b5b610741576040517f08c379a00000000000000000000000000000000000000000000000000000000081526004016107389061320a565b60405180910390fd5b61074b8383611431565b505050565b6000600980549050905090565b61076e610768611429565b826114ea565b6107ad576040517f08c379a00000000000000000000000000000000000000000000000000000000081526004016107a49061329c565b60405180910390fd5b6107b883838361157f565b505050565b60006107c883610b94565b8210610809576040517f08c379a00000000000000000000000000000000000000000000000000000000081526004016108009061332e565b60405180910390fd5b600760008473ffffffffffffffffffffffffffffffffffffffff1673ffffffffffffffffffffffffffffffffffffffff168152602001908152602001600020600083815260200190815260200160002054905092915050565b600061086c611878565b6000600c60009054906101000a900473ffffffffffffffffffffffffffffffffffffffff1673ffffffffffffffffffffffffffffffffffffffff166370a08231306040518263ffffffff1660e01b81526004016108c99190612cd5565b602060405180830381865afa1580156108e6573d6000803e3d6000fd5b505050506040513d601f19601f8201168201806040525081019061090a9190613363565b9050600c60009054906101000a900473ffffffffffffffffffffffffffffffffffffffff1673ffffffffffffffffffffffffffffffffffffffff1663095ea7b330836040518363ffffffff1660e01b8152600401610969929190613390565b6020604051808303816000875af1158015610988573d6000803e3d6000fd5b505050506040513d601f19601f820116820180604052508101906109ac91906133ce565b50600c60009054906101000a900473ffffffffffffffffffffffffffffffffffffffff1673ffffffffffffffffffffffffffffffffffffffff166323b872dd3033846040518463ffffffff1660e01b8152600401610a0c939291906133fb565b6020604051808303816000875af1158015610a2b573d6000803e3d6000fd5b505050506040513d601f19601f82011682018060405250810190610a4f91906133ce565b508091505090565b610a7283838360405180602001604052806000815250610d30565b505050565b600e60009054906101000a900473ffffffffffffffffffffffffffffffffffffffff1681565b6000610aa7610750565b8210610ae8576040517f08c379a0000000000000000000000000000000000000000000000000000000008152600401610adf906134a4565b60405180910390fd5b60098281548110610afc57610afb6134c4565b5b90600052602060002001549050919050565b600080610b1a836118f6565b9050600073ffffffffffffffffffffffffffffffffffffffff168173ffffffffffffffffffffffffffffffffffffffff1603610b8b576040517f08c379a0000000000000000000000000000000000000000000000000000000008152600401610b829061353f565b60405180910390fd5b80915050919050565b60008073ffffffffffffffffffffffffffffffffffffffff168273ffffffffffffffffffffffffffffffffffffffff1603610c04576040517f08c379a0000000000000000000000000000000000000000000000000000000008152600401610bfb906135d1565b60405180910390fd5b600460008373ffffffffffffffffffffffffffffffffffffffff1673ffffffffffffffffffffffffffffffffffffffff168152602001908152602001600020549050919050565b610c53611878565b610c5d6000611933565b565b60008060009054906101000a900473ffffffffffffffffffffffffffffffffffffffff16905090565b606060028054610c97906130d5565b80601f0160208091040260200160405190810160405280929190818152602001828054610cc3906130d5565b8015610d105780601f10610ce557610100808354040283529160200191610d10565b820191906000526020600020905b815481529060010190602001808311610cf357829003601f168201915b5050505050905090565b610d2c610d25611429565b83836119f7565b5050565b610d41610d3b611429565b836114ea565b610d80576040517f08c379a0000000000000000000000000000000000000000000000000000000008152600401610d779061329c565b60405180910390fd5b610d8c84848484611b63565b50505050565b6060610d9d82611bbf565b9050919050565b6000600660008473ffffffffffffffffffffffffffffffffffffffff1673ffffffffffffffffffffffffffffffffffffffff16815260200190815260200160002060008373ffffffffffffffffffffffffffffffffffffffff1673ffffffffffffffffffffffffffffffffffffffff16815260200190815260200160002060009054906101000a900460ff16905092915050565b6000600f54600c60009054906101000a900473ffffffffffffffffffffffffffffffffffffffff1673ffffffffffffffffffffffffffffffffffffffff166370a08231336040518263ffffffff1660e01b8152600401610e989190612cd5565b602060405180830381865afa158015610eb5573d6000803e3d6000fd5b505050506040513d601f19601f82011682018060405250810190610ed99190613363565b1015610f1a576040517f08c379a0000000000000000000000000000000000000000000000000000000008152600401610f1190613663565b60405180910390fd5b610f22610750565b6012541015610f66576040517f08c379a0000000000000000000000000000000000000000000000000000000008152600401610f5d906136cf565b60405180910390fd5b610f6e611c27565b600060116001601180549050610f84919061371e565b81548110610f9557610f946134c4565b5b906000526020600020015490506011805480610fb457610fb3613752565b5b60019003818190600052602060002001600090559055610fd43382611d07565b611001601060009054906101000a900473ffffffffffffffffffffffffffffffffffffffff166001610d1a565b6000600c60009054906101000a900473ffffffffffffffffffffffffffffffffffffffff1673ffffffffffffffffffffffffffffffffffffffff1663d83a2bf33330600d54600f546110539190613781565b6040518463ffffffff1660e01b8152600401611071939291906133fb565b6020604051808303816000875af1158015611090573d6000803e3d6000fd5b505050506040513d601f19601f820116820180604052508101906110b491906133ce565b9050806110f6576040517f08c379a00000000000000000000000000000000000000000000000000000000081526004016110ed9061380f565b60405180910390fd5b600c60009054906101000a900473ffffffffffffffffffffffffffffffffffffffff1673ffffffffffffffffffffffffffffffffffffffff166323b872dd33600e60009054906101000a900473ffffffffffffffffffffffffffffffffffffffff16600d54600f546111689190613781565b6040518463ffffffff1660e01b81526004016111869392919061388e565b6020604051808303816000875af11580156111a5573d6000803e3d6000fd5b505050506040513d601f19601f820116820180604052508101906111c991906133ce565b50600c60009054906101000a900473ffffffffffffffffffffffffffffffffffffffff1673ffffffffffffffffffffffffffffffffffffffff16631d057bd9600e60009054906101000a900473ffffffffffffffffffffffffffffffffffffffff166002600d54600f5461123d9190613781565b61124791906138f4565b6040518363ffffffff1660e01b8152600401611264929190613925565b600060405180830381600087803b15801561127e57600080fd5b505af1158015611292573d6000803e3d6000fd5b505050507fe7cd4ce7f2a465edc730269a1305e8a48bad821e8fb7e152ec413829c01a53c433836112c285610d92565b6040516112d19392919061394e565b60405180910390a1819250505090565b6112e9611878565b600073ffffffffffffffffffffffffffffffffffffffff168173ffffffffffffffffffffffffffffffffffffffff1603611358576040517f08c379a000000000000000000000000000000000000000000000000000000000815260040161134f906139fe565b60405180910390fd5b61136181611933565b50565b60007f780e9d63000000000000000000000000000000000000000000000000000000007bffffffffffffffffffffffffffffffffffffffffffffffffffffffff1916827bffffffffffffffffffffffffffffffffffffffffffffffffffffffff191614806113d757506113d682611f24565b5b9050919050565b6113e781612006565b611426576040517f08c379a000000000000000000000000000000000000000000000000000000000815260040161141d9061353f565b60405180910390fd5b50565b600033905090565b816005600083815260200190815260200160002060006101000a81548173ffffffffffffffffffffffffffffffffffffffff021916908373ffffffffffffffffffffffffffffffffffffffff160217905550808273ffffffffffffffffffffffffffffffffffffffff166114a483610b0e565b73ffffffffffffffffffffffffffffffffffffffff167f8c5be1e5ebec7d5bd14f71427d1e84f3dd0314c0f7b2291e5b200ac8c7c3b92560405160405180910390a45050565b6000806114f683610b0e565b90508073ffffffffffffffffffffffffffffffffffffffff168473ffffffffffffffffffffffffffffffffffffffff16148061153857506115378185610da4565b5b8061157657508373ffffffffffffffffffffffffffffffffffffffff1661155e846105f3565b73ffffffffffffffffffffffffffffffffffffffff16145b91505092915050565b8273ffffffffffffffffffffffffffffffffffffffff1661159f82610b0e565b73ffffffffffffffffffffffffffffffffffffffff16146115f5576040517f08c379a00000000000000000000000000000000000000000000000000000000081526004016115ec90613a90565b60405180910390fd5b600073ffffffffffffffffffffffffffffffffffffffff168273ffffffffffffffffffffffffffffffffffffffff1603611664576040517f08c379a000000000000000000000000000000000000000000000000000000000815260040161165b90613b22565b60405180910390fd5b6116718383836001612047565b8273ffffffffffffffffffffffffffffffffffffffff1661169182610b0e565b73ffffffffffffffffffffffffffffffffffffffff16146116e7576040517f08c379a00000000000000000000000000000000000000000000000000000000081526004016116de90613a90565b60405180910390fd5b6005600082815260200190815260200160002060006101000a81549073ffffffffffffffffffffffffffffffffffffffff02191690556001600460008573ffffffffffffffffffffffffffffffffffffffff1673ffffffffffffffffffffffffffffffffffffffff168152602001908152602001600020600082825403925050819055506001600460008473ffffffffffffffffffffffffffffffffffffffff1673ffffffffffffffffffffffffffffffffffffffff16815260200190815260200160002060008282540192505081905550816003600083815260200190815260200160002060006101000a81548173ffffffffffffffffffffffffffffffffffffffff021916908373ffffffffffffffffffffffffffffffffffffffff160217905550808273ffffffffffffffffffffffffffffffffffffffff168473ffffffffffffffffffffffffffffffffffffffff167fddf252ad1be2c89b69c2b068fc378daa952ba7f163c4a11628f55a4df523b3ef60405160405180910390a46118738383836001612059565b505050565b611880611429565b73ffffffffffffffffffffffffffffffffffffffff1661189e610c5f565b73ffffffffffffffffffffffffffffffffffffffff16146118f4576040517f08c379a00000000000000000000000000000000000000000000000000000000081526004016118eb90613b8e565b60405180910390fd5b565b60006003600083815260200190815260200160002060009054906101000a900473ffffffffffffffffffffffffffffffffffffffff169050919050565b60008060009054906101000a900473ffffffffffffffffffffffffffffffffffffffff169050816000806101000a81548173ffffffffffffffffffffffffffffffffffffffff021916908373ffffffffffffffffffffffffffffffffffffffff1602179055508173ffffffffffffffffffffffffffffffffffffffff168173ffffffffffffffffffffffffffffffffffffffff167f8be0079c531659141344cd1fd0a4f28419497f9722a3daafe3b4186f6b6457e060405160405180910390a35050565b8173ffffffffffffffffffffffffffffffffffffffff168373ffffffffffffffffffffffffffffffffffffffff1603611a65576040517f08c379a0000000000000000000000000000000000000000000000000000000008152600401611a5c90613bfa565b60405180910390fd5b80600660008573ffffffffffffffffffffffffffffffffffffffff1673ffffffffffffffffffffffffffffffffffffffff16815260200190815260200160002060008473ffffffffffffffffffffffffffffffffffffffff1673ffffffffffffffffffffffffffffffffffffffff16815260200190815260200160002060006101000a81548160ff0219169083151502179055508173ffffffffffffffffffffffffffffffffffffffff168373ffffffffffffffffffffffffffffffffffffffff167f17307eab39ab6107e8899845ad3d59bd9653f200f220920489ca2b5937696c3183604051611b569190612b64565b60405180910390a3505050565b611b6e84848461157f565b611b7a8484848461205f565b611bb9576040517f08c379a0000000000000000000000000000000000000000000000000000000008152600401611bb090613c8c565b60405180910390fd5b50505050565b6060611bca826113de565b6000611bd46121e6565b90506000815111611bf45760405180602001604052806000815250611c1f565b80611bfe84612278565b604051602001611c0f929190613ce8565b6040516020818303038152906040525b915050919050565b60006001601180549050611c3b919061371e565b9050600060118054905042604051602001611c569190613d2d565b6040516020818303038152906040528051906020012060001c611c799190613d48565b9050600060118281548110611c9157611c906134c4565b5b9060005260206000200154905060118381548110611cb257611cb16134c4565b5b906000526020600020015460118381548110611cd157611cd06134c4565b5b90600052602060002001819055508060118481548110611cf457611cf36134c4565b5b9060005260206000200181905550505050565b600073ffffffffffffffffffffffffffffffffffffffff168273ffffffffffffffffffffffffffffffffffffffff1603611d76576040517f08c379a0000000000000000000000000000000000000000000000000000000008152600401611d6d90613dc5565b60405180910390fd5b611d7f81612006565b15611dbf576040517f08c379a0000000000000000000000000000000000000000000000000000000008152600401611db690613e31565b60405180910390fd5b611dcd600083836001612047565b611dd681612006565b15611e16576040517f08c379a0000000000000000000000000000000000000000000000000000000008152600401611e0d90613e31565b60405180910390fd5b6001600460008473ffffffffffffffffffffffffffffffffffffffff1673ffffffffffffffffffffffffffffffffffffffff16815260200190815260200160002060008282540192505081905550816003600083815260200190815260200160002060006101000a81548173ffffffffffffffffffffffffffffffffffffffff021916908373ffffffffffffffffffffffffffffffffffffffff160217905550808273ffffffffffffffffffffffffffffffffffffffff16600073ffffffffffffffffffffffffffffffffffffffff167fddf252ad1be2c89b69c2b068fc378daa952ba7f163c4a11628f55a4df523b3ef60405160405180910390a4611f20600083836001612059565b5050565b60007f80ac58cd000000000000000000000000000000000000000000000000000000007bffffffffffffffffffffffffffffffffffffffffffffffffffffffff1916827bffffffffffffffffffffffffffffffffffffffffffffffffffffffff19161480611fef57507f5b5e139f000000000000000000000000000000000000000000000000000000007bffffffffffffffffffffffffffffffffffffffffffffffffffffffff1916827bffffffffffffffffffffffffffffffffffffffffffffffffffffffff1916145b80611fff5750611ffe82612346565b5b9050919050565b60008073ffffffffffffffffffffffffffffffffffffffff16612028836118f6565b73ffffffffffffffffffffffffffffffffffffffff1614159050919050565b612053848484846123b0565b50505050565b50505050565b60006120808473ffffffffffffffffffffffffffffffffffffffff1661250e565b156121d9578373ffffffffffffffffffffffffffffffffffffffff1663150b7a026120a9611429565b8786866040518563ffffffff1660e01b81526004016120cb9493929190613ea6565b6020604051808303816000875af192505050801561210757506040513d601f19601f820116820180604052508101906121049190613f07565b60015b612189573d8060008114612137576040519150601f19603f3d011682016040523d82523d6000602084013e61213c565b606091505b506000815103612181576040517f08c379a000000000000000000000000000000000000000000000000000000000815260040161217890613c8c565b60405180910390fd5b805181602001fd5b63150b7a0260e01b7bffffffffffffffffffffffffffffffffffffffffffffffffffffffff1916817bffffffffffffffffffffffffffffffffffffffffffffffffffffffff1916149150506121de565b600190505b949350505050565b6060601380546121f5906130d5565b80601f0160208091040260200160405190810160405280929190818152602001828054612221906130d5565b801561226e5780601f106122435761010080835404028352916020019161226e565b820191906000526020600020905b81548152906001019060200180831161225157829003601f168201915b5050505050905090565b60606000600161228784612531565b01905060008167ffffffffffffffff8111156122a6576122a5612eb8565b5b6040519080825280601f01601f1916602001820160405280156122d85781602001600182028036833780820191505090505b509050600082602001820190505b60011561233b578080600190039150507f3031323334353637383961626364656600000000000000000000000000000000600a86061a8153600a858161232f5761232e6138c5565b5b049450600085036122e6575b819350505050919050565b60007f01ffc9a7000000000000000000000000000000000000000000000000000000007bffffffffffffffffffffffffffffffffffffffffffffffffffffffff1916827bffffffffffffffffffffffffffffffffffffffffffffffffffffffff1916149050919050565b6123bc84848484612684565b6001811115612400576040517f08c379a00000000000000000000000000000000000000000000000000000000081526004016123f790613fa6565b60405180910390fd5b6000829050600073ffffffffffffffffffffffffffffffffffffffff168573ffffffffffffffffffffffffffffffffffffffff160361244757612442816127aa565b612486565b8373ffffffffffffffffffffffffffffffffffffffff168573ffffffffffffffffffffffffffffffffffffffff16146124855761248485826127f3565b5b5b600073ffffffffffffffffffffffffffffffffffffffff168473ffffffffffffffffffffffffffffffffffffffff16036124c8576124c381612960565b612507565b8473ffffffffffffffffffffffffffffffffffffffff168473ffffffffffffffffffffffffffffffffffffffff1614612506576125058482612a31565b5b5b5050505050565b6000808273ffffffffffffffffffffffffffffffffffffffff163b119050919050565b600080600090507a184f03e93ff9f4daa797ed6e38ed64bf6a1f010000000000000000831061258f577a184f03e93ff9f4daa797ed6e38ed64bf6a1f0100000000000000008381612585576125846138c5565b5b0492506040810190505b6d04ee2d6d415b85acef810000000083106125cc576d04ee2d6d415b85acef810000000083816125c2576125c16138c5565b5b0492506020810190505b662386f26fc1000083106125fb57662386f26fc1000083816125f1576125f06138c5565b5b0492506010810190505b6305f5e1008310612624576305f5e100838161261a576126196138c5565b5b0492506008810190505b612710831061264957612710838161263f5761263e6138c5565b5b0492506004810190505b6064831061266c5760648381612662576126616138c5565b5b0492506002810190505b600a831061267b576001810190505b80915050919050565b60018111156127a457600073ffffffffffffffffffffffffffffffffffffffff168473ffffffffffffffffffffffffffffffffffffffff16146127185780600460008673ffffffffffffffffffffffffffffffffffffffff1673ffffffffffffffffffffffffffffffffffffffff1681526020019081526020016000206000828254612710919061371e565b925050819055505b600073ffffffffffffffffffffffffffffffffffffffff168373ffffffffffffffffffffffffffffffffffffffff16146127a35780600460008573ffffffffffffffffffffffffffffffffffffffff1673ffffffffffffffffffffffffffffffffffffffff168152602001908152602001600020600082825461279b9190613fc6565b925050819055505b5b50505050565b600980549050600a600083815260200190815260200160002081905550600981908060018154018082558091505060019003906000526020600020016000909190919091505550565b6000600161280084610b94565b61280a919061371e565b90506000600860008481526020019081526020016000205490508181146128ef576000600760008673ffffffffffffffffffffffffffffffffffffffff1673ffffffffffffffffffffffffffffffffffffffff168152602001908152602001600020600084815260200190815260200160002054905080600760008773ffffffffffffffffffffffffffffffffffffffff1673ffffffffffffffffffffffffffffffffffffffff168152602001908152602001600020600084815260200190815260200160002081905550816008600083815260200190815260200160002081905550505b6008600084815260200190815260200160002060009055600760008573ffffffffffffffffffffffffffffffffffffffff1673ffffffffffffffffffffffffffffffffffffffff16815260200190815260200160002060008381526020019081526020016000206000905550505050565b60006001600980549050612974919061371e565b90506000600a60008481526020019081526020016000205490506000600983815481106129a4576129a36134c4565b5b9060005260206000200154905080600983815481106129c6576129c56134c4565b5b906000526020600020018190555081600a600083815260200190815260200160002081905550600a6000858152602001908152602001600020600090556009805480612a1557612a14613752565b5b6001900381819060005260206000200160009055905550505050565b6000612a3c83610b94565b905081600760008573ffffffffffffffffffffffffffffffffffffffff1673ffffffffffffffffffffffffffffffffffffffff168152602001908152602001600020600083815260200190815260200160002081905550806008600084815260200190815260200160002081905550505050565b6000604051905090565b600080fd5b600080fd5b60007fffffffff0000000000000000000000000000000000000000000000000000000082169050919050565b612af981612ac4565b8114612b0457600080fd5b50565b600081359050612b1681612af0565b92915050565b600060208284031215612b3257612b31612aba565b5b6000612b4084828501612b07565b91505092915050565b60008115159050919050565b612b5e81612b49565b82525050565b6000602082019050612b796000830184612b55565b92915050565b600081519050919050565b600082825260208201905092915050565b60005b83811015612bb9578082015181840152602081019050612b9e565b60008484015250505050565b6000601f19601f8301169050919050565b6000612be182612b7f565b612beb8185612b8a565b9350612bfb818560208601612b9b565b612c0481612bc5565b840191505092915050565b60006020820190508181036000830152612c298184612bd6565b905092915050565b6000819050919050565b612c4481612c31565b8114612c4f57600080fd5b50565b600081359050612c6181612c3b565b92915050565b600060208284031215612c7d57612c7c612aba565b5b6000612c8b84828501612c52565b91505092915050565b600073ffffffffffffffffffffffffffffffffffffffff82169050919050565b6000612cbf82612c94565b9050919050565b612ccf81612cb4565b82525050565b6000602082019050612cea6000830184612cc6565b92915050565b612cf981612cb4565b8114612d0457600080fd5b50565b600081359050612d1681612cf0565b92915050565b60008060408385031215612d3357612d32612aba565b5b6000612d4185828601612d07565b9250506020612d5285828601612c52565b9150509250929050565b612d6581612c31565b82525050565b6000602082019050612d806000830184612d5c565b92915050565b600080600060608486031215612d9f57612d9e612aba565b5b6000612dad86828701612d07565b9350506020612dbe86828701612d07565b9250506040612dcf86828701612c52565b9150509250925092565b6000612de482612c94565b9050919050565b612df481612dd9565b82525050565b6000602082019050612e0f6000830184612deb565b92915050565b600060208284031215612e2b57612e2a612aba565b5b6000612e3984828501612d07565b91505092915050565b612e4b81612b49565b8114612e5657600080fd5b50565b600081359050612e6881612e42565b92915050565b60008060408385031215612e8557612e84612aba565b5b6000612e9385828601612d07565b9250506020612ea485828601612e59565b9150509250929050565b600080fd5b600080fd5b7f4e487b7100000000000000000000000000000000000000000000000000000000600052604160045260246000fd5b612ef082612bc5565b810181811067ffffffffffffffff82111715612f0f57612f0e612eb8565b5b80604052505050565b6000612f22612ab0565b9050612f2e8282612ee7565b919050565b600067ffffffffffffffff821115612f4e57612f4d612eb8565b5b612f5782612bc5565b9050602081019050919050565b82818337600083830152505050565b6000612f86612f8184612f33565b612f18565b905082815260208101848484011115612fa257612fa1612eb3565b5b612fad848285612f64565b509392505050565b600082601f830112612fca57612fc9612eae565b5b8135612fda848260208601612f73565b91505092915050565b60008060008060808587031215612ffd57612ffc612aba565b5b600061300b87828801612d07565b945050602061301c87828801612d07565b935050604061302d87828801612c52565b925050606085013567ffffffffffffffff81111561304e5761304d612abf565b5b61305a87828801612fb5565b91505092959194509250565b6000806040838503121561307d5761307c612aba565b5b600061308b85828601612d07565b925050602061309c85828601612d07565b9150509250929050565b7f4e487b7100000000000000000000000000000000000000000000000000000000600052602260045260246000fd5b600060028204905060018216806130ed57607f821691505b602082108103613100576130ff6130a6565b5b50919050565b7f4552433732313a20617070726f76616c20746f2063757272656e74206f776e6560008201527f7200000000000000000000000000000000000000000000000000000000000000602082015250565b6000613162602183612b8a565b915061316d82613106565b604082019050919050565b6000602082019050818103600083015261319181613155565b9050919050565b7f4552433732313a20617070726f76652063616c6c6572206973206e6f7420746f60008201527f6b656e206f776e6572206f7220617070726f76656420666f7220616c6c000000602082015250565b60006131f4603d83612b8a565b91506131ff82613198565b604082019050919050565b60006020820190508181036000830152613223816131e7565b9050919050565b7f4552433732313a2063616c6c6572206973206e6f7420746f6b656e206f776e6560008201527f72206f7220617070726f76656400000000000000000000000000000000000000602082015250565b6000613286602d83612b8a565b91506132918261322a565b604082019050919050565b600060208201905081810360008301526132b581613279565b9050919050565b7f455243373231456e756d657261626c653a206f776e657220696e646578206f7560008201527f74206f6620626f756e6473000000000000000000000000000000000000000000602082015250565b6000613318602b83612b8a565b9150613323826132bc565b604082019050919050565b600060208201905081810360008301526133478161330b565b9050919050565b60008151905061335d81612c3b565b92915050565b60006020828403121561337957613378612aba565b5b60006133878482850161334e565b91505092915050565b60006040820190506133a56000830185612cc6565b6133b26020830184612d5c565b9392505050565b6000815190506133c881612e42565b92915050565b6000602082840312156133e4576133e3612aba565b5b60006133f2848285016133b9565b91505092915050565b60006060820190506134106000830186612cc6565b61341d6020830185612cc6565b61342a6040830184612d5c565b949350505050565b7f455243373231456e756d657261626c653a20676c6f62616c20696e646578206f60008201527f7574206f6620626f756e64730000000000000000000000000000000000000000602082015250565b600061348e602c83612b8a565b915061349982613432565b604082019050919050565b600060208201905081810360008301526134bd81613481565b9050919050565b7f4e487b7100000000000000000000000000000000000000000000000000000000600052603260045260246000fd5b7f4552433732313a20696e76616c696420746f6b656e2049440000000000000000600082015250565b6000613529601883612b8a565b9150613534826134f3565b602082019050919050565b600060208201905081810360008301526135588161351c565b9050919050565b7f4552433732313a2061646472657373207a65726f206973206e6f74206120766160008201527f6c6964206f776e65720000000000000000000000000000000000000000000000602082015250565b60006135bb602983612b8a565b91506135c68261355f565b604082019050919050565b600060208201905081810360008301526135ea816135ae565b9050919050565b7f4552433732313a20726563697069656e74206c61636b206f662065726332302060008201527f62616c616e636500000000000000000000000000000000000000000000000000602082015250565b600061364d602783612b8a565b9150613658826135f1565b604082019050919050565b6000602082019050818103600083015261367c81613640565b9050919050565b7f4552433732313a20616c6c206e66747320617265206d696e7465640000000000600082015250565b60006136b9601b83612b8a565b91506136c482613683565b602082019050919050565b600060208201905081810360008301526136e8816136ac565b9050919050565b7f4e487b7100000000000000000000000000000000000000000000000000000000600052601160045260246000fd5b600061372982612c31565b915061373483612c31565b925082820390508181111561374c5761374b6136ef565b5b92915050565b7f4e487b7100000000000000000000000000000000000000000000000000000000600052603160045260246000fd5b600061378c82612c31565b915061379783612c31565b92508282026137a581612c31565b915082820484148315176137bc576137bb6136ef565b5b5092915050565b7f496e637265617365436f6e7472616374204661696c0000000000000000000000600082015250565b60006137f9601583612b8a565b9150613804826137c3565b602082019050919050565b60006020820190508181036000830152613828816137ec565b9050919050565b6000819050919050565b600061385461384f61384a84612c94565b61382f565b612c94565b9050919050565b600061386682613839565b9050919050565b60006138788261385b565b9050919050565b6138888161386d565b82525050565b60006060820190506138a36000830186612cc6565b6138b0602083018561387f565b6138bd6040830184612d5c565b949350505050565b7f4e487b7100000000000000000000000000000000000000000000000000000000600052601260045260246000fd5b60006138ff82612c31565b915061390a83612c31565b92508261391a576139196138c5565b5b828204905092915050565b600060408201905061393a600083018561387f565b6139476020830184612d5c565b9392505050565b60006060820190506139636000830186612cc6565b6139706020830185612d5c565b81810360408301526139828184612bd6565b9050949350505050565b7f4f776e61626c653a206e6577206f776e657220697320746865207a65726f206160008201527f6464726573730000000000000000000000000000000000000000000000000000602082015250565b60006139e8602683612b8a565b91506139f38261398c565b604082019050919050565b60006020820190508181036000830152613a17816139db565b9050919050565b7f4552433732313a207472616e736665722066726f6d20696e636f72726563742060008201527f6f776e6572000000000000000000000000000000000000000000000000000000602082015250565b6000613a7a602583612b8a565b9150613a8582613a1e565b604082019050919050565b60006020820190508181036000830152613aa981613a6d565b9050919050565b7f4552433732313a207472616e7366657220746f20746865207a65726f2061646460008201527f7265737300000000000000000000000000000000000000000000000000000000602082015250565b6000613b0c602483612b8a565b9150613b1782613ab0565b604082019050919050565b60006020820190508181036000830152613b3b81613aff565b9050919050565b7f4f776e61626c653a2063616c6c6572206973206e6f7420746865206f776e6572600082015250565b6000613b78602083612b8a565b9150613b8382613b42565b602082019050919050565b60006020820190508181036000830152613ba781613b6b565b9050919050565b7f4552433732313a20617070726f766520746f2063616c6c657200000000000000600082015250565b6000613be4601983612b8a565b9150613bef82613bae565b602082019050919050565b60006020820190508181036000830152613c1381613bd7565b9050919050565b7f4552433732313a207472616e7366657220746f206e6f6e20455243373231526560008201527f63656976657220696d706c656d656e7465720000000000000000000000000000602082015250565b6000613c76603283612b8a565b9150613c8182613c1a565b604082019050919050565b60006020820190508181036000830152613ca581613c69565b9050919050565b600081905092915050565b6000613cc282612b7f565b613ccc8185613cac565b9350613cdc818560208601612b9b565b80840191505092915050565b6000613cf48285613cb7565b9150613d008284613cb7565b91508190509392505050565b6000819050919050565b613d27613d2282612c31565b613d0c565b82525050565b6000613d398284613d16565b60208201915081905092915050565b6000613d5382612c31565b9150613d5e83612c31565b925082613d6e57613d6d6138c5565b5b828206905092915050565b7f4552433732313a206d696e7420746f20746865207a65726f2061646472657373600082015250565b6000613daf602083612b8a565b9150613dba82613d79565b602082019050919050565b60006020820190508181036000830152613dde81613da2565b9050919050565b7f4552433732313a20746f6b656e20616c7265616479206d696e74656400000000600082015250565b6000613e1b601c83612b8a565b9150613e2682613de5565b602082019050919050565b60006020820190508181036000830152613e4a81613e0e565b9050919050565b600081519050919050565b600082825260208201905092915050565b6000613e7882613e51565b613e828185613e5c565b9350613e92818560208601612b9b565b613e9b81612bc5565b840191505092915050565b6000608082019050613ebb6000830187612cc6565b613ec86020830186612cc6565b613ed56040830185612d5c565b8181036060830152613ee78184613e6d565b905095945050505050565b600081519050613f0181612af0565b92915050565b600060208284031215613f1d57613f1c612aba565b5b6000613f2b84828501613ef2565b91505092915050565b7f455243373231456e756d657261626c653a20636f6e736563757469766520747260008201527f616e7366657273206e6f7420737570706f727465640000000000000000000000602082015250565b6000613f90603583612b8a565b9150613f9b82613f34565b604082019050919050565b60006020820190508181036000830152613fbf81613f83565b9050919050565b6000613fd182612c31565b9150613fdc83612c31565b9250828201905080821115613ff457613ff36136ef565b5b9291505056fea26469706673582212208c4807dc1267904c786e17c4bb4bd218484bb0c7f26393204acd8e070f14d4fd64736f6c63430008110033",
  "immutableReferences": {},
  "source": "// SPDX-License-Identifier: MIT\npragma solidity ^0.8.0;\nimport \"@openzeppelin/contracts/token/ERC721/ERC721.sol\";\nimport \"@openzeppelin/contracts/utils/Counters.sol\";\nimport \"@openzeppelin/contracts/access/Ownable.sol\";\nimport \"@openzeppelin/contracts/token/ERC721/extensions/ERC721Enumerable.sol\";\nimport \"./interface/ERC20Interface.sol\";\nimport \"./JetToken.sol\";\n\ncontract JetrisNFT is Ownable, ERC721Enumerable {\n    using Counters for Counters.Counter;\n    Counters.Counter private _tokenIds;\n\n    JetToken private token;\n    uint256 decimals = 10**18;\n    address payable public treasuryWallet; //  !\n    uint256 private mintPrice;\n    address private marketContractAddress;\n    uint256[] private waitForMint;\n    uint256 private maxTokenNum;\n    string private baseURIextended;\n    \n\n    event Minted(address addr, uint256 tokenId, string tokenURI);\n\n    constructor(\n        address _marketAddress,\n        address _tokenContractAddress, \n        string memory _JetrisBaseURI, \n        address payable _treasuryWallet)  ERC721(\"JetrisNFT\", \"NFT\") {\n\n        marketContractAddress = _marketAddress;\n        mintPrice = 1;\n        maxTokenNum = 20; // constructor   \n        _setToken(_tokenContractAddress);\n        _setBaseURI(_JetrisBaseURI);\n        _generateMintArray();\n        treasuryWallet = _treasuryWallet;\n    }\n\n    function _generateMintArray() private onlyOwner {\n        for (uint256 i = 0; i <= maxTokenNum; i++) {\n            waitForMint.push(i);\n        }\n    }\n    \n    //   \n    function mintJetrisNFT() public payable returns (uint256)  {\n        require(token.balanceOf(msg.sender) >= mintPrice, \"ERC721: recipient lack of erc20 balance\");\n        require(maxTokenNum >= totalSupply(), \"ERC721: all nfts are minted\");\n        // waitForMint 0~4999  tokenId  \n        _shuffleMintArray(); // waitForMint[-1] waitForMint[]  .\n        uint256 minted = waitForMint[waitForMint.length - 1];\n        waitForMint.pop();\n\n        _mint(msg.sender, minted);\n        setApprovalForAll(marketContractAddress, true); // grant transaction permission to market\n\n        //   \n        bool success = token.increaseContractAllowance(\n            msg.sender,\n            address(this),\n            mintPrice * decimals\n        );\n        require(success,\"IncreaseContract Fail\");\n        token.transferFrom(msg.sender, treasuryWallet, mintPrice * decimals); \n        token.marketBurn(treasuryWallet, (mintPrice * decimals)/2);\n\n        emit Minted(msg.sender, minted, tokenURI(minted));\n\n        return minted;\n    }\n\n    function _shuffleMintArray() private {\n        uint256 i = waitForMint.length - 1;\n        /*\n            IMPORTANT:   block.timestamp  chainlink     .\n         */\n        uint256 n = uint256(keccak256(abi.encodePacked(block.timestamp))) % (waitForMint.length);\n        uint256 temp = waitForMint[n];\n        waitForMint[n] = waitForMint[i];\n        waitForMint[i] = temp;\n    }\n\n    function _setBaseURI(string memory _JetrisBaseURI) private onlyOwner {\n        baseURIextended = _JetrisBaseURI;\n    }\n\n    function _baseURI() internal view virtual override returns (string memory) {\n        return baseURIextended;\n    }\n\n    function _beforeTokenTransfer(\n        address from,\n        address to,\n        uint256 tokenId,\n        uint256 batchSize\n    ) internal override {\n        super._beforeTokenTransfer(from, to, tokenId, batchSize);\n    }\n\n    function _burn(\n        uint256 _tokenId\n    ) internal override {\n        super._burn(_tokenId);\n    }\n\n    function supportsInterface(bytes4 interfaceId) public view override returns (bool) {\n        return super.supportsInterface(interfaceId);\n    }\n\n    function tokenURI(\n        uint256 _tokenId\n    ) public view override returns (string memory) {\n        return super.tokenURI(_tokenId);\n    }\n    // NFT mint -> JetToken .\n    function _setToken(address jtokenAddress) private onlyOwner returns (bool) {\n        require(jtokenAddress != address(0x0));\n        token = JetToken(jtokenAddress);\n        return true;\n    }\n\n    function withdraw() external onlyOwner returns (uint256) {\n        uint256 totalValue = token.balanceOf(address(this));\n        token.approve(address(this), totalValue);\n        token.transferFrom(address(this), msg.sender, totalValue);\n        return totalValue;\n    }\n}\n",
  "sourcePath": "C:\\Users\\user\\Desktop\\project3\\BEB-06-FINAL-06\\contract\\contracts\\JetrisNFT.sol",
  "compiler": {
    "name": "solc",
    "version": "0.8.17+commit.8df45f5f.Emscripten.clang"
  },
  "schemaVersion": "3.4.10",
  "updatedAt": "2022-11-29T14:59:18.641Z",
  "networkType": "ethereum",
  "devdoc": {
    "kind": "dev",
    "methods": {
      "approve(address,uint256)": {
        "details": "See {IERC721-approve}."
      },
      "balanceOf(address)": {
        "details": "See {IERC721-balanceOf}."
      },
      "getApproved(uint256)": {
        "details": "See {IERC721-getApproved}."
      },
      "isApprovedForAll(address,address)": {
        "details": "See {IERC721-isApprovedForAll}."
      },
      "name()": {
        "details": "See {IERC721Metadata-name}."
      },
      "owner()": {
        "details": "Returns the address of the current owner."
      },
      "ownerOf(uint256)": {
        "details": "See {IERC721-ownerOf}."
      },
      "renounceOwnership()": {
        "details": "Leaves the contract without owner. It will not be possible to call `onlyOwner` functions anymore. Can only be called by the current owner. NOTE: Renouncing ownership will leave the contract without an owner, thereby removing any functionality that is only available to the owner."
      },
      "safeTransferFrom(address,address,uint256)": {
        "details": "See {IERC721-safeTransferFrom}."
      },
      "safeTransferFrom(address,address,uint256,bytes)": {
        "details": "See {IERC721-safeTransferFrom}."
      },
      "setApprovalForAll(address,bool)": {
        "details": "See {IERC721-setApprovalForAll}."
      },
      "supportsInterface(bytes4)": {
        "details": "See {IERC165-supportsInterface}."
      },
      "symbol()": {
        "details": "See {IERC721Metadata-symbol}."
      },
      "tokenByIndex(uint256)": {
        "details": "See {IERC721Enumerable-tokenByIndex}."
      },
      "tokenOfOwnerByIndex(address,uint256)": {
        "details": "See {IERC721Enumerable-tokenOfOwnerByIndex}."
      },
      "totalSupply()": {
        "details": "See {IERC721Enumerable-totalSupply}."
      },
      "transferFrom(address,address,uint256)": {
        "details": "See {IERC721-transferFrom}."
      },
      "transferOwnership(address)": {
        "details": "Transfers ownership of the contract to a new account (`newOwner`). Can only be called by the current owner."
      }
    },
    "version": 1
  },
  "userdoc": {
    "kind": "user",
    "methods": {},
    "version": 1
  }
}