{
  "contractName": "JetrisItems",
  "abi": [
    {
      "inputs": [
        {
          "internalType": "address",
          "name": "_marketAddress",
          "type": "address"
        },
        {
          "internalType": "address",
          "name": "_tokenContractAddress",
          "type": "address"
        },
        {
          "internalType": "address payable",
          "name": "_treasuryWallet",
          "type": "address"
        }
      ],
      "stateMutability": "nonpayable",
      "type": "constructor"
    },
    {
      "anonymous": false,
      "inputs": [
        {
          "indexed": true,
          "internalType": "address",
          "name": "account",
          "type": "address"
        },
        {
          "indexed": true,
          "internalType": "address",
          "name": "operator",
          "type": "address"
        },
        {
          "indexed": false,
          "internalType": "bool",
          "name": "approved",
          "type": "bool"
        }
      ],
      "name": "ApprovalForAll",
      "type": "event"
    },
    {
      "anonymous": false,
      "inputs": [
        {
          "indexed": true,
          "internalType": "address",
          "name": "previousOwner",
          "type": "address"
        },
        {
          "indexed": true,
          "internalType": "address",
          "name": "newOwner",
          "type": "address"
        }
      ],
      "name": "OwnershipTransferred",
      "type": "event"
    },
    {
      "anonymous": false,
      "inputs": [
        {
          "indexed": true,
          "internalType": "address",
          "name": "operator",
          "type": "address"
        },
        {
          "indexed": true,
          "internalType": "address",
          "name": "from",
          "type": "address"
        },
        {
          "indexed": true,
          "internalType": "address",
          "name": "to",
          "type": "address"
        },
        {
          "indexed": false,
          "internalType": "uint256[]",
          "name": "ids",
          "type": "uint256[]"
        },
        {
          "indexed": false,
          "internalType": "uint256[]",
          "name": "values",
          "type": "uint256[]"
        }
      ],
      "name": "TransferBatch",
      "type": "event"
    },
    {
      "anonymous": false,
      "inputs": [
        {
          "indexed": true,
          "internalType": "address",
          "name": "operator",
          "type": "address"
        },
        {
          "indexed": true,
          "internalType": "address",
          "name": "from",
          "type": "address"
        },
        {
          "indexed": true,
          "internalType": "address",
          "name": "to",
          "type": "address"
        },
        {
          "indexed": false,
          "internalType": "uint256",
          "name": "id",
          "type": "uint256"
        },
        {
          "indexed": false,
          "internalType": "uint256",
          "name": "value",
          "type": "uint256"
        }
      ],
      "name": "TransferSingle",
      "type": "event"
    },
    {
      "anonymous": false,
      "inputs": [
        {
          "indexed": false,
          "internalType": "string",
          "name": "value",
          "type": "string"
        },
        {
          "indexed": true,
          "internalType": "uint256",
          "name": "id",
          "type": "uint256"
        }
      ],
      "name": "URI",
      "type": "event"
    },
    {
      "inputs": [],
      "name": "LEGEND0",
      "outputs": [
        {
          "internalType": "uint256",
          "name": "",
          "type": "uint256"
        }
      ],
      "stateMutability": "view",
      "type": "function"
    },
    {
      "inputs": [],
      "name": "LEGEND1",
      "outputs": [
        {
          "internalType": "uint256",
          "name": "",
          "type": "uint256"
        }
      ],
      "stateMutability": "view",
      "type": "function"
    },
    {
      "inputs": [],
      "name": "NOMAL0",
      "outputs": [
        {
          "internalType": "uint256",
          "name": "",
          "type": "uint256"
        }
      ],
      "stateMutability": "view",
      "type": "function"
    },
    {
      "inputs": [],
      "name": "NOMAL1",
      "outputs": [
        {
          "internalType": "uint256",
          "name": "",
          "type": "uint256"
        }
      ],
      "stateMutability": "view",
      "type": "function"
    },
    {
      "inputs": [],
      "name": "NOMAL10",
      "outputs": [
        {
          "internalType": "uint256",
          "name": "",
          "type": "uint256"
        }
      ],
      "stateMutability": "view",
      "type": "function"
    },
    {
      "inputs": [],
      "name": "NOMAL11",
      "outputs": [
        {
          "internalType": "uint256",
          "name": "",
          "type": "uint256"
        }
      ],
      "stateMutability": "view",
      "type": "function"
    },
    {
      "inputs": [],
      "name": "NOMAL12",
      "outputs": [
        {
          "internalType": "uint256",
          "name": "",
          "type": "uint256"
        }
      ],
      "stateMutability": "view",
      "type": "function"
    },
    {
      "inputs": [],
      "name": "NOMAL13",
      "outputs": [
        {
          "internalType": "uint256",
          "name": "",
          "type": "uint256"
        }
      ],
      "stateMutability": "view",
      "type": "function"
    },
    {
      "inputs": [],
      "name": "NOMAL14",
      "outputs": [
        {
          "internalType": "uint256",
          "name": "",
          "type": "uint256"
        }
      ],
      "stateMutability": "view",
      "type": "function"
    },
    {
      "inputs": [],
      "name": "NOMAL15",
      "outputs": [
        {
          "internalType": "uint256",
          "name": "",
          "type": "uint256"
        }
      ],
      "stateMutability": "view",
      "type": "function"
    },
    {
      "inputs": [],
      "name": "NOMAL16",
      "outputs": [
        {
          "internalType": "uint256",
          "name": "",
          "type": "uint256"
        }
      ],
      "stateMutability": "view",
      "type": "function"
    },
    {
      "inputs": [],
      "name": "NOMAL17",
      "outputs": [
        {
          "internalType": "uint256",
          "name": "",
          "type": "uint256"
        }
      ],
      "stateMutability": "view",
      "type": "function"
    },
    {
      "inputs": [],
      "name": "NOMAL18",
      "outputs": [
        {
          "internalType": "uint256",
          "name": "",
          "type": "uint256"
        }
      ],
      "stateMutability": "view",
      "type": "function"
    },
    {
      "inputs": [],
      "name": "NOMAL19",
      "outputs": [
        {
          "internalType": "uint256",
          "name": "",
          "type": "uint256"
        }
      ],
      "stateMutability": "view",
      "type": "function"
    },
    {
      "inputs": [],
      "name": "NOMAL2",
      "outputs": [
        {
          "internalType": "uint256",
          "name": "",
          "type": "uint256"
        }
      ],
      "stateMutability": "view",
      "type": "function"
    },
    {
      "inputs": [],
      "name": "NOMAL3",
      "outputs": [
        {
          "internalType": "uint256",
          "name": "",
          "type": "uint256"
        }
      ],
      "stateMutability": "view",
      "type": "function"
    },
    {
      "inputs": [],
      "name": "NOMAL4",
      "outputs": [
        {
          "internalType": "uint256",
          "name": "",
          "type": "uint256"
        }
      ],
      "stateMutability": "view",
      "type": "function"
    },
    {
      "inputs": [],
      "name": "NOMAL5",
      "outputs": [
        {
          "internalType": "uint256",
          "name": "",
          "type": "uint256"
        }
      ],
      "stateMutability": "view",
      "type": "function"
    },
    {
      "inputs": [],
      "name": "NOMAL6",
      "outputs": [
        {
          "internalType": "uint256",
          "name": "",
          "type": "uint256"
        }
      ],
      "stateMutability": "view",
      "type": "function"
    },
    {
      "inputs": [],
      "name": "NOMAL7",
      "outputs": [
        {
          "internalType": "uint256",
          "name": "",
          "type": "uint256"
        }
      ],
      "stateMutability": "view",
      "type": "function"
    },
    {
      "inputs": [],
      "name": "NOMAL8",
      "outputs": [
        {
          "internalType": "uint256",
          "name": "",
          "type": "uint256"
        }
      ],
      "stateMutability": "view",
      "type": "function"
    },
    {
      "inputs": [],
      "name": "NOMAL9",
      "outputs": [
        {
          "internalType": "uint256",
          "name": "",
          "type": "uint256"
        }
      ],
      "stateMutability": "view",
      "type": "function"
    },
    {
      "inputs": [],
      "name": "RARE0",
      "outputs": [
        {
          "internalType": "uint256",
          "name": "",
          "type": "uint256"
        }
      ],
      "stateMutability": "view",
      "type": "function"
    },
    {
      "inputs": [],
      "name": "RARE1",
      "outputs": [
        {
          "internalType": "uint256",
          "name": "",
          "type": "uint256"
        }
      ],
      "stateMutability": "view",
      "type": "function"
    },
    {
      "inputs": [],
      "name": "RARE10",
      "outputs": [
        {
          "internalType": "uint256",
          "name": "",
          "type": "uint256"
        }
      ],
      "stateMutability": "view",
      "type": "function"
    },
    {
      "inputs": [],
      "name": "RARE11",
      "outputs": [
        {
          "internalType": "uint256",
          "name": "",
          "type": "uint256"
        }
      ],
      "stateMutability": "view",
      "type": "function"
    },
    {
      "inputs": [],
      "name": "RARE2",
      "outputs": [
        {
          "internalType": "uint256",
          "name": "",
          "type": "uint256"
        }
      ],
      "stateMutability": "view",
      "type": "function"
    },
    {
      "inputs": [],
      "name": "RARE3",
      "outputs": [
        {
          "internalType": "uint256",
          "name": "",
          "type": "uint256"
        }
      ],
      "stateMutability": "view",
      "type": "function"
    },
    {
      "inputs": [],
      "name": "RARE4",
      "outputs": [
        {
          "internalType": "uint256",
          "name": "",
          "type": "uint256"
        }
      ],
      "stateMutability": "view",
      "type": "function"
    },
    {
      "inputs": [],
      "name": "RARE5",
      "outputs": [
        {
          "internalType": "uint256",
          "name": "",
          "type": "uint256"
        }
      ],
      "stateMutability": "view",
      "type": "function"
    },
    {
      "inputs": [],
      "name": "RARE6",
      "outputs": [
        {
          "internalType": "uint256",
          "name": "",
          "type": "uint256"
        }
      ],
      "stateMutability": "view",
      "type": "function"
    },
    {
      "inputs": [],
      "name": "RARE7",
      "outputs": [
        {
          "internalType": "uint256",
          "name": "",
          "type": "uint256"
        }
      ],
      "stateMutability": "view",
      "type": "function"
    },
    {
      "inputs": [],
      "name": "RARE8",
      "outputs": [
        {
          "internalType": "uint256",
          "name": "",
          "type": "uint256"
        }
      ],
      "stateMutability": "view",
      "type": "function"
    },
    {
      "inputs": [],
      "name": "RARE9",
      "outputs": [
        {
          "internalType": "uint256",
          "name": "",
          "type": "uint256"
        }
      ],
      "stateMutability": "view",
      "type": "function"
    },
    {
      "inputs": [],
      "name": "UNIQUE0",
      "outputs": [
        {
          "internalType": "uint256",
          "name": "",
          "type": "uint256"
        }
      ],
      "stateMutability": "view",
      "type": "function"
    },
    {
      "inputs": [],
      "name": "UNIQUE1",
      "outputs": [
        {
          "internalType": "uint256",
          "name": "",
          "type": "uint256"
        }
      ],
      "stateMutability": "view",
      "type": "function"
    },
    {
      "inputs": [],
      "name": "UNIQUE2",
      "outputs": [
        {
          "internalType": "uint256",
          "name": "",
          "type": "uint256"
        }
      ],
      "stateMutability": "view",
      "type": "function"
    },
    {
      "inputs": [],
      "name": "UNIQUE3",
      "outputs": [
        {
          "internalType": "uint256",
          "name": "",
          "type": "uint256"
        }
      ],
      "stateMutability": "view",
      "type": "function"
    },
    {
      "inputs": [],
      "name": "UNIQUE4",
      "outputs": [
        {
          "internalType": "uint256",
          "name": "",
          "type": "uint256"
        }
      ],
      "stateMutability": "view",
      "type": "function"
    },
    {
      "inputs": [],
      "name": "UNIQUE5",
      "outputs": [
        {
          "internalType": "uint256",
          "name": "",
          "type": "uint256"
        }
      ],
      "stateMutability": "view",
      "type": "function"
    },
    {
      "inputs": [
        {
          "internalType": "address",
          "name": "account",
          "type": "address"
        },
        {
          "internalType": "uint256",
          "name": "id",
          "type": "uint256"
        }
      ],
      "name": "balanceOf",
      "outputs": [
        {
          "internalType": "uint256",
          "name": "",
          "type": "uint256"
        }
      ],
      "stateMutability": "view",
      "type": "function"
    },
    {
      "inputs": [
        {
          "internalType": "address[]",
          "name": "accounts",
          "type": "address[]"
        },
        {
          "internalType": "uint256[]",
          "name": "ids",
          "type": "uint256[]"
        }
      ],
      "name": "balanceOfBatch",
      "outputs": [
        {
          "internalType": "uint256[]",
          "name": "",
          "type": "uint256[]"
        }
      ],
      "stateMutability": "view",
      "type": "function"
    },
    {
      "inputs": [
        {
          "internalType": "address",
          "name": "account",
          "type": "address"
        },
        {
          "internalType": "uint256",
          "name": "id",
          "type": "uint256"
        },
        {
          "internalType": "uint256",
          "name": "value",
          "type": "uint256"
        }
      ],
      "name": "burn",
      "outputs": [],
      "stateMutability": "nonpayable",
      "type": "function"
    },
    {
      "inputs": [
        {
          "internalType": "address",
          "name": "account",
          "type": "address"
        },
        {
          "internalType": "uint256[]",
          "name": "ids",
          "type": "uint256[]"
        },
        {
          "internalType": "uint256[]",
          "name": "values",
          "type": "uint256[]"
        }
      ],
      "name": "burnBatch",
      "outputs": [],
      "stateMutability": "nonpayable",
      "type": "function"
    },
    {
      "inputs": [
        {
          "internalType": "uint256",
          "name": "id",
          "type": "uint256"
        }
      ],
      "name": "exists",
      "outputs": [
        {
          "internalType": "bool",
          "name": "",
          "type": "bool"
        }
      ],
      "stateMutability": "view",
      "type": "function"
    },
    {
      "inputs": [
        {
          "internalType": "address",
          "name": "account",
          "type": "address"
        },
        {
          "internalType": "address",
          "name": "operator",
          "type": "address"
        }
      ],
      "name": "isApprovedForAll",
      "outputs": [
        {
          "internalType": "bool",
          "name": "",
          "type": "bool"
        }
      ],
      "stateMutability": "view",
      "type": "function"
    },
    {
      "inputs": [],
      "name": "owner",
      "outputs": [
        {
          "internalType": "address",
          "name": "",
          "type": "address"
        }
      ],
      "stateMutability": "view",
      "type": "function"
    },
    {
      "inputs": [],
      "name": "renounceOwnership",
      "outputs": [],
      "stateMutability": "nonpayable",
      "type": "function"
    },
    {
      "inputs": [
        {
          "internalType": "address",
          "name": "from",
          "type": "address"
        },
        {
          "internalType": "address",
          "name": "to",
          "type": "address"
        },
        {
          "internalType": "uint256[]",
          "name": "ids",
          "type": "uint256[]"
        },
        {
          "internalType": "uint256[]",
          "name": "amounts",
          "type": "uint256[]"
        },
        {
          "internalType": "bytes",
          "name": "data",
          "type": "bytes"
        }
      ],
      "name": "safeBatchTransferFrom",
      "outputs": [],
      "stateMutability": "nonpayable",
      "type": "function"
    },
    {
      "inputs": [
        {
          "internalType": "address",
          "name": "from",
          "type": "address"
        },
        {
          "internalType": "address",
          "name": "to",
          "type": "address"
        },
        {
          "internalType": "uint256",
          "name": "id",
          "type": "uint256"
        },
        {
          "internalType": "uint256",
          "name": "amount",
          "type": "uint256"
        },
        {
          "internalType": "bytes",
          "name": "data",
          "type": "bytes"
        }
      ],
      "name": "safeTransferFrom",
      "outputs": [],
      "stateMutability": "nonpayable",
      "type": "function"
    },
    {
      "inputs": [
        {
          "internalType": "address",
          "name": "operator",
          "type": "address"
        },
        {
          "internalType": "bool",
          "name": "approved",
          "type": "bool"
        }
      ],
      "name": "setApprovalForAll",
      "outputs": [],
      "stateMutability": "nonpayable",
      "type": "function"
    },
    {
      "inputs": [
        {
          "internalType": "bytes4",
          "name": "interfaceId",
          "type": "bytes4"
        }
      ],
      "name": "supportsInterface",
      "outputs": [
        {
          "internalType": "bool",
          "name": "",
          "type": "bool"
        }
      ],
      "stateMutability": "view",
      "type": "function"
    },
    {
      "inputs": [
        {
          "internalType": "uint256",
          "name": "id",
          "type": "uint256"
        }
      ],
      "name": "totalSupply",
      "outputs": [
        {
          "internalType": "uint256",
          "name": "",
          "type": "uint256"
        }
      ],
      "stateMutability": "view",
      "type": "function"
    },
    {
      "inputs": [
        {
          "internalType": "address",
          "name": "newOwner",
          "type": "address"
        }
      ],
      "name": "transferOwnership",
      "outputs": [],
      "stateMutability": "nonpayable",
      "type": "function"
    },
    {
      "inputs": [],
      "name": "treasuryWallet",
      "outputs": [
        {
          "internalType": "address payable",
          "name": "",
          "type": "address"
        }
      ],
      "stateMutability": "view",
      "type": "function"
    },
    {
      "inputs": [
        {
          "internalType": "uint256",
          "name": "_tokenid",
          "type": "uint256"
        }
      ],
      "name": "uri",
      "outputs": [
        {
          "internalType": "string",
          "name": "",
          "type": "string"
        }
      ],
      "stateMutability": "pure",
      "type": "function"
    },
    {
      "inputs": [
        {
          "internalType": "string",
          "name": "newuri",
          "type": "string"
        }
      ],
      "name": "setURI",
      "outputs": [],
      "stateMutability": "nonpayable",
      "type": "function"
    },
    {
      "inputs": [],
      "name": "generateJtemArray",
      "outputs": [],
      "stateMutability": "nonpayable",
      "type": "function"
    },
    {
      "inputs": [],
      "name": "generatefirstJtem",
      "outputs": [],
      "stateMutability": "nonpayable",
      "type": "function"
    },
    {
      "inputs": [],
      "name": "generateItemCheck",
      "outputs": [],
      "stateMutability": "nonpayable",
      "type": "function"
    },
    {
      "inputs": [],
      "name": "mintFirstJtem",
      "outputs": [],
      "stateMutability": "nonpayable",
      "type": "function"
    },
    {
      "inputs": [],
      "name": "mintRandomJtem",
      "outputs": [
        {
          "internalType": "uint256",
          "name": "",
          "type": "uint256"
        }
      ],
      "stateMutability": "nonpayable",
      "type": "function"
    },
    {
      "inputs": [
        {
          "internalType": "address",
          "name": "to",
          "type": "address"
        },
        {
          "internalType": "uint256[]",
          "name": "ids",
          "type": "uint256[]"
        },
        {
          "internalType": "uint256[]",
          "name": "amounts",
          "type": "uint256[]"
        },
        {
          "internalType": "bytes",
          "name": "data",
          "type": "bytes"
        }
      ],
      "name": "mintBatch",
      "outputs": [],
      "stateMutability": "nonpayable",
      "type": "function"
    },
    {
      "inputs": [
        {
          "internalType": "address",
          "name": "sender",
          "type": "address"
        }
      ],
      "name": "balanceCheck",
      "outputs": [
        {
          "internalType": "uint256[][]",
          "name": "",
          "type": "uint256[][]"
        }
      ],
      "stateMutability": "nonpayable",
      "type": "function"
    }
  ],
  "bytecode": "0x6080604052670de0b6b3a76400006006556000600a556046600b553480156200002757600080fd5b50604051620070fb380380620070fb83398181016040528101906200004d919062000429565b6040518060600160405280603a8152602001620070c1603a913962000078816200014660201b60201c565b50620000996200008d6200015b60201b60201c565b6200016360201b60201c565b6001600881905550600260098190555082600f60006101000a81548173ffffffffffffffffffffffffffffffffffffffff021916908373ffffffffffffffffffffffffffffffffffffffff160217905550620000fb826200022960201b60201c565b5080600760006101000a81548173ffffffffffffffffffffffffffffffffffffffff021916908373ffffffffffffffffffffffffffffffffffffffff16021790555050505062000869565b8060029081620001579190620006ff565b5050565b600033905090565b6000600360009054906101000a900473ffffffffffffffffffffffffffffffffffffffff16905081600360006101000a81548173ffffffffffffffffffffffffffffffffffffffff021916908373ffffffffffffffffffffffffffffffffffffffff1602179055508173ffffffffffffffffffffffffffffffffffffffff168173ffffffffffffffffffffffffffffffffffffffff167f8be0079c531659141344cd1fd0a4f28419497f9722a3daafe3b4186f6b6457e060405160405180910390a35050565b60006200023b620002bf60201b60201c565b600073ffffffffffffffffffffffffffffffffffffffff168273ffffffffffffffffffffffffffffffffffffffff16036200027557600080fd5b81600560006101000a81548173ffffffffffffffffffffffffffffffffffffffff021916908373ffffffffffffffffffffffffffffffffffffffff16021790555060019050919050565b620002cf6200015b60201b60201c565b73ffffffffffffffffffffffffffffffffffffffff16620002f56200035060201b60201c565b73ffffffffffffffffffffffffffffffffffffffff16146200034e576040517f08c379a0000000000000000000000000000000000000000000000000000000008152600401620003459062000847565b60405180910390fd5b565b6000600360009054906101000a900473ffffffffffffffffffffffffffffffffffffffff16905090565b600080fd5b600073ffffffffffffffffffffffffffffffffffffffff82169050919050565b6000620003ac826200037f565b9050919050565b620003be816200039f565b8114620003ca57600080fd5b50565b600081519050620003de81620003b3565b92915050565b6000620003f1826200037f565b9050919050565b6200040381620003e4565b81146200040f57600080fd5b50565b6000815190506200042381620003f8565b92915050565b6000806000606084860312156200044557620004446200037a565b5b60006200045586828701620003cd565b93505060206200046886828701620003cd565b92505060406200047b8682870162000412565b9150509250925092565b600081519050919050565b7f4e487b7100000000000000000000000000000000000000000000000000000000600052604160045260246000fd5b7f4e487b7100000000000000000000000000000000000000000000000000000000600052602260045260246000fd5b600060028204905060018216806200050757607f821691505b6020821081036200051d576200051c620004bf565b5b50919050565b60008190508160005260206000209050919050565b60006020601f8301049050919050565b600082821b905092915050565b600060088302620005877fffffffffffffffffffffffffffffffffffffffffffffffffffffffffffffffff8262000548565b62000593868362000548565b95508019841693508086168417925050509392505050565b6000819050919050565b6000819050919050565b6000620005e0620005da620005d484620005ab565b620005b5565b620005ab565b9050919050565b6000819050919050565b620005fc83620005bf565b620006146200060b82620005e7565b84845462000555565b825550505050565b600090565b6200062b6200061c565b62000638818484620005f1565b505050565b5b8181101562000660576200065460008262000621565b6001810190506200063e565b5050565b601f821115620006af57620006798162000523565b620006848462000538565b8101602085101562000694578190505b620006ac620006a38562000538565b8301826200063d565b50505b505050565b600082821c905092915050565b6000620006d460001984600802620006b4565b1980831691505092915050565b6000620006ef8383620006c1565b9150826002028217905092915050565b6200070a8262000485565b67ffffffffffffffff81111562000726576200072562000490565b5b620007328254620004ee565b6200073f82828562000664565b600060209050601f83116001811462000777576000841562000762578287015190505b6200076e8582620006e1565b865550620007de565b601f198416620007878662000523565b60005b82811015620007b1578489015182556001820191506020850194506020810190506200078a565b86831015620007d15784890151620007cd601f891682620006c1565b8355505b6001600288020188555050505b505050505050565b600082825260208201905092915050565b7f4f776e61626c653a2063616c6c6572206973206e6f7420746865206f776e6572600082015250565b60006200082f602083620007e6565b91506200083c82620007f7565b602082019050919050565b60006020820190508181036000830152620008628162000820565b9050919050565b61684880620008796000396000f3fe608060405234801561001057600080fd5b50600436106103cf5760003560e01c80637684e14e116101ff578063bd85b0391161011a578063d7970abb116100ad578063f3e383371161007c578063f3e3833714610afa578063f5298aca14610b18578063f6fc73f114610b34578063fbe6d67b14610b52576103cf565b8063d7970abb14610a74578063e985e9c514610a92578063f242432a14610ac2578063f2fde38b14610ade576103cf565b8063c24c2da0116100e9578063c24c2da0146109fc578063c842bdc414610a1a578063cbe1e4ca14610a38578063d577772014610a56576103cf565b8063bd85b03914610986578063c05af8e9146109b6578063c066f832146109d4578063c1640d94146109f2576103cf565b8063ac81b40411610192578063b6a8234c11610161578063b6a8234c14610922578063b88341d814610940578063bcd90b781461095e578063bcf9873014610968576103cf565b8063ac81b40414610898578063afc6c649146108b6578063b1c2e58f146108e6578063b5ed161814610904576103cf565b80639e97d13e116101ce5780639e97d13e14610822578063a22cb46514610840578063a826430f1461085c578063ac309ce81461087a576103cf565b80637684e14e146107aa578063839fed78146107c85780638da5cb5b146107e65780639d75bf8b14610804576103cf565b80633d1ff670116102ef5780635194dc19116102825780636b20c454116102515780636b20c454146107485780636e15dd2214610764578063715018a614610782578063734d7eb21461078c576103cf565b80635194dc19146106d057806356f0f678146106ee578063583654af1461070c5780635e78d8f61461072a576103cf565b806348faeb4a116102be57806348faeb4a146106485780634cafce97146106665780634e1273f4146106705780634f558e79146106a0576103cf565b80633d1ff670146105d057806342fd83bc146105ee578063460d1b6c1461060c5780634626402b1461062a576103cf565b8063176009c6116103675780632cfa9ffb116103365780632cfa9ffb1461056e5780632eb2c2d61461058c5780633a074301146105a85780633c408fe4146105c6576103cf565b8063176009c6146104f85780631f7fdffa14610516578063243e61171461053257806325be346414610550576103cf565b8063047f7b03116103a3578063047f7b031461046e5780630e89341c1461048c57806312016f76146104bc57806312220b6d146104da576103cf565b8062fdd58e146103d457806301ffc9a71461040457806302e8e8a61461043457806302fe530514610452575b600080fd5b6103ee60048036038101906103e991906148b2565b610b70565b6040516103fb9190614901565b60405180910390f35b61041e60048036038101906104199190614974565b610c38565b60405161042b91906149bc565b60405180910390f35b61043c610d1a565b6040516104499190614901565b60405180910390f35b61046c60048036038101906104679190614b1d565b610d1f565b005b610476610d33565b6040516104839190614901565b60405180910390f35b6104a660048036038101906104a19190614b66565b610d39565b6040516104b39190614c12565b60405180910390f35b6104c4610d6a565b6040516104d19190614901565b60405180910390f35b6104e2610d6f565b6040516104ef9190614901565b60405180910390f35b610500610d74565b60405161050d9190614901565b60405180910390f35b610530600480360381019061052b9190614d9d565b610d79565b005b61053a610d93565b6040516105479190614901565b60405180910390f35b610558610d98565b6040516105659190614901565b60405180910390f35b610576610d9d565b6040516105839190614901565b60405180910390f35b6105a660048036038101906105a19190614e58565b610da2565b005b6105b0610e43565b6040516105bd9190614901565b60405180910390f35b6105ce610e48565b005b6105d86119e2565b6040516105e59190614901565b60405180910390f35b6105f66119e7565b6040516106039190614901565b60405180910390f35b6106146119ec565b6040516106219190614901565b60405180910390f35b6106326119f1565b60405161063f9190614f48565b60405180910390f35b610650611a17565b60405161065d9190614901565b60405180910390f35b61066e611a1c565b005b61068a60048036038101906106859190615026565b611b16565b604051610697919061515c565b60405180910390f35b6106ba60048036038101906106b59190614b66565b611c2f565b6040516106c791906149bc565b60405180910390f35b6106d8611c43565b6040516106e59190614901565b60405180910390f35b6106f6611c48565b6040516107039190614901565b60405180910390f35b610714611c4d565b6040516107219190614901565b60405180910390f35b610732611c52565b60405161073f9190614901565b60405180910390f35b610762600480360381019061075d919061517e565b611c57565b005b61076c611cf4565b6040516107799190614901565b60405180910390f35b61078a611cf9565b005b610794611d0d565b6040516107a19190614901565b60405180910390f35b6107b2611d12565b6040516107bf9190614901565b60405180910390f35b6107d0611d17565b6040516107dd9190614901565b60405180910390f35b6107ee611d1c565b6040516107fb9190615218565b60405180910390f35b61080c611d46565b6040516108199190614901565b60405180910390f35b61082a611d4b565b6040516108379190614901565b60405180910390f35b61085a6004803603810190610855919061525f565b611d50565b005b610864611d66565b6040516108719190614901565b60405180910390f35b610882611d6b565b60405161088f9190614901565b60405180910390f35b6108a0611d70565b6040516108ad9190614901565b60405180910390f35b6108d060048036038101906108cb919061529f565b611d75565b6040516108dd91906153fd565b60405180910390f35b6108ee6120f7565b6040516108fb9190614901565b60405180910390f35b61090c6120fc565b6040516109199190614901565b60405180910390f35b61092a612101565b6040516109379190614901565b60405180910390f35b610948612106565b6040516109559190614901565b60405180910390f35b61096661210b565b005b61097061213f565b60405161097d9190614901565b60405180910390f35b6109a0600480360381019061099b9190614b66565b612144565b6040516109ad9190614901565b60405180910390f35b6109be612161565b6040516109cb9190614901565b60405180910390f35b6109dc612166565b6040516109e99190614901565b60405180910390f35b6109fa61216c565b005b610a04612806565b604051610a119190614901565b60405180910390f35b610a2261280b565b604051610a2f9190614901565b60405180910390f35b610a40612b54565b604051610a4d9190614901565b60405180910390f35b610a5e612b59565b604051610a6b9190614901565b60405180910390f35b610a7c612b5e565b604051610a899190614901565b60405180910390f35b610aac6004803603810190610aa7919061541f565b612b63565b604051610ab991906149bc565b60405180910390f35b610adc6004803603810190610ad7919061545f565b612bf7565b005b610af86004803603810190610af3919061529f565b612c98565b005b610b02612d1b565b604051610b0f9190614901565b60405180910390f35b610b326004803603810190610b2d91906154f6565b612d20565b005b610b3c612dbd565b604051610b499190614901565b60405180910390f35b610b5a612dc2565b604051610b679190614901565b60405180910390f35b60008073ffffffffffffffffffffffffffffffffffffffff168373ffffffffffffffffffffffffffffffffffffffff1603610be0576040517f08c379a0000000000000000000000000000000000000000000000000000000008152600401610bd7906155bb565b60405180910390fd5b60008083815260200190815260200160002060008473ffffffffffffffffffffffffffffffffffffffff1673ffffffffffffffffffffffffffffffffffffffff16815260200190815260200160002054905092915050565b60007fd9b67a26000000000000000000000000000000000000000000000000000000007bffffffffffffffffffffffffffffffffffffffffffffffffffffffff1916827bffffffffffffffffffffffffffffffffffffffffffffffffffffffff19161480610d0357507f0e89341c000000000000000000000000000000000000000000000000000000007bffffffffffffffffffffffffffffffffffffffffffffffffffffffff1916827bffffffffffffffffffffffffffffffffffffffffffffffffffffffff1916145b80610d135750610d1282612dc7565b5b9050919050565b60cc81565b610d27612e31565b610d3081612eaf565b50565b61012c81565b6060610d4482612ec2565b604051602001610d5491906156af565b6040516020818303038152906040529050919050565b600981565b600b81565b600a81565b610d81612e31565b610d8d84848484612f90565b50505050565b600081565b600581565b600281565b610daa6131bc565b73ffffffffffffffffffffffffffffffffffffffff168573ffffffffffffffffffffffffffffffffffffffff161480610df05750610def85610dea6131bc565b612b63565b5b610e2f576040517f08c379a0000000000000000000000000000000000000000000000000000000008152600401610e2690615743565b60405180910390fd5b610e3c85858585856131c4565b5050505050565b606c81565b610e50612e31565b60005b6005811015610e9957600c600090806001815401808255809150506001900390600052602060002001600090919091909150558080610e9190615792565b915050610e53565b5060005b6009811015610ee357600c600190806001815401808255809150506001900390600052602060002001600090919091909150558080610edb90615792565b915050610e9d565b5060005b6008811015610f2d57600c600290806001815401808255809150506001900390600052602060002001600090919091909150558080610f2590615792565b915050610ee7565b5060005b6007811015610f7757600c600390806001815401808255809150506001900390600052602060002001600090919091909150558080610f6f90615792565b915050610f31565b5060005b6006811015610fc157600c600490806001815401808255809150506001900390600052602060002001600090919091909150558080610fb990615792565b915050610f7b565b5060005b600581101561100b57600c60059080600181540180825580915050600190039060005260206000200160009091909190915055808061100390615792565b915050610fc5565b5060005b600481101561105557600c60069080600181540180825580915050600190039060005260206000200160009091909190915055808061104d90615792565b91505061100f565b5060005b600381101561109f57600c60079080600181540180825580915050600190039060005260206000200160009091909190915055808061109790615792565b915050611059565b5060005b60028110156110e957600c6008908060018154018082558091505060019003906000526020600020016000909190919091505580806110e190615792565b9150506110a3565b5060005b600181101561113357600c60099080600181540180825580915050600190039060005260206000200160009091909190915055808061112b90615792565b9150506110ed565b5060005b600581101561117d57600c600a9080600181540180825580915050600190039060005260206000200160009091909190915055808061117590615792565b915050611137565b5060005b60098110156111c757600c600b908060018154018082558091505060019003906000526020600020016000909190919091505580806111bf90615792565b915050611181565b5060005b600881101561120f57600c8080600181540180825580915050600190039060005260206000200160009091909190915055808061120790615792565b9150506111cb565b5060005b600781101561125957600c600d9080600181540180825580915050600190039060005260206000200160009091909190915055808061125190615792565b915050611213565b5060005b60068110156112a357600c600e9080600181540180825580915050600190039060005260206000200160009091909190915055808061129b90615792565b91505061125d565b5060005b60058110156112ed57600c600f908060018154018082558091505060019003906000526020600020016000909190919091505580806112e590615792565b9150506112a7565b5060005b600481101561133757600c60109080600181540180825580915050600190039060005260206000200160009091909190915055808061132f90615792565b9150506112f1565b5060005b600381101561138157600c60119080600181540180825580915050600190039060005260206000200160009091909190915055808061137990615792565b91505061133b565b5060005b60028110156113cb57600c6012908060018154018082558091505060019003906000526020600020016000909190919091505580806113c390615792565b915050611385565b5060005b600181101561141557600c60139080600181540180825580915050600190039060005260206000200160009091909190915055808061140d90615792565b9150506113cf565b5060005b600581101561145f57600c60649080600181540180825580915050600190039060005260206000200160009091909190915055808061145790615792565b915050611419565b5060005b60098110156114a957600c6065908060018154018082558091505060019003906000526020600020016000909190919091505580806114a190615792565b915050611463565b5060005b60088110156114f357600c6066908060018154018082558091505060019003906000526020600020016000909190919091505580806114eb90615792565b9150506114ad565b5060005b600781101561153d57600c60679080600181540180825580915050600190039060005260206000200160009091909190915055808061153590615792565b9150506114f7565b5060005b600681101561158757600c60689080600181540180825580915050600190039060005260206000200160009091909190915055808061157f90615792565b915050611541565b5060005b60058110156115d157600c6069908060018154018082558091505060019003906000526020600020016000909190919091505580806115c990615792565b91505061158b565b5060005b600481101561161b57600c606a9080600181540180825580915050600190039060005260206000200160009091909190915055808061161390615792565b9150506115d5565b5060005b600381101561166557600c606b9080600181540180825580915050600190039060005260206000200160009091909190915055808061165d90615792565b91505061161f565b5060005b60028110156116af57600c606c908060018154018082558091505060019003906000526020600020016000909190919091505580806116a790615792565b915050611669565b5060005b60018110156116f957600c606d908060018154018082558091505060019003906000526020600020016000909190919091505580806116f190615792565b9150506116b3565b5060005b600581101561174357600c606e9080600181540180825580915050600190039060005260206000200160009091909190915055808061173b90615792565b9150506116fd565b5060005b600981101561178d57600c606f9080600181540180825580915050600190039060005260206000200160009091909190915055808061178590615792565b915050611747565b5060005b60088110156117d757600c60c8908060018154018082558091505060019003906000526020600020016000909190919091505580806117cf90615792565b915050611791565b5060005b600781101561182157600c60c99080600181540180825580915050600190039060005260206000200160009091909190915055808061181990615792565b9150506117db565b5060005b600681101561186b57600c60ca9080600181540180825580915050600190039060005260206000200160009091909190915055808061186390615792565b915050611825565b5060005b60058110156118b557600c60cb908060018154018082558091505060019003906000526020600020016000909190919091505580806118ad90615792565b91505061186f565b5060005b60048110156118ff57600c60cc908060018154018082558091505060019003906000526020600020016000909190919091505580806118f790615792565b9150506118b9565b5060005b600381101561194957600c60cd9080600181540180825580915050600190039060005260206000200160009091909190915055808061194190615792565b915050611903565b5060005b600281101561199457600c61012c9080600181540180825580915050600190039060005260206000200160009091909190915055808061198c90615792565b91505061194d565b5060005b60018110156119df57600c61012d908060018154018082558091505060019003906000526020600020016000909190919091505580806119d790615792565b915050611998565b50565b600681565b600d81565b600481565b600760009054906101000a900473ffffffffffffffffffffffffffffffffffffffff1681565b60c881565b6000611a2733611d75565b5114611a68576040517f08c379a0000000000000000000000000000000000000000000000000000000008152600401611a5f9061584c565b60405180910390fd5b6000600d8054905042604051602001611a81919061588d565b6040516020818303038152906040528051906020012060001c611aa491906158d7565b90506000600d8281548110611abc57611abb615908565b5b90600052602060002001549050611ae533826001604051806020016040528060008152506134e5565b611b12600f60009054906101000a900473ffffffffffffffffffffffffffffffffffffffff166001611d50565b5050565b60608151835114611b5c576040517f08c379a0000000000000000000000000000000000000000000000000000000008152600401611b53906159a9565b60405180910390fd5b6000835167ffffffffffffffff811115611b7957611b786149f2565b5b604051908082528060200260200182016040528015611ba75781602001602082028036833780820191505090505b50905060005b8451811015611c2457611bf4858281518110611bcc57611bcb615908565b5b6020026020010151858381518110611be757611be6615908565b5b6020026020010151610b70565b828281518110611c0757611c06615908565b5b60200260200101818152505080611c1d90615792565b9050611bad565b508091505092915050565b600080611c3b83612144565b119050919050565b606881565b606981565b600381565b601381565b611c5f6131bc565b73ffffffffffffffffffffffffffffffffffffffff168373ffffffffffffffffffffffffffffffffffffffff161480611ca55750611ca483611c9f6131bc565b612b63565b5b611ce4576040517f08c379a0000000000000000000000000000000000000000000000000000000008152600401611cdb90615743565b60405180910390fd5b611cef838383613695565b505050565b600781565b611d01612e31565b611d0b6000613963565b565b600881565b606b81565b601181565b6000600360009054906101000a900473ffffffffffffffffffffffffffffffffffffffff16905090565b606d81565b600c81565b611d62611d5b6131bc565b8383613a29565b5050565b606481565b606781565b60c981565b60606000600e8054905067ffffffffffffffff811115611d9857611d976149f2565b5b604051908082528060200260200182016040528015611dcb57816020015b6060815260200190600190039081611db65790505b5090506000805b600e80549050811015611f32576000611e0986600e8481548110611df957611df8615908565b5b9060005260206000200154610b70565b905060008114611f1e57600267ffffffffffffffff811115611e2e57611e2d6149f2565b5b604051908082528060200260200182016040528015611e5c5781602001602082028036833780820191505090505b50848481518110611e7057611e6f615908565b5b6020026020010181905250600e8281548110611e8f57611e8e615908565b5b9060005260206000200154848481518110611ead57611eac615908565b5b6020026020010151600081518110611ec857611ec7615908565b5b60200260200101818152505080848481518110611ee857611ee7615908565b5b6020026020010151600181518110611f0357611f02615908565b5b6020026020010181815250508280611f1a90615792565b9350505b508080611f2a90615792565b915050611dd2565b5060008167ffffffffffffffff811115611f4f57611f4e6149f2565b5b604051908082528060200260200182016040528015611f8257816020015b6060815260200190600190039081611f6d5790505b50905060005b828110156120eb57600267ffffffffffffffff811115611fab57611faa6149f2565b5b604051908082528060200260200182016040528015611fd95781602001602082028036833780820191505090505b50828281518110611fed57611fec615908565b5b602002602001018190525083818151811061200b5761200a615908565b5b602002602001015160008151811061202657612025615908565b5b602002602001015182828151811061204157612040615908565b5b602002602001015160008151811061205c5761205b615908565b5b60200260200101818152505083818151811061207b5761207a615908565b5b602002602001015160018151811061209657612095615908565b5b60200260200101518282815181106120b1576120b0615908565b5b60200260200101516001815181106120cc576120cb615908565b5b60200260200101818152505080806120e390615792565b915050611f88565b50809350505050919050565b606581565b600181565b601281565b606f81565b612113612e31565b600d60009080600181540180825580915050600190039060005260206000200160009091909190915055565b600f81565b600060046000838152602001908152602001600020549050919050565b601081565b61012d81565b612174612e31565b600e60009080600181540180825580915050600190039060005260206000200160009091909190915055600e60019080600181540180825580915050600190039060005260206000200160009091909190915055600e60029080600181540180825580915050600190039060005260206000200160009091909190915055600e60039080600181540180825580915050600190039060005260206000200160009091909190915055600e60049080600181540180825580915050600190039060005260206000200160009091909190915055600e60059080600181540180825580915050600190039060005260206000200160009091909190915055600e60069080600181540180825580915050600190039060005260206000200160009091909190915055600e60079080600181540180825580915050600190039060005260206000200160009091909190915055600e60089080600181540180825580915050600190039060005260206000200160009091909190915055600e60099080600181540180825580915050600190039060005260206000200160009091909190915055600e600a9080600181540180825580915050600190039060005260206000200160009091909190915055600e600b9080600181540180825580915050600190039060005260206000200160009091909190915055600e600c9080600181540180825580915050600190039060005260206000200160009091909190915055600e600d9080600181540180825580915050600190039060005260206000200160009091909190915055600e8080600181540180825580915050600190039060005260206000200160009091909190915055600e600f9080600181540180825580915050600190039060005260206000200160009091909190915055600e60109080600181540180825580915050600190039060005260206000200160009091909190915055600e60119080600181540180825580915050600190039060005260206000200160009091909190915055600e60129080600181540180825580915050600190039060005260206000200160009091909190915055600e60139080600181540180825580915050600190039060005260206000200160009091909190915055600e60649080600181540180825580915050600190039060005260206000200160009091909190915055600e60659080600181540180825580915050600190039060005260206000200160009091909190915055600e60669080600181540180825580915050600190039060005260206000200160009091909190915055600e60679080600181540180825580915050600190039060005260206000200160009091909190915055600e60689080600181540180825580915050600190039060005260206000200160009091909190915055600e60699080600181540180825580915050600190039060005260206000200160009091909190915055600e606a9080600181540180825580915050600190039060005260206000200160009091909190915055600e606b9080600181540180825580915050600190039060005260206000200160009091909190915055600e606c9080600181540180825580915050600190039060005260206000200160009091909190915055600e606d9080600181540180825580915050600190039060005260206000200160009091909190915055600e606e9080600181540180825580915050600190039060005260206000200160009091909190915055600e606f9080600181540180825580915050600190039060005260206000200160009091909190915055600e60c89080600181540180825580915050600190039060005260206000200160009091909190915055600e60c99080600181540180825580915050600190039060005260206000200160009091909190915055600e60ca9080600181540180825580915050600190039060005260206000200160009091909190915055600e60cb9080600181540180825580915050600190039060005260206000200160009091909190915055600e60cc9080600181540180825580915050600190039060005260206000200160009091909190915055600e60cd9080600181540180825580915050600190039060005260206000200160009091909190915055600e61012c9080600181540180825580915050600190039060005260206000200160009091909190915055600e61012d9080600181540180825580915050600190039060005260206000200160009091909190915055565b606a81565b600080600c8054905042604051602001612825919061588d565b6040516020818303038152906040528051906020012060001c61284891906158d7565b90506000600c82815481106128605761285f615908565b5b9060005260206000200154905061288933826001604051806020016040528060008152506134e5565b6128b6600f60009054906101000a900473ffffffffffffffffffffffffffffffffffffffff166001611d50565b6000600560009054906101000a900473ffffffffffffffffffffffffffffffffffffffff1673ffffffffffffffffffffffffffffffffffffffff1663d83a2bf3333060065460085461290891906159c9565b6040518463ffffffff1660e01b815260040161292693929190615a0b565b6020604051808303816000875af1158015612945573d6000803e3d6000fd5b505050506040513d601f19601f820116820180604052508101906129699190615a57565b9050806129ab576040517f08c379a00000000000000000000000000000000000000000000000000000000081526004016129a290615ad0565b60405180910390fd5b600560009054906101000a900473ffffffffffffffffffffffffffffffffffffffff1673ffffffffffffffffffffffffffffffffffffffff166323b872dd33600760009054906101000a900473ffffffffffffffffffffffffffffffffffffffff16600654600854612a1d91906159c9565b6040518463ffffffff1660e01b8152600401612a3b93929190615b4f565b6020604051808303816000875af1158015612a5a573d6000803e3d6000fd5b505050506040513d601f19601f82011682018060405250810190612a7e9190615a57565b50600560009054906101000a900473ffffffffffffffffffffffffffffffffffffffff1673ffffffffffffffffffffffffffffffffffffffff16631d057bd9600760009054906101000a900473ffffffffffffffffffffffffffffffffffffffff166002600654600854612af291906159c9565b612afc9190615b86565b6040518363ffffffff1660e01b8152600401612b19929190615bb7565b600060405180830381600087803b158015612b3357600080fd5b505af1158015612b47573d6000803e3d6000fd5b5050505081935050505090565b60ca81565b600e81565b606e81565b6000600160008473ffffffffffffffffffffffffffffffffffffffff1673ffffffffffffffffffffffffffffffffffffffff16815260200190815260200160002060008373ffffffffffffffffffffffffffffffffffffffff1673ffffffffffffffffffffffffffffffffffffffff16815260200190815260200160002060009054906101000a900460ff16905092915050565b612bff6131bc565b73ffffffffffffffffffffffffffffffffffffffff168573ffffffffffffffffffffffffffffffffffffffff161480612c455750612c4485612c3f6131bc565b612b63565b5b612c84576040517f08c379a0000000000000000000000000000000000000000000000000000000008152600401612c7b90615743565b60405180910390fd5b612c918585858585613b95565b5050505050565b612ca0612e31565b600073ffffffffffffffffffffffffffffffffffffffff168173ffffffffffffffffffffffffffffffffffffffff1603612d0f576040517f08c379a0000000000000000000000000000000000000000000000000000000008152600401612d0690615c52565b60405180910390fd5b612d1881613963565b50565b606681565b612d286131bc565b73ffffffffffffffffffffffffffffffffffffffff168373ffffffffffffffffffffffffffffffffffffffff161480612d6e5750612d6d83612d686131bc565b612b63565b5b612dad576040517f08c379a0000000000000000000000000000000000000000000000000000000008152600401612da490615743565b60405180910390fd5b612db8838383613e30565b505050565b60cd81565b60cb81565b60007f01ffc9a7000000000000000000000000000000000000000000000000000000007bffffffffffffffffffffffffffffffffffffffffffffffffffffffff1916827bffffffffffffffffffffffffffffffffffffffffffffffffffffffff1916149050919050565b612e396131bc565b73ffffffffffffffffffffffffffffffffffffffff16612e57611d1c565b73ffffffffffffffffffffffffffffffffffffffff1614612ead576040517f08c379a0000000000000000000000000000000000000000000000000000000008152600401612ea490615cbe565b60405180910390fd5b565b8060029081612ebe9190615ee0565b5050565b606060006001612ed184614076565b01905060008167ffffffffffffffff811115612ef057612eef6149f2565b5b6040519080825280601f01601f191660200182016040528015612f225781602001600182028036833780820191505090505b509050600082602001820190505b600115612f85578080600190039150507f3031323334353637383961626364656600000000000000000000000000000000600a86061a8153600a8581612f7957612f786158a8565b5b04945060008503612f30575b819350505050919050565b600073ffffffffffffffffffffffffffffffffffffffff168473ffffffffffffffffffffffffffffffffffffffff1603612fff576040517f08c379a0000000000000000000000000000000000000000000000000000000008152600401612ff690616024565b60405180910390fd5b8151835114613043576040517f08c379a000000000000000000000000000000000000000000000000000000000815260040161303a906160b6565b60405180910390fd5b600061304d6131bc565b905061305e816000878787876141c9565b60005b84518110156131175783818151811061307d5761307c615908565b5b602002602001015160008087848151811061309b5761309a615908565b5b6020026020010151815260200190815260200160002060008873ffffffffffffffffffffffffffffffffffffffff1673ffffffffffffffffffffffffffffffffffffffff16815260200190815260200160002060008282546130fd91906160d6565b92505081905550808061310f90615792565b915050613061565b508473ffffffffffffffffffffffffffffffffffffffff16600073ffffffffffffffffffffffffffffffffffffffff168273ffffffffffffffffffffffffffffffffffffffff167f4a39dc06d4c0dbc64b70af90fd698a233a518aa5d07e595d983b8c0526c8f7fb878760405161318f92919061610a565b60405180910390a46131a6816000878787876141df565b6131b5816000878787876141e7565b5050505050565b600033905090565b8151835114613208576040517f08c379a00000000000000000000000000000000000000000000000000000000081526004016131ff906160b6565b60405180910390fd5b600073ffffffffffffffffffffffffffffffffffffffff168473ffffffffffffffffffffffffffffffffffffffff1603613277576040517f08c379a000000000000000000000000000000000000000000000000000000000815260040161326e906161b3565b60405180910390fd5b60006132816131bc565b90506132918187878787876141c9565b60005b84518110156134425760008582815181106132b2576132b1615908565b5b6020026020010151905060008583815181106132d1576132d0615908565b5b60200260200101519050600080600084815260200190815260200160002060008b73ffffffffffffffffffffffffffffffffffffffff1673ffffffffffffffffffffffffffffffffffffffff16815260200190815260200160002054905081811015613372576040517f08c379a000000000000000000000000000000000000000000000000000000000815260040161336990616245565b60405180910390fd5b81810360008085815260200190815260200160002060008c73ffffffffffffffffffffffffffffffffffffffff1673ffffffffffffffffffffffffffffffffffffffff168152602001908152602001600020819055508160008085815260200190815260200160002060008b73ffffffffffffffffffffffffffffffffffffffff1673ffffffffffffffffffffffffffffffffffffffff168152602001908152602001600020600082825461342791906160d6565b925050819055505050508061343b90615792565b9050613294565b508473ffffffffffffffffffffffffffffffffffffffff168673ffffffffffffffffffffffffffffffffffffffff168273ffffffffffffffffffffffffffffffffffffffff167f4a39dc06d4c0dbc64b70af90fd698a233a518aa5d07e595d983b8c0526c8f7fb87876040516134b992919061610a565b60405180910390a46134cf8187878787876141df565b6134dd8187878787876141e7565b505050505050565b600073ffffffffffffffffffffffffffffffffffffffff168473ffffffffffffffffffffffffffffffffffffffff1603613554576040517f08c379a000000000000000000000000000000000000000000000000000000000815260040161354b90616024565b60405180910390fd5b600061355e6131bc565b9050600061356b856143be565b90506000613578856143be565b9050613589836000898585896141c9565b8460008088815260200190815260200160002060008973ffffffffffffffffffffffffffffffffffffffff1673ffffffffffffffffffffffffffffffffffffffff16815260200190815260200160002060008282546135e891906160d6565b925050819055508673ffffffffffffffffffffffffffffffffffffffff16600073ffffffffffffffffffffffffffffffffffffffff168473ffffffffffffffffffffffffffffffffffffffff167fc3d58168c5ae7397731d063d5bbf3d657854427343f4c083240f7aacaa2d0f628989604051613666929190616265565b60405180910390a461367d836000898585896141df565b61368c83600089898989614438565b50505050505050565b600073ffffffffffffffffffffffffffffffffffffffff168373ffffffffffffffffffffffffffffffffffffffff1603613704576040517f08c379a00000000000000000000000000000000000000000000000000000000081526004016136fb90616300565b60405180910390fd5b8051825114613748576040517f08c379a000000000000000000000000000000000000000000000000000000000815260040161373f906160b6565b60405180910390fd5b60006137526131bc565b9050613772818560008686604051806020016040528060008152506141c9565b60005b83518110156138bf57600084828151811061379357613792615908565b5b6020026020010151905060008483815181106137b2576137b1615908565b5b60200260200101519050600080600084815260200190815260200160002060008973ffffffffffffffffffffffffffffffffffffffff1673ffffffffffffffffffffffffffffffffffffffff16815260200190815260200160002054905081811015613853576040517f08c379a000000000000000000000000000000000000000000000000000000000815260040161384a90616392565b60405180910390fd5b81810360008085815260200190815260200160002060008a73ffffffffffffffffffffffffffffffffffffffff1673ffffffffffffffffffffffffffffffffffffffff1681526020019081526020016000208190555050505080806138b790615792565b915050613775565b50600073ffffffffffffffffffffffffffffffffffffffff168473ffffffffffffffffffffffffffffffffffffffff168273ffffffffffffffffffffffffffffffffffffffff167f4a39dc06d4c0dbc64b70af90fd698a233a518aa5d07e595d983b8c0526c8f7fb868660405161393792919061610a565b60405180910390a461395d818560008686604051806020016040528060008152506141df565b50505050565b6000600360009054906101000a900473ffffffffffffffffffffffffffffffffffffffff16905081600360006101000a81548173ffffffffffffffffffffffffffffffffffffffff021916908373ffffffffffffffffffffffffffffffffffffffff1602179055508173ffffffffffffffffffffffffffffffffffffffff168173ffffffffffffffffffffffffffffffffffffffff167f8be0079c531659141344cd1fd0a4f28419497f9722a3daafe3b4186f6b6457e060405160405180910390a35050565b8173ffffffffffffffffffffffffffffffffffffffff168373ffffffffffffffffffffffffffffffffffffffff1603613a97576040517f08c379a0000000000000000000000000000000000000000000000000000000008152600401613a8e90616424565b60405180910390fd5b80600160008573ffffffffffffffffffffffffffffffffffffffff1673ffffffffffffffffffffffffffffffffffffffff16815260200190815260200160002060008473ffffffffffffffffffffffffffffffffffffffff1673ffffffffffffffffffffffffffffffffffffffff16815260200190815260200160002060006101000a81548160ff0219169083151502179055508173ffffffffffffffffffffffffffffffffffffffff168373ffffffffffffffffffffffffffffffffffffffff167f17307eab39ab6107e8899845ad3d59bd9653f200f220920489ca2b5937696c3183604051613b8891906149bc565b60405180910390a3505050565b600073ffffffffffffffffffffffffffffffffffffffff168473ffffffffffffffffffffffffffffffffffffffff1603613c04576040517f08c379a0000000000000000000000000000000000000000000000000000000008152600401613bfb906161b3565b60405180910390fd5b6000613c0e6131bc565b90506000613c1b856143be565b90506000613c28856143be565b9050613c388389898585896141c9565b600080600088815260200190815260200160002060008a73ffffffffffffffffffffffffffffffffffffffff1673ffffffffffffffffffffffffffffffffffffffff16815260200190815260200160002054905085811015613ccf576040517f08c379a0000000000000000000000000000000000000000000000000000000008152600401613cc690616245565b60405180910390fd5b85810360008089815260200190815260200160002060008b73ffffffffffffffffffffffffffffffffffffffff1673ffffffffffffffffffffffffffffffffffffffff168152602001908152602001600020819055508560008089815260200190815260200160002060008a73ffffffffffffffffffffffffffffffffffffffff1673ffffffffffffffffffffffffffffffffffffffff1681526020019081526020016000206000828254613d8491906160d6565b925050819055508773ffffffffffffffffffffffffffffffffffffffff168973ffffffffffffffffffffffffffffffffffffffff168573ffffffffffffffffffffffffffffffffffffffff167fc3d58168c5ae7397731d063d5bbf3d657854427343f4c083240f7aacaa2d0f628a8a604051613e01929190616265565b60405180910390a4613e17848a8a86868a6141df565b613e25848a8a8a8a8a614438565b505050505050505050565b600073ffffffffffffffffffffffffffffffffffffffff168373ffffffffffffffffffffffffffffffffffffffff1603613e9f576040517f08c379a0000000000000000000000000000000000000000000000000000000008152600401613e9690616300565b60405180910390fd5b6000613ea96131bc565b90506000613eb6846143be565b90506000613ec3846143be565b9050613ee3838760008585604051806020016040528060008152506141c9565b600080600087815260200190815260200160002060008873ffffffffffffffffffffffffffffffffffffffff1673ffffffffffffffffffffffffffffffffffffffff16815260200190815260200160002054905084811015613f7a576040517f08c379a0000000000000000000000000000000000000000000000000000000008152600401613f7190616392565b60405180910390fd5b84810360008088815260200190815260200160002060008973ffffffffffffffffffffffffffffffffffffffff1673ffffffffffffffffffffffffffffffffffffffff16815260200190815260200160002081905550600073ffffffffffffffffffffffffffffffffffffffff168773ffffffffffffffffffffffffffffffffffffffff168573ffffffffffffffffffffffffffffffffffffffff167fc3d58168c5ae7397731d063d5bbf3d657854427343f4c083240f7aacaa2d0f628989604051614047929190616265565b60405180910390a461406d848860008686604051806020016040528060008152506141df565b50505050505050565b600080600090507a184f03e93ff9f4daa797ed6e38ed64bf6a1f01000000000000000083106140d4577a184f03e93ff9f4daa797ed6e38ed64bf6a1f01000000000000000083816140ca576140c96158a8565b5b0492506040810190505b6d04ee2d6d415b85acef81000000008310614111576d04ee2d6d415b85acef81000000008381614107576141066158a8565b5b0492506020810190505b662386f26fc10000831061414057662386f26fc100008381614136576141356158a8565b5b0492506010810190505b6305f5e1008310614169576305f5e100838161415f5761415e6158a8565b5b0492506008810190505b612710831061418e576127108381614184576141836158a8565b5b0492506004810190505b606483106141b157606483816141a7576141a66158a8565b5b0492506002810190505b600a83106141c0576001810190505b80915050919050565b6141d786868686868661460f565b505050505050565b505050505050565b6142068473ffffffffffffffffffffffffffffffffffffffff166147df565b156143b6578373ffffffffffffffffffffffffffffffffffffffff1663bc197c8187878686866040518663ffffffff1660e01b815260040161424c959493929190616499565b6020604051808303816000875af192505050801561428857506040513d601f19601f820116820180604052508101906142859190616516565b60015b61432d57614294616550565b806308c379a0036142f057506142a8616572565b806142b357506142f2565b806040517f08c379a00000000000000000000000000000000000000000000000000000000081526004016142e79190614c12565b60405180910390fd5b505b6040517f08c379a000000000000000000000000000000000000000000000000000000000815260040161432490616674565b60405180910390fd5b63bc197c8160e01b7bffffffffffffffffffffffffffffffffffffffffffffffffffffffff1916817bffffffffffffffffffffffffffffffffffffffffffffffffffffffff1916146143b4576040517f08c379a00000000000000000000000000000000000000000000000000000000081526004016143ab90616706565b60405180910390fd5b505b505050505050565b60606000600167ffffffffffffffff8111156143dd576143dc6149f2565b5b60405190808252806020026020018201604052801561440b5781602001602082028036833780820191505090505b509050828160008151811061442357614422615908565b5b60200260200101818152505080915050919050565b6144578473ffffffffffffffffffffffffffffffffffffffff166147df565b15614607578373ffffffffffffffffffffffffffffffffffffffff1663f23a6e6187878686866040518663ffffffff1660e01b815260040161449d959493929190616726565b6020604051808303816000875af19250505080156144d957506040513d601f19601f820116820180604052508101906144d69190616516565b60015b61457e576144e5616550565b806308c379a00361454157506144f9616572565b806145045750614543565b806040517f08c379a00000000000000000000000000000000000000000000000000000000081526004016145389190614c12565b60405180910390fd5b505b6040517f08c379a000000000000000000000000000000000000000000000000000000000815260040161457590616674565b60405180910390fd5b63f23a6e6160e01b7bffffffffffffffffffffffffffffffffffffffffffffffffffffffff1916817bffffffffffffffffffffffffffffffffffffffffffffffffffffffff191614614605576040517f08c379a00000000000000000000000000000000000000000000000000000000081526004016145fc90616706565b60405180910390fd5b505b505050505050565b61461d868686868686614802565b600073ffffffffffffffffffffffffffffffffffffffff168573ffffffffffffffffffffffffffffffffffffffff16036146ce5760005b83518110156146cc578281815181106146705761466f615908565b5b60200260200101516004600086848151811061468f5761468e615908565b5b6020026020010151815260200190815260200160002060008282546146b491906160d6565b92505081905550806146c590615792565b9050614654565b505b600073ffffffffffffffffffffffffffffffffffffffff168473ffffffffffffffffffffffffffffffffffffffff16036147d75760005b83518110156147d557600084828151811061472357614722615908565b5b60200260200101519050600084838151811061474257614741615908565b5b60200260200101519050600060046000848152602001908152602001600020549050818110156147a7576040517f08c379a000000000000000000000000000000000000000000000000000000000815260040161479e906167f2565b60405180910390fd5b8181036004600085815260200190815260200160002081905550505050806147ce90615792565b9050614705565b505b505050505050565b6000808273ffffffffffffffffffffffffffffffffffffffff163b119050919050565b505050505050565b6000604051905090565b600080fd5b600080fd5b600073ffffffffffffffffffffffffffffffffffffffff82169050919050565b60006148498261481e565b9050919050565b6148598161483e565b811461486457600080fd5b50565b60008135905061487681614850565b92915050565b6000819050919050565b61488f8161487c565b811461489a57600080fd5b50565b6000813590506148ac81614886565b92915050565b600080604083850312156148c9576148c8614814565b5b60006148d785828601614867565b92505060206148e88582860161489d565b9150509250929050565b6148fb8161487c565b82525050565b600060208201905061491660008301846148f2565b92915050565b60007fffffffff0000000000000000000000000000000000000000000000000000000082169050919050565b6149518161491c565b811461495c57600080fd5b50565b60008135905061496e81614948565b92915050565b60006020828403121561498a57614989614814565b5b60006149988482850161495f565b91505092915050565b60008115159050919050565b6149b6816149a1565b82525050565b60006020820190506149d160008301846149ad565b92915050565b600080fd5b600080fd5b6000601f19601f8301169050919050565b7f4e487b7100000000000000000000000000000000000000000000000000000000600052604160045260246000fd5b614a2a826149e1565b810181811067ffffffffffffffff82111715614a4957614a486149f2565b5b80604052505050565b6000614a5c61480a565b9050614a688282614a21565b919050565b600067ffffffffffffffff821115614a8857614a876149f2565b5b614a91826149e1565b9050602081019050919050565b82818337600083830152505050565b6000614ac0614abb84614a6d565b614a52565b905082815260208101848484011115614adc57614adb6149dc565b5b614ae7848285614a9e565b509392505050565b600082601f830112614b0457614b036149d7565b5b8135614b14848260208601614aad565b91505092915050565b600060208284031215614b3357614b32614814565b5b600082013567ffffffffffffffff811115614b5157614b50614819565b5b614b5d84828501614aef565b91505092915050565b600060208284031215614b7c57614b7b614814565b5b6000614b8a8482850161489d565b91505092915050565b600081519050919050565b600082825260208201905092915050565b60005b83811015614bcd578082015181840152602081019050614bb2565b60008484015250505050565b6000614be482614b93565b614bee8185614b9e565b9350614bfe818560208601614baf565b614c07816149e1565b840191505092915050565b60006020820190508181036000830152614c2c8184614bd9565b905092915050565b600067ffffffffffffffff821115614c4f57614c4e6149f2565b5b602082029050602081019050919050565b600080fd5b6000614c78614c7384614c34565b614a52565b90508083825260208201905060208402830185811115614c9b57614c9a614c60565b5b835b81811015614cc45780614cb0888261489d565b845260208401935050602081019050614c9d565b5050509392505050565b600082601f830112614ce357614ce26149d7565b5b8135614cf3848260208601614c65565b91505092915050565b600067ffffffffffffffff821115614d1757614d166149f2565b5b614d20826149e1565b9050602081019050919050565b6000614d40614d3b84614cfc565b614a52565b905082815260208101848484011115614d5c57614d5b6149dc565b5b614d67848285614a9e565b509392505050565b600082601f830112614d8457614d836149d7565b5b8135614d94848260208601614d2d565b91505092915050565b60008060008060808587031215614db757614db6614814565b5b6000614dc587828801614867565b945050602085013567ffffffffffffffff811115614de657614de5614819565b5b614df287828801614cce565b935050604085013567ffffffffffffffff811115614e1357614e12614819565b5b614e1f87828801614cce565b925050606085013567ffffffffffffffff811115614e4057614e3f614819565b5b614e4c87828801614d6f565b91505092959194509250565b600080600080600060a08688031215614e7457614e73614814565b5b6000614e8288828901614867565b9550506020614e9388828901614867565b945050604086013567ffffffffffffffff811115614eb457614eb3614819565b5b614ec088828901614cce565b935050606086013567ffffffffffffffff811115614ee157614ee0614819565b5b614eed88828901614cce565b925050608086013567ffffffffffffffff811115614f0e57614f0d614819565b5b614f1a88828901614d6f565b9150509295509295909350565b6000614f328261481e565b9050919050565b614f4281614f27565b82525050565b6000602082019050614f5d6000830184614f39565b92915050565b600067ffffffffffffffff821115614f7e57614f7d6149f2565b5b602082029050602081019050919050565b6000614fa2614f9d84614f63565b614a52565b90508083825260208201905060208402830185811115614fc557614fc4614c60565b5b835b81811015614fee5780614fda8882614867565b845260208401935050602081019050614fc7565b5050509392505050565b600082601f83011261500d5761500c6149d7565b5b813561501d848260208601614f8f565b91505092915050565b6000806040838503121561503d5761503c614814565b5b600083013567ffffffffffffffff81111561505b5761505a614819565b5b61506785828601614ff8565b925050602083013567ffffffffffffffff81111561508857615087614819565b5b61509485828601614cce565b9150509250929050565b600081519050919050565b600082825260208201905092915050565b6000819050602082019050919050565b6150d38161487c565b82525050565b60006150e583836150ca565b60208301905092915050565b6000602082019050919050565b60006151098261509e565b61511381856150a9565b935061511e836150ba565b8060005b8381101561514f57815161513688826150d9565b9750615141836150f1565b925050600181019050615122565b5085935050505092915050565b6000602082019050818103600083015261517681846150fe565b905092915050565b60008060006060848603121561519757615196614814565b5b60006151a586828701614867565b935050602084013567ffffffffffffffff8111156151c6576151c5614819565b5b6151d286828701614cce565b925050604084013567ffffffffffffffff8111156151f3576151f2614819565b5b6151ff86828701614cce565b9150509250925092565b6152128161483e565b82525050565b600060208201905061522d6000830184615209565b92915050565b61523c816149a1565b811461524757600080fd5b50565b60008135905061525981615233565b92915050565b6000806040838503121561527657615275614814565b5b600061528485828601614867565b92505060206152958582860161524a565b9150509250929050565b6000602082840312156152b5576152b4614814565b5b60006152c384828501614867565b91505092915050565b600081519050919050565b600082825260208201905092915050565b6000819050602082019050919050565b600082825260208201905092915050565b60006153148261509e565b61531e81856152f8565b9350615329836150ba565b8060005b8381101561535a57815161534188826150d9565b975061534c836150f1565b92505060018101905061532d565b5085935050505092915050565b60006153738383615309565b905092915050565b6000602082019050919050565b6000615393826152cc565b61539d81856152d7565b9350836020820285016153af856152e8565b8060005b858110156153eb57848403895281516153cc8582615367565b94506153d78361537b565b925060208a019950506001810190506153b3565b50829750879550505050505092915050565b600060208201905081810360008301526154178184615388565b905092915050565b6000806040838503121561543657615435614814565b5b600061544485828601614867565b925050602061545585828601614867565b9150509250929050565b600080600080600060a0868803121561547b5761547a614814565b5b600061548988828901614867565b955050602061549a88828901614867565b94505060406154ab8882890161489d565b93505060606154bc8882890161489d565b925050608086013567ffffffffffffffff8111156154dd576154dc614819565b5b6154e988828901614d6f565b9150509295509295909350565b60008060006060848603121561550f5761550e614814565b5b600061551d86828701614867565b935050602061552e8682870161489d565b925050604061553f8682870161489d565b9150509250925092565b7f455243313135353a2061646472657373207a65726f206973206e6f742061207660008201527f616c6964206f776e657200000000000000000000000000000000000000000000602082015250565b60006155a5602a83614b9e565b91506155b082615549565b604082019050919050565b600060208201905081810360008301526155d481615598565b9050919050565b600081905092915050565b7f68747470733a2f2f697066732e696f2f697066732f516d5a475270583254416860008201527f7353437642535a415446505669797a70584d646a4b57636a434b66346a34506660208201527f7377612f00000000000000000000000000000000000000000000000000000000604082015250565b60006156686044836155db565b9150615673826155e6565b604482019050919050565b600061568982614b93565b61569381856155db565b93506156a3818560208601614baf565b80840191505092915050565b60006156ba8261565b565b91506156c6828461567e565b915081905092915050565b7f455243313135353a2063616c6c6572206973206e6f7420746f6b656e206f776e60008201527f6572206f7220617070726f766564000000000000000000000000000000000000602082015250565b600061572d602e83614b9e565b9150615738826156d1565b604082019050919050565b6000602082019050818103600083015261575c81615720565b9050919050565b7f4e487b7100000000000000000000000000000000000000000000000000000000600052601160045260246000fd5b600061579d8261487c565b91507fffffffffffffffffffffffffffffffffffffffffffffffffffffffffffffffff82036157cf576157ce615763565b5b600182019050919050565b7f455243313135353a20796f7520616c726561647920686176652066697273742060008201527f456d626c656d0000000000000000000000000000000000000000000000000000602082015250565b6000615836602683614b9e565b9150615841826157da565b604082019050919050565b6000602082019050818103600083015261586581615829565b9050919050565b6000819050919050565b6158876158828261487c565b61586c565b82525050565b60006158998284615876565b60208201915081905092915050565b7f4e487b7100000000000000000000000000000000000000000000000000000000600052601260045260246000fd5b60006158e28261487c565b91506158ed8361487c565b9250826158fd576158fc6158a8565b5b828206905092915050565b7f4e487b7100000000000000000000000000000000000000000000000000000000600052603260045260246000fd5b7f455243313135353a206163636f756e747320616e6420696473206c656e67746860008201527f206d69736d617463680000000000000000000000000000000000000000000000602082015250565b6000615993602983614b9e565b915061599e82615937565b604082019050919050565b600060208201905081810360008301526159c281615986565b9050919050565b60006159d48261487c565b91506159df8361487c565b92508282026159ed8161487c565b91508282048414831517615a0457615a03615763565b5b5092915050565b6000606082019050615a206000830186615209565b615a2d6020830185615209565b615a3a60408301846148f2565b949350505050565b600081519050615a5181615233565b92915050565b600060208284031215615a6d57615a6c614814565b5b6000615a7b84828501615a42565b91505092915050565b7f496e637265617365436f6e7472616374204661696c0000000000000000000000600082015250565b6000615aba601583614b9e565b9150615ac582615a84565b602082019050919050565b60006020820190508181036000830152615ae981615aad565b9050919050565b6000819050919050565b6000615b15615b10615b0b8461481e565b615af0565b61481e565b9050919050565b6000615b2782615afa565b9050919050565b6000615b3982615b1c565b9050919050565b615b4981615b2e565b82525050565b6000606082019050615b646000830186615209565b615b716020830185615b40565b615b7e60408301846148f2565b949350505050565b6000615b918261487c565b9150615b9c8361487c565b925082615bac57615bab6158a8565b5b828204905092915050565b6000604082019050615bcc6000830185615b40565b615bd960208301846148f2565b9392505050565b7f4f776e61626c653a206e6577206f776e657220697320746865207a65726f206160008201527f6464726573730000000000000000000000000000000000000000000000000000602082015250565b6000615c3c602683614b9e565b9150615c4782615be0565b604082019050919050565b60006020820190508181036000830152615c6b81615c2f565b9050919050565b7f4f776e61626c653a2063616c6c6572206973206e6f7420746865206f776e6572600082015250565b6000615ca8602083614b9e565b9150615cb382615c72565b602082019050919050565b60006020820190508181036000830152615cd781615c9b565b9050919050565b7f4e487b7100000000000000000000000000000000000000000000000000000000600052602260045260246000fd5b60006002820490506001821680615d2557607f821691505b602082108103615d3857615d37615cde565b5b50919050565b60008190508160005260206000209050919050565b60006020601f8301049050919050565b600082821b905092915050565b600060088302615da07fffffffffffffffffffffffffffffffffffffffffffffffffffffffffffffffff82615d63565b615daa8683615d63565b95508019841693508086168417925050509392505050565b6000615ddd615dd8615dd38461487c565b615af0565b61487c565b9050919050565b6000819050919050565b615df783615dc2565b615e0b615e0382615de4565b848454615d70565b825550505050565b600090565b615e20615e13565b615e2b818484615dee565b505050565b5b81811015615e4f57615e44600082615e18565b600181019050615e31565b5050565b601f821115615e9457615e6581615d3e565b615e6e84615d53565b81016020851015615e7d578190505b615e91615e8985615d53565b830182615e30565b50505b505050565b600082821c905092915050565b6000615eb760001984600802615e99565b1980831691505092915050565b6000615ed08383615ea6565b9150826002028217905092915050565b615ee982614b93565b67ffffffffffffffff811115615f0257615f016149f2565b5b615f0c8254615d0d565b615f17828285615e53565b600060209050601f831160018114615f4a5760008415615f38578287015190505b615f428582615ec4565b865550615faa565b601f198416615f5886615d3e565b60005b82811015615f8057848901518255600182019150602085019450602081019050615f5b565b86831015615f9d5784890151615f99601f891682615ea6565b8355505b6001600288020188555050505b505050505050565b7f455243313135353a206d696e7420746f20746865207a65726f2061646472657360008201527f7300000000000000000000000000000000000000000000000000000000000000602082015250565b600061600e602183614b9e565b915061601982615fb2565b604082019050919050565b6000602082019050818103600083015261603d81616001565b9050919050565b7f455243313135353a2069647320616e6420616d6f756e7473206c656e6774682060008201527f6d69736d61746368000000000000000000000000000000000000000000000000602082015250565b60006160a0602883614b9e565b91506160ab82616044565b604082019050919050565b600060208201905081810360008301526160cf81616093565b9050919050565b60006160e18261487c565b91506160ec8361487c565b925082820190508082111561610457616103615763565b5b92915050565b6000604082019050818103600083015261612481856150fe565b9050818103602083015261613881846150fe565b90509392505050565b7f455243313135353a207472616e7366657220746f20746865207a65726f20616460008201527f6472657373000000000000000000000000000000000000000000000000000000602082015250565b600061619d602583614b9e565b91506161a882616141565b604082019050919050565b600060208201905081810360008301526161cc81616190565b9050919050565b7f455243313135353a20696e73756666696369656e742062616c616e636520666f60008201527f72207472616e7366657200000000000000000000000000000000000000000000602082015250565b600061622f602a83614b9e565b915061623a826161d3565b604082019050919050565b6000602082019050818103600083015261625e81616222565b9050919050565b600060408201905061627a60008301856148f2565b61628760208301846148f2565b9392505050565b7f455243313135353a206275726e2066726f6d20746865207a65726f206164647260008201527f6573730000000000000000000000000000000000000000000000000000000000602082015250565b60006162ea602383614b9e565b91506162f58261628e565b604082019050919050565b60006020820190508181036000830152616319816162dd565b9050919050565b7f455243313135353a206275726e20616d6f756e7420657863656564732062616c60008201527f616e636500000000000000000000000000000000000000000000000000000000602082015250565b600061637c602483614b9e565b915061638782616320565b604082019050919050565b600060208201905081810360008301526163ab8161636f565b9050919050565b7f455243313135353a2073657474696e6720617070726f76616c2073746174757360008201527f20666f722073656c660000000000000000000000000000000000000000000000602082015250565b600061640e602983614b9e565b9150616419826163b2565b604082019050919050565b6000602082019050818103600083015261643d81616401565b9050919050565b600081519050919050565b600082825260208201905092915050565b600061646b82616444565b616475818561644f565b9350616485818560208601614baf565b61648e816149e1565b840191505092915050565b600060a0820190506164ae6000830188615209565b6164bb6020830187615209565b81810360408301526164cd81866150fe565b905081810360608301526164e181856150fe565b905081810360808301526164f58184616460565b90509695505050505050565b60008151905061651081614948565b92915050565b60006020828403121561652c5761652b614814565b5b600061653a84828501616501565b91505092915050565b60008160e01c9050919050565b600060033d111561656f5760046000803e61656c600051616543565b90505b90565b600060443d106165ff5761658461480a565b60043d036004823e80513d602482011167ffffffffffffffff821117156165ac5750506165ff565b808201805167ffffffffffffffff8111156165ca57505050506165ff565b80602083010160043d0385018111156165e75750505050506165ff565b6165f682602001850186614a21565b82955050505050505b90565b7f455243313135353a207472616e7366657220746f206e6f6e2d4552433131353560008201527f526563656976657220696d706c656d656e746572000000000000000000000000602082015250565b600061665e603483614b9e565b915061666982616602565b604082019050919050565b6000602082019050818103600083015261668d81616651565b9050919050565b7f455243313135353a204552433131353552656365697665722072656a6563746560008201527f6420746f6b656e73000000000000000000000000000000000000000000000000602082015250565b60006166f0602883614b9e565b91506166fb82616694565b604082019050919050565b6000602082019050818103600083015261671f816166e3565b9050919050565b600060a08201905061673b6000830188615209565b6167486020830187615209565b61675560408301866148f2565b61676260608301856148f2565b81810360808301526167748184616460565b90509695505050505050565b7f455243313135353a206275726e20616d6f756e74206578636565647320746f7460008201527f616c537570706c79000000000000000000000000000000000000000000000000602082015250565b60006167dc602883614b9e565b91506167e782616780565b604082019050919050565b6000602082019050818103600083015261680b816167cf565b905091905056fea26469706673582212208d470e288132ccd88b63288149b4c29accc85c67f500c66a6de8cc654c43b7e764736f6c63430008110033697066733a2f2f516d5a47527058325441687353437642535a415446505669797a70584d646a4b57636a434b66346a3450667377612f7b69647d",
  "immutableReferences": {},
  "source": "// SPDX-License-Identifier: MIT\npragma solidity ^0.8.0;\n\nimport \"@openzeppelin/contracts/token/ERC1155/ERC1155.sol\";\nimport \"@openzeppelin/contracts/access/Ownable.sol\";\nimport \"@openzeppelin/contracts/token/ERC1155/extensions/ERC1155Burnable.sol\";\nimport \"@openzeppelin/contracts/token/ERC1155/extensions/ERC1155Supply.sol\";\nimport \"@openzeppelin/contracts/utils/Strings.sol\";\nimport \"./JetToken.sol\";\n\ncontract JetrisItems is ERC1155, Ownable, ERC1155Burnable, ERC1155Supply {\n    JetToken private token;\n    uint256 decimals = 10**18;\n    address payable public treasuryWallet; //                                                !\n    uint256 private mintPrice;\n    uint256 private maxStrength;\n    uint randNum = 0;\n    uint rewardProbability = 70;\n\n    uint256[] private waitForMint;\n    uint256[] private firstMint;\n    uint256[] private itemCheck;\n    address private marketContractAddress;\n\n    uint256 public constant NOMAL0 = 0;\n    uint256 public constant NOMAL1 = 1;\n    uint256 public constant NOMAL2 = 2;\n    uint256 public constant NOMAL3 = 3;\n    uint256 public constant NOMAL4 = 4;\n    uint256 public constant NOMAL5 = 5;\n    uint256 public constant NOMAL6 = 6;\n    uint256 public constant NOMAL7 = 7;\n    uint256 public constant NOMAL8 = 8;\n    uint256 public constant NOMAL9 = 9;\n    uint256 public constant NOMAL10 = 10;\n    uint256 public constant NOMAL11 = 11;\n    uint256 public constant NOMAL12 = 12;\n    uint256 public constant NOMAL13 = 13;\n    uint256 public constant NOMAL14 = 14;\n    uint256 public constant NOMAL15 = 15;\n    uint256 public constant NOMAL16 = 16;\n    uint256 public constant NOMAL17 = 17;\n    uint256 public constant NOMAL18 = 18;\n    uint256 public constant NOMAL19 = 19;\n\n    uint256 public constant RARE0 = 100;\n    uint256 public constant RARE1 = 101;\n    uint256 public constant RARE2 = 102;\n    uint256 public constant RARE3 = 103;\n    uint256 public constant RARE4 = 104;\n    uint256 public constant RARE5 = 105;\n    uint256 public constant RARE6 = 106;\n    uint256 public constant RARE7 = 107;\n    uint256 public constant RARE8 = 108;\n    uint256 public constant RARE9 = 109;\n    uint256 public constant RARE10 = 110;\n    uint256 public constant RARE11 = 111;\n\n    uint256 public constant UNIQUE0 = 200;\n    uint256 public constant UNIQUE1 = 201;\n    uint256 public constant UNIQUE2 = 202;\n    uint256 public constant UNIQUE3 = 203;\n    uint256 public constant UNIQUE4 = 204;\n    uint256 public constant UNIQUE5 = 205;\n\n    uint256 public constant LEGEND0 = 300;\n    uint256 public constant LEGEND1 = 301;\n\n    constructor(\n        address _marketAddress,\n        address _tokenContractAddress,\n        address payable _treasuryWallet) \n        ERC1155(\"ipfs://QmZGRpX2TAhsSCvBSZATFPViyzpXMdjKWcjCKf4j4Pfswa/{id}\") {\n        mintPrice = 1;\n        maxStrength = 2;\n        marketContractAddress = _marketAddress;\n        _setToken(_tokenContractAddress);        \n        treasuryWallet = _treasuryWallet;\n    }\n\n    function uri(uint256 _tokenid) override public pure returns (string memory) {\n        return string(\n            abi.encodePacked(\n                \"https://ipfs.io/ipfs/QmZGRpX2TAhsSCvBSZATFPViyzpXMdjKWcjCKf4j4Pfswa/\",\n                Strings.toString(_tokenid)\n            )\n        );\n    }\n\n    function setURI(string memory newuri) public onlyOwner {\n        _setURI(newuri);\n    }\n\n    function generateJtemArray() public onlyOwner{\n        for (uint256 i = 0; i < 5; i++ ){\n            waitForMint.push(NOMAL0); \n        }\n        for (uint256 i = 0; i < 9; i++ ){\n            waitForMint.push(NOMAL1);\n        }\n        for (uint256 i = 0; i < 8; i++ ){\n            waitForMint.push(NOMAL2); \n        }\n        for (uint256 i = 0; i < 7; i++ ){\n            waitForMint.push(NOMAL3); \n        }\n        for (uint256 i = 0; i < 6; i++ ){\n            waitForMint.push(NOMAL4);\n        }\n        for (uint256 i = 0; i < 5; i++ ){\n            waitForMint.push(NOMAL5); \n        }\n        for (uint256 i = 0; i < 4; i++ ){\n            waitForMint.push(NOMAL6); \n        }\n        for (uint256 i = 0; i < 3; i++ ){\n            waitForMint.push(NOMAL7);\n        }\n        for (uint256 i = 0; i < 2; i++ ){\n            waitForMint.push(NOMAL8); \n        }\n        for (uint256 i = 0; i < 1; i++ ){\n            waitForMint.push(NOMAL9); \n        }\n        for (uint256 i = 0; i < 5; i++ ){\n            waitForMint.push(NOMAL10); \n        }\n        for (uint256 i = 0; i < 9; i++ ){\n            waitForMint.push(NOMAL11);\n        }\n        for (uint256 i = 0; i < 8; i++ ){\n            waitForMint.push(NOMAL12); \n        }\n        for (uint256 i = 0; i < 7; i++ ){\n            waitForMint.push(NOMAL13); \n        }\n        for (uint256 i = 0; i < 6; i++ ){\n            waitForMint.push(NOMAL14);\n        }\n        for (uint256 i = 0; i < 5; i++ ){\n            waitForMint.push(NOMAL15); \n        }\n        for (uint256 i = 0; i < 4; i++ ){\n            waitForMint.push(NOMAL16); \n        }\n        for (uint256 i = 0; i < 3; i++ ){\n            waitForMint.push(NOMAL17);\n        }\n        for (uint256 i = 0; i < 2; i++ ){\n            waitForMint.push(NOMAL18); \n        }\n        for (uint256 i = 0; i < 1; i++ ){\n            waitForMint.push(NOMAL19); \n        }\n\n        for (uint256 i = 0; i < 5; i++ ){\n            waitForMint.push(RARE0); \n        }\n        for (uint256 i = 0; i < 9; i++ ){\n            waitForMint.push(RARE1);\n        }\n        for (uint256 i = 0; i < 8; i++ ){\n            waitForMint.push(RARE2); \n        }\n        for (uint256 i = 0; i < 7; i++ ){\n            waitForMint.push(RARE3); \n        }\n        for (uint256 i = 0; i < 6; i++ ){\n            waitForMint.push(RARE4);\n        }\n        for (uint256 i = 0; i < 5; i++ ){\n            waitForMint.push(RARE5); \n        }\n        for (uint256 i = 0; i < 4; i++ ){\n            waitForMint.push(RARE6); \n        }\n        for (uint256 i = 0; i < 3; i++ ){\n            waitForMint.push(RARE7);\n        }\n        for (uint256 i = 0; i < 2; i++ ){\n            waitForMint.push(RARE8); \n        }\n        for (uint256 i = 0; i < 1; i++ ){\n            waitForMint.push(RARE9); \n        }\n        for (uint256 i = 0; i < 5; i++ ){\n            waitForMint.push(RARE10); \n        }\n        for (uint256 i = 0; i < 9; i++ ){\n            waitForMint.push(RARE11);\n        }\n\n        for (uint256 i = 0; i < 8; i++ ){\n            waitForMint.push(UNIQUE0); \n        }\n        for (uint256 i = 0; i < 7; i++ ){\n            waitForMint.push(UNIQUE1); \n        }\n        for (uint256 i = 0; i < 6; i++ ){\n            waitForMint.push(UNIQUE2);\n        }\n        for (uint256 i = 0; i < 5; i++ ){\n            waitForMint.push(UNIQUE3); \n        }\n        for (uint256 i = 0; i < 4; i++ ){\n            waitForMint.push(UNIQUE4); \n        }\n        for (uint256 i = 0; i < 3; i++ ){\n            waitForMint.push(UNIQUE5);\n        }\n\n        for (uint256 i = 0; i < 2; i++ ){\n            waitForMint.push(LEGEND0); \n        }\n        for (uint256 i = 0; i < 1; i++ ){\n            waitForMint.push(LEGEND1); \n        }\n    }\n\n    function generatefirstJtem() public onlyOwner{\n        firstMint.push(NOMAL0); \n    }\n\n    function generateItemCheck() public onlyOwner{\n        itemCheck.push(NOMAL0);\n        itemCheck.push(NOMAL1);\n        itemCheck.push(NOMAL2);\n        itemCheck.push(NOMAL3);\n        itemCheck.push(NOMAL4);\n        itemCheck.push(NOMAL5);\n        itemCheck.push(NOMAL6);\n        itemCheck.push(NOMAL7);\n        itemCheck.push(NOMAL8);\n        itemCheck.push(NOMAL9);\n        itemCheck.push(NOMAL10);\n        itemCheck.push(NOMAL11);\n        itemCheck.push(NOMAL12);\n        itemCheck.push(NOMAL13);\n        itemCheck.push(NOMAL14);\n        itemCheck.push(NOMAL15);\n        itemCheck.push(NOMAL16);\n        itemCheck.push(NOMAL17);\n        itemCheck.push(NOMAL18);\n        itemCheck.push(NOMAL19);\n\n        itemCheck.push(RARE0);\n        itemCheck.push(RARE1);\n        itemCheck.push(RARE2);\n        itemCheck.push(RARE3);\n        itemCheck.push(RARE4);\n        itemCheck.push(RARE5);\n        itemCheck.push(RARE6);\n        itemCheck.push(RARE7);\n        itemCheck.push(RARE8);\n        itemCheck.push(RARE9);\n        itemCheck.push(RARE10);\n        itemCheck.push(RARE11);\n\n        itemCheck.push(UNIQUE0);\n        itemCheck.push(UNIQUE1);\n        itemCheck.push(UNIQUE2);\n        itemCheck.push(UNIQUE3);\n        itemCheck.push(UNIQUE4);\n        itemCheck.push(UNIQUE5);\n\n        itemCheck.push(LEGEND0);\n        itemCheck.push(LEGEND1);\n    }\n\n    function mintFirstJtem() public {\n        require(balanceCheck(msg.sender).length==0, \"ERC1155: you already have first Emblem\");\n\n        uint256 n = uint256(keccak256(abi.encodePacked(block.timestamp))) % (firstMint.length);\n        uint id = firstMint[n];\n        \n        _mint(msg.sender, id, 1, \"\");\n        setApprovalForAll(marketContractAddress, true);\n    }\n\n    function mintRandomJtem() public returns (uint256){  \n        uint256 n = uint256(keccak256(abi.encodePacked(block.timestamp))) % (waitForMint.length);\n        uint256 id = waitForMint[n];\n        \n        _mint(msg.sender, id, 1, \"\");\n        setApprovalForAll(marketContractAddress, true);\n        \n        //   \n        bool success = token.increaseContractAllowance(\n            msg.sender, \n            address(this),\n            mintPrice * decimals\n        );\n        require(success,\"IncreaseContract Fail\");\n        token.transferFrom(msg.sender, treasuryWallet, mintPrice * decimals); \n        token.marketBurn(treasuryWallet, (mintPrice * decimals)/2);\n\n        return id;\n    }\n\n    function mintBatch(address to, uint256[] memory ids, uint256[] memory amounts, bytes memory data)\n        public\n        onlyOwner\n    {\n        _mintBatch(to, ids, amounts, data);\n    }\n\n    function balanceCheck(address sender) public returns(uint256[][] memory){\n        uint256[][] memory balance = new uint256[][](itemCheck.length);\n        uint256 count = 0;\n\n        for(uint256 i=0; i<itemCheck.length; i++){\n            uint256 mybalance = balanceOf(sender, itemCheck[i]); \n            if(mybalance!=0){\n                balance[count] = new uint256[](2);\n                balance[count][0] = itemCheck[i];\n                balance[count][1] = mybalance;\n                count++;\n            }            \n        }\n\n        uint256[][] memory result = new uint256[][](count);\n        for(uint256 i=0; i<count; i++){\n            result[i] = new uint256[](2);\n            result[i][0] = balance[i][0];\n            result[i][1] = balance[i][1];\n        }\n\n        return result;\n    }\n    // JetToken  .\n    function _setToken(address _tokenAddress) private onlyOwner returns (bool) {\n        require(_tokenAddress != address(0x0));\n        token = JetToken(_tokenAddress);\n        return true;\n    }\n    // The following functions are overrides required by Solidity.\n\n    function _beforeTokenTransfer(address operator, address from, address to, uint256[] memory ids, uint256[] memory amounts, bytes memory data)\n        internal\n        override(ERC1155, ERC1155Supply)\n    {\n        super._beforeTokenTransfer(operator, from, to, ids, amounts, data);\n    }\n}",
  "sourcePath": "C:\\Users\\user\\Desktop\\project3\\BEB-06-FINAL-06\\contract\\contracts\\JetrisItems.sol",
  "compiler": {
    "name": "solc",
    "version": "0.8.17+commit.8df45f5f.Emscripten.clang"
  },
  "schemaVersion": "3.4.10",
  "updatedAt": "2022-11-29T14:59:18.699Z",
  "networkType": "ethereum",
  "devdoc": {
    "kind": "dev",
    "methods": {
      "balanceOf(address,uint256)": {
        "details": "See {IERC1155-balanceOf}. Requirements: - `account` cannot be the zero address."
      },
      "balanceOfBatch(address[],uint256[])": {
        "details": "See {IERC1155-balanceOfBatch}. Requirements: - `accounts` and `ids` must have the same length."
      },
      "exists(uint256)": {
        "details": "Indicates whether any token exist with a given id, or not."
      },
      "isApprovedForAll(address,address)": {
        "details": "See {IERC1155-isApprovedForAll}."
      },
      "owner()": {
        "details": "Returns the address of the current owner."
      },
      "renounceOwnership()": {
        "details": "Leaves the contract without owner. It will not be possible to call `onlyOwner` functions anymore. Can only be called by the current owner. NOTE: Renouncing ownership will leave the contract without an owner, thereby removing any functionality that is only available to the owner."
      },
      "safeBatchTransferFrom(address,address,uint256[],uint256[],bytes)": {
        "details": "See {IERC1155-safeBatchTransferFrom}."
      },
      "safeTransferFrom(address,address,uint256,uint256,bytes)": {
        "details": "See {IERC1155-safeTransferFrom}."
      },
      "setApprovalForAll(address,bool)": {
        "details": "See {IERC1155-setApprovalForAll}."
      },
      "supportsInterface(bytes4)": {
        "details": "See {IERC165-supportsInterface}."
      },
      "totalSupply(uint256)": {
        "details": "Total amount of tokens in with a given id."
      },
      "transferOwnership(address)": {
        "details": "Transfers ownership of the contract to a new account (`newOwner`). Can only be called by the current owner."
      }
    },
    "version": 1
  },
  "userdoc": {
    "kind": "user",
    "methods": {},
    "version": 1
  }
}