{
  "contractName": "JetrisMarket",
  "abi": [
    {
      "inputs": [
        {
          "internalType": "address",
          "name": "_tokenContractAddress",
          "type": "address"
        },
        {
          "internalType": "address payable",
          "name": "_treasuryWallet",
          "type": "address"
        }
      ],
      "stateMutability": "nonpayable",
      "type": "constructor"
    },
    {
      "anonymous": false,
      "inputs": [
        {
          "indexed": false,
          "internalType": "uint256",
          "name": "tokenId",
          "type": "uint256"
        },
        {
          "indexed": false,
          "internalType": "uint256",
          "name": "itemId",
          "type": "uint256"
        },
        {
          "indexed": false,
          "internalType": "address",
          "name": "seller",
          "type": "address"
        },
        {
          "indexed": false,
          "internalType": "uint256",
          "name": "price",
          "type": "uint256"
        }
      ],
      "name": "ItemCreated",
      "type": "event"
    },
    {
      "anonymous": false,
      "inputs": [
        {
          "indexed": false,
          "internalType": "uint256",
          "name": "tokenId",
          "type": "uint256"
        },
        {
          "indexed": false,
          "internalType": "uint256",
          "name": "itemId",
          "type": "uint256"
        },
        {
          "indexed": false,
          "internalType": "address",
          "name": "seller",
          "type": "address"
        },
        {
          "indexed": false,
          "internalType": "address",
          "name": "buyer",
          "type": "address"
        },
        {
          "indexed": false,
          "internalType": "uint256",
          "name": "price",
          "type": "uint256"
        }
      ],
      "name": "ItemSold",
      "type": "event"
    },
    {
      "anonymous": false,
      "inputs": [
        {
          "indexed": true,
          "internalType": "address",
          "name": "previousOwner",
          "type": "address"
        },
        {
          "indexed": true,
          "internalType": "address",
          "name": "newOwner",
          "type": "address"
        }
      ],
      "name": "OwnershipTransferred",
      "type": "event"
    },
    {
      "anonymous": false,
      "inputs": [
        {
          "indexed": false,
          "internalType": "uint256",
          "name": "tokenId",
          "type": "uint256"
        },
        {
          "indexed": false,
          "internalType": "uint256",
          "name": "itemId",
          "type": "uint256"
        },
        {
          "indexed": false,
          "internalType": "address",
          "name": "seller",
          "type": "address"
        }
      ],
      "name": "SaleCanceled",
      "type": "event"
    },
    {
      "inputs": [],
      "name": "owner",
      "outputs": [
        {
          "internalType": "address",
          "name": "",
          "type": "address"
        }
      ],
      "stateMutability": "view",
      "type": "function"
    },
    {
      "inputs": [],
      "name": "renounceOwnership",
      "outputs": [],
      "stateMutability": "nonpayable",
      "type": "function"
    },
    {
      "inputs": [
        {
          "internalType": "address",
          "name": "newOwner",
          "type": "address"
        }
      ],
      "name": "transferOwnership",
      "outputs": [],
      "stateMutability": "nonpayable",
      "type": "function"
    },
    {
      "inputs": [
        {
          "internalType": "address",
          "name": "_userContract",
          "type": "address"
        }
      ],
      "name": "setUserContractAddress",
      "outputs": [],
      "stateMutability": "nonpayable",
      "type": "function"
    },
    {
      "inputs": [
        {
          "internalType": "address",
          "name": "_contractAddr",
          "type": "address"
        },
        {
          "internalType": "uint256",
          "name": "_tokenId",
          "type": "uint256"
        },
        {
          "internalType": "uint256",
          "name": "_price",
          "type": "uint256"
        }
      ],
      "name": "sell",
      "outputs": [],
      "stateMutability": "nonpayable",
      "type": "function"
    },
    {
      "inputs": [
        {
          "internalType": "address",
          "name": "_contractAddr",
          "type": "address"
        },
        {
          "internalType": "uint256",
          "name": "_tokenId",
          "type": "uint256"
        },
        {
          "internalType": "uint256",
          "name": "_price",
          "type": "uint256"
        }
      ],
      "name": "sellJtem",
      "outputs": [],
      "stateMutability": "nonpayable",
      "type": "function"
    },
    {
      "inputs": [
        {
          "internalType": "address",
          "name": "_contractAddr",
          "type": "address"
        },
        {
          "internalType": "uint256",
          "name": "_itemId",
          "type": "uint256"
        }
      ],
      "name": "saleCancel",
      "outputs": [],
      "stateMutability": "nonpayable",
      "type": "function"
    },
    {
      "inputs": [
        {
          "internalType": "address",
          "name": "_contractAddr",
          "type": "address"
        },
        {
          "internalType": "uint256",
          "name": "_itemId",
          "type": "uint256"
        }
      ],
      "name": "saleCancelJtem",
      "outputs": [],
      "stateMutability": "nonpayable",
      "type": "function"
    },
    {
      "inputs": [
        {
          "internalType": "address",
          "name": "_contractAddr",
          "type": "address"
        },
        {
          "internalType": "uint256",
          "name": "_itemId",
          "type": "uint256"
        }
      ],
      "name": "buy",
      "outputs": [],
      "stateMutability": "nonpayable",
      "type": "function"
    },
    {
      "inputs": [
        {
          "internalType": "address",
          "name": "_contractAddr",
          "type": "address"
        },
        {
          "internalType": "uint256",
          "name": "_itemId",
          "type": "uint256"
        }
      ],
      "name": "buyJtem",
      "outputs": [],
      "stateMutability": "nonpayable",
      "type": "function"
    },
    {
      "inputs": [],
      "name": "fetchCharOnSale",
      "outputs": [
        {
          "components": [
            {
              "internalType": "uint256",
              "name": "itemId",
              "type": "uint256"
            },
            {
              "components": [
                {
                  "internalType": "address",
                  "name": "contractAddr",
                  "type": "address"
                },
                {
                  "internalType": "uint256",
                  "name": "tokenId",
                  "type": "uint256"
                }
              ],
              "internalType": "struct JetrisMarket.Token",
              "name": "token",
              "type": "tuple"
            },
            {
              "internalType": "address payable",
              "name": "seller",
              "type": "address"
            },
            {
              "internalType": "uint256",
              "name": "price",
              "type": "uint256"
            },
            {
              "internalType": "enum JetrisMarket.ItemStatus",
              "name": "itemStatus",
              "type": "uint8"
            }
          ],
          "internalType": "struct JetrisMarket.MarketItem[]",
          "name": "",
          "type": "tuple[]"
        }
      ],
      "stateMutability": "view",
      "type": "function"
    },
    {
      "inputs": [],
      "name": "fetchJtemOnSale",
      "outputs": [
        {
          "components": [
            {
              "internalType": "uint256",
              "name": "itemId",
              "type": "uint256"
            },
            {
              "components": [
                {
                  "internalType": "address",
                  "name": "contractAddr",
                  "type": "address"
                },
                {
                  "internalType": "uint256",
                  "name": "tokenId",
                  "type": "uint256"
                }
              ],
              "internalType": "struct JetrisMarket.Token",
              "name": "token",
              "type": "tuple"
            },
            {
              "internalType": "address payable",
              "name": "seller",
              "type": "address"
            },
            {
              "internalType": "uint256",
              "name": "price",
              "type": "uint256"
            },
            {
              "internalType": "enum JetrisMarket.ItemStatus",
              "name": "itemStatus",
              "type": "uint8"
            }
          ],
          "internalType": "struct JetrisMarket.MarketItem[]",
          "name": "",
          "type": "tuple[]"
        }
      ],
      "stateMutability": "view",
      "type": "function"
    },
    {
      "inputs": [],
      "name": "fetchMyItemsOnSale",
      "outputs": [
        {
          "components": [
            {
              "internalType": "uint256",
              "name": "itemId",
              "type": "uint256"
            },
            {
              "components": [
                {
                  "internalType": "address",
                  "name": "contractAddr",
                  "type": "address"
                },
                {
                  "internalType": "uint256",
                  "name": "tokenId",
                  "type": "uint256"
                }
              ],
              "internalType": "struct JetrisMarket.Token",
              "name": "token",
              "type": "tuple"
            },
            {
              "internalType": "address payable",
              "name": "seller",
              "type": "address"
            },
            {
              "internalType": "uint256",
              "name": "price",
              "type": "uint256"
            },
            {
              "internalType": "enum JetrisMarket.ItemStatus",
              "name": "itemStatus",
              "type": "uint8"
            }
          ],
          "internalType": "struct JetrisMarket.MarketItem[]",
          "name": "",
          "type": "tuple[]"
        }
      ],
      "stateMutability": "view",
      "type": "function"
    },
    {
      "inputs": [
        {
          "internalType": "address",
          "name": "",
          "type": "address"
        },
        {
          "internalType": "address",
          "name": "",
          "type": "address"
        },
        {
          "internalType": "uint256",
          "name": "",
          "type": "uint256"
        },
        {
          "internalType": "uint256",
          "name": "",
          "type": "uint256"
        },
        {
          "internalType": "bytes",
          "name": "",
          "type": "bytes"
        }
      ],
      "name": "onERC1155Received",
      "outputs": [
        {
          "internalType": "bytes4",
          "name": "",
          "type": "bytes4"
        }
      ],
      "stateMutability": "nonpayable",
      "type": "function"
    },
    {
      "inputs": [
        {
          "internalType": "address",
          "name": "",
          "type": "address"
        },
        {
          "internalType": "address",
          "name": "",
          "type": "address"
        },
        {
          "internalType": "uint256[]",
          "name": "",
          "type": "uint256[]"
        },
        {
          "internalType": "uint256[]",
          "name": "",
          "type": "uint256[]"
        },
        {
          "internalType": "bytes",
          "name": "",
          "type": "bytes"
        }
      ],
      "name": "onERC1155BatchReceived",
      "outputs": [
        {
          "internalType": "bytes4",
          "name": "",
          "type": "bytes4"
        }
      ],
      "stateMutability": "nonpayable",
      "type": "function"
    },
    {
      "inputs": [
        {
          "internalType": "address",
          "name": "",
          "type": "address"
        },
        {
          "internalType": "address",
          "name": "",
          "type": "address"
        },
        {
          "internalType": "uint256",
          "name": "",
          "type": "uint256"
        },
        {
          "internalType": "bytes",
          "name": "",
          "type": "bytes"
        }
      ],
      "name": "onERC721Received",
      "outputs": [
        {
          "internalType": "bytes4",
          "name": "",
          "type": "bytes4"
        }
      ],
      "stateMutability": "nonpayable",
      "type": "function"
    }
  ],
  "bytecode": "0x6080604052670de0b6b3a76400006005553480156200001d57600080fd5b5060405162003a9e38038062003a9e833981810160405281019062000043919062000389565b6200006362000057620000be60201b60201c565b620000c660201b60201c565b62000074826200018a60201b60201c565b5080600760006101000a81548173ffffffffffffffffffffffffffffffffffffffff021916908373ffffffffffffffffffffffffffffffffffffffff160217905550505062000453565b600033905090565b60008060009054906101000a900473ffffffffffffffffffffffffffffffffffffffff169050816000806101000a81548173ffffffffffffffffffffffffffffffffffffffff021916908373ffffffffffffffffffffffffffffffffffffffff1602179055508173ffffffffffffffffffffffffffffffffffffffff168173ffffffffffffffffffffffffffffffffffffffff167f8be0079c531659141344cd1fd0a4f28419497f9722a3daafe3b4186f6b6457e060405160405180910390a35050565b60006200019c6200022060201b60201c565b600073ffffffffffffffffffffffffffffffffffffffff168273ffffffffffffffffffffffffffffffffffffffff1603620001d657600080fd5b81600660006101000a81548173ffffffffffffffffffffffffffffffffffffffff021916908373ffffffffffffffffffffffffffffffffffffffff16021790555060019050919050565b62000230620000be60201b60201c565b73ffffffffffffffffffffffffffffffffffffffff1662000256620002b160201b60201c565b73ffffffffffffffffffffffffffffffffffffffff1614620002af576040517f08c379a0000000000000000000000000000000000000000000000000000000008152600401620002a69062000431565b60405180910390fd5b565b60008060009054906101000a900473ffffffffffffffffffffffffffffffffffffffff16905090565b600080fd5b600073ffffffffffffffffffffffffffffffffffffffff82169050919050565b60006200030c82620002df565b9050919050565b6200031e81620002ff565b81146200032a57600080fd5b50565b6000815190506200033e8162000313565b92915050565b60006200035182620002df565b9050919050565b620003638162000344565b81146200036f57600080fd5b50565b600081519050620003838162000358565b92915050565b60008060408385031215620003a357620003a2620002da565b5b6000620003b3858286016200032d565b9250506020620003c68582860162000372565b9150509250929050565b600082825260208201905092915050565b7f4f776e61626c653a2063616c6c6572206973206e6f7420746865206f776e6572600082015250565b600062000419602083620003d0565b91506200042682620003e1565b602082019050919050565b600060208201905081810360008301526200044c816200040a565b9050919050565b61363b80620004636000396000f3fe608060405234801561001057600080fd5b50600436106101005760003560e01c8063ae9eb1ed11610097578063f23a6e6111610066578063f23a6e6114610271578063f2fde38b146102a1578063f47df355146102bd578063fc873237146102d957610100565b8063ae9eb1ed146101e9578063b1d3c88114610207578063bc197c8114610225578063cce7ec131461025557610100565b8063690221cc116100d3578063690221cc146101895780636a272462146101a5578063715018a6146101c15780638da5cb5b146101cb57610100565b8063150b7a02146101055780631697e40b146101355780631d7e37ad14610151578063207cf6141461016d575b600080fd5b61011f600480360381019061011a91906126e4565b6102f7565b60405161012c91906127a2565b60405180910390f35b61014f600480360381019061014a91906127bd565b61030b565b005b61016b600480360381019061016691906127fd565b61054f565b005b6101876004803603810190610182919061282a565b61062c565b005b6101a3600480360381019061019e91906127bd565b610970565b005b6101bf60048036038101906101ba919061282a565b610bb7565b005b6101c9610f22565b005b6101d3610f36565b6040516101e0919061288c565b60405180910390f35b6101f1610f5f565b6040516101fe9190612aa3565b60405180910390f35b61020f611329565b60405161021c9190612aa3565b60405180910390f35b61023f600480360381019061023a9190612b8d565b6115b6565b60405161024c91906127a2565b60405180910390f35b61026f600480360381019061026a91906127bd565b6115cb565b005b61028b60048036038101906102869190612c5c565b611acf565b60405161029891906127a2565b60405180910390f35b6102bb60048036038101906102b691906127fd565b611ae4565b005b6102d760048036038101906102d291906127bd565b611b67565b005b6102e161206e565b6040516102ee9190612aa3565b60405180910390f35b600063150b7a0260e01b9050949350505050565b6009600082815260200190815260200160002060030160009054906101000a900473ffffffffffffffffffffffffffffffffffffffff1673ffffffffffffffffffffffffffffffffffffffff163373ffffffffffffffffffffffffffffffffffffffff16146103af576040517f08c379a00000000000000000000000000000000000000000000000000000000081526004016103a690612d50565b60405180910390fd5b6009600082815260200190815260200160002060050160009054906101000a900460ff1660028111156103e5576103e4612941565b5b600060028111156103f9576103f8612941565b5b14610439576040517f08c379a000000000000000000000000000000000000000000000000000000000815260040161043090612dbc565b60405180910390fd5b6000600960008381526020019081526020016000206001016001015490508273ffffffffffffffffffffffffffffffffffffffff166323b872dd3033846040518463ffffffff1660e01b815260040161049493929190612deb565b600060405180830381600087803b1580156104ae57600080fd5b505af11580156104c2573d6000803e3d6000fd5b5050505060026009600084815260200190815260200160002060050160006101000a81548160ff02191690836002811115610500576104ff612941565b5b021790555061050f60026122fb565b7fd3bffea3a9501b0422f789f4c0797d9cdcb9e89dd65de11b04e9b0079ea4e2a781833360405161054293929190612e22565b60405180910390a1505050565b610557612311565b600073ffffffffffffffffffffffffffffffffffffffff16600860009054906101000a900473ffffffffffffffffffffffffffffffffffffffff1673ffffffffffffffffffffffffffffffffffffffff16146105e8576040517f08c379a00000000000000000000000000000000000000000000000000000000081526004016105df90612ea5565b60405180910390fd5b80600860006101000a81548173ffffffffffffffffffffffffffffffffffffffff021916908373ffffffffffffffffffffffffffffffffffffffff16021790555050565b60008373ffffffffffffffffffffffffffffffffffffffff1662fdd58e33856040518363ffffffff1660e01b8152600401610668929190612ec5565b602060405180830381865afa158015610685573d6000803e3d6000fd5b505050506040513d601f19601f820116820180604052508101906106a99190612f03565b036106e9576040517f08c379a00000000000000000000000000000000000000000000000000000000081526004016106e090612f7c565b60405180910390fd5b6000811161072c576040517f08c379a000000000000000000000000000000000000000000000000000000000815260040161072390612fe8565b60405180910390fd5b61073660036122fb565b6000610742600361238f565b90506040518060a0016040528082815260200160405180604001604052808773ffffffffffffffffffffffffffffffffffffffff1681526020018681525081526020013373ffffffffffffffffffffffffffffffffffffffff168152602001838152602001600060028111156107bb576107ba612941565b5b815250600a60008381526020019081526020016000206000820151816000015560208201518160010160008201518160000160006101000a81548173ffffffffffffffffffffffffffffffffffffffff021916908373ffffffffffffffffffffffffffffffffffffffff16021790555060208201518160010155505060408201518160030160006101000a81548173ffffffffffffffffffffffffffffffffffffffff021916908373ffffffffffffffffffffffffffffffffffffffff1602179055506060820151816004015560808201518160050160006101000a81548160ff021916908360028111156108b3576108b2612941565b5b02179055509050508373ffffffffffffffffffffffffffffffffffffffff1663f242432a33308660016040518563ffffffff1660e01b81526004016108fb9493929190613084565b600060405180830381600087803b15801561091557600080fd5b505af1158015610929573d6000803e3d6000fd5b505050507f8b583604758a4c6c995171787709d2caa670e019b68bfb687d2c9fa77e5380598382338560405161096294939291906130dc565b60405180910390a150505050565b600a600082815260200190815260200160002060030160009054906101000a900473ffffffffffffffffffffffffffffffffffffffff1673ffffffffffffffffffffffffffffffffffffffff163373ffffffffffffffffffffffffffffffffffffffff1614610a14576040517f08c379a0000000000000000000000000000000000000000000000000000000008152600401610a0b90612d50565b60405180910390fd5b600a600082815260200190815260200160002060050160009054906101000a900460ff166002811115610a4a57610a49612941565b5b60006002811115610a5e57610a5d612941565b5b14610a9e576040517f08c379a0000000000000000000000000000000000000000000000000000000008152600401610a9590612dbc565b60405180910390fd5b6000600a60008381526020019081526020016000206001016001015490508273ffffffffffffffffffffffffffffffffffffffff1663f242432a30338460016040518563ffffffff1660e01b8152600401610afc9493929190613084565b600060405180830381600087803b158015610b1657600080fd5b505af1158015610b2a573d6000803e3d6000fd5b505050506002600a600084815260200190815260200160002060050160006101000a81548160ff02191690836002811115610b6857610b67612941565b5b0217905550610b7760046122fb565b7fd3bffea3a9501b0422f789f4c0797d9cdcb9e89dd65de11b04e9b0079ea4e2a7818333604051610baa93929190612e22565b60405180910390a1505050565b8273ffffffffffffffffffffffffffffffffffffffff16636352211e836040518263ffffffff1660e01b8152600401610bf09190613121565b602060405180830381865afa158015610c0d573d6000803e3d6000fd5b505050506040513d601f19601f82011682018060405250810190610c319190613151565b73ffffffffffffffffffffffffffffffffffffffff163373ffffffffffffffffffffffffffffffffffffffff1614610c9e576040517f08c379a0000000000000000000000000000000000000000000000000000000008152600401610c9590612f7c565b60405180910390fd5b60008111610ce1576040517f08c379a0000000000000000000000000000000000000000000000000000000008152600401610cd890612fe8565b60405180910390fd5b610ceb60016122fb565b6000610cf7600161238f565b90506040518060a0016040528082815260200160405180604001604052808773ffffffffffffffffffffffffffffffffffffffff1681526020018681525081526020013373ffffffffffffffffffffffffffffffffffffffff16815260200183815260200160006002811115610d7057610d6f612941565b5b815250600960008381526020019081526020016000206000820151816000015560208201518160010160008201518160000160006101000a81548173ffffffffffffffffffffffffffffffffffffffff021916908373ffffffffffffffffffffffffffffffffffffffff16021790555060208201518160010155505060408201518160030160006101000a81548173ffffffffffffffffffffffffffffffffffffffff021916908373ffffffffffffffffffffffffffffffffffffffff1602179055506060820151816004015560808201518160050160006101000a81548160ff02191690836002811115610e6857610e67612941565b5b02179055509050508373ffffffffffffffffffffffffffffffffffffffff166323b872dd3330866040518463ffffffff1660e01b8152600401610ead93929190612deb565b600060405180830381600087803b158015610ec757600080fd5b505af1158015610edb573d6000803e3d6000fd5b505050507f8b583604758a4c6c995171787709d2caa670e019b68bfb687d2c9fa77e53805983823385604051610f1494939291906130dc565b60405180910390a150505050565b610f2a612311565b610f34600061239d565b565b60008060009054906101000a900473ffffffffffffffffffffffffffffffffffffffff16905090565b60606000610f6d600161238f565b90506000806000600190505b8381116110605760006002811115610f9457610f93612941565b5b6009600083815260200190815260200160002060050160009054906101000a900460ff166002811115610fca57610fc9612941565b5b14801561103857503373ffffffffffffffffffffffffffffffffffffffff166009600083815260200190815260200160002060030160009054906101000a900473ffffffffffffffffffffffffffffffffffffffff1673ffffffffffffffffffffffffffffffffffffffff16145b1561104d5760018361104a91906131ad565b92505b8080611058906131e1565b915050610f79565b5060008267ffffffffffffffff81111561107d5761107c6125b9565b5b6040519080825280602002602001820160405280156110b657816020015b6110a3612469565b81526020019060019003908161109b5790505b5090506000600190505b84811161131e57600060028111156110db576110da612941565b5b6009600083815260200190815260200160002060050160009054906101000a900460ff16600281111561111157611110612941565b5b14801561117f57503373ffffffffffffffffffffffffffffffffffffffff166009600083815260200190815260200160002060030160009054906101000a900473ffffffffffffffffffffffffffffffffffffffff1673ffffffffffffffffffffffffffffffffffffffff16145b1561130b576000600960008381526020019081526020016000206000015490506000600960008381526020019081526020016000209050806040518060a001604052908160008201548152602001600182016040518060400160405290816000820160009054906101000a900473ffffffffffffffffffffffffffffffffffffffff1673ffffffffffffffffffffffffffffffffffffffff1673ffffffffffffffffffffffffffffffffffffffff16815260200160018201548152505081526020016003820160009054906101000a900473ffffffffffffffffffffffffffffffffffffffff1673ffffffffffffffffffffffffffffffffffffffff1673ffffffffffffffffffffffffffffffffffffffff168152602001600482015481526020016005820160009054906101000a900460ff1660028111156112c5576112c4612941565b5b60028111156112d7576112d6612941565b5b815250508486815181106112ee576112ed613229565b5b602002602001018190525060018561130691906131ad565b945050505b8080611316906131e1565b9150506110c0565b508094505050505090565b60606000611337600361238f565b90506000611345600461238f565b61134f600361238f565b6113599190613258565b90506000808267ffffffffffffffff811115611378576113776125b9565b5b6040519080825280602002602001820160405280156113b157816020015b61139e612469565b8152602001906001900390816113965790505b5090506000600190505b8481116115ab57600060028111156113d6576113d5612941565b5b600a600083815260200190815260200160002060050160009054906101000a900460ff16600281111561140c5761140b612941565b5b03611598576000600a60008381526020019081526020016000206000015490506000600a60008381526020019081526020016000209050806040518060a001604052908160008201548152602001600182016040518060400160405290816000820160009054906101000a900473ffffffffffffffffffffffffffffffffffffffff1673ffffffffffffffffffffffffffffffffffffffff1673ffffffffffffffffffffffffffffffffffffffff16815260200160018201548152505081526020016003820160009054906101000a900473ffffffffffffffffffffffffffffffffffffffff1673ffffffffffffffffffffffffffffffffffffffff1673ffffffffffffffffffffffffffffffffffffffff168152602001600482015481526020016005820160009054906101000a900460ff16600281111561155257611551612941565b5b600281111561156457611563612941565b5b8152505084868151811061157b5761157a613229565b5b602002602001018190525060018561159391906131ad565b945050505b80806115a3906131e1565b9150506113bb565b508094505050505090565b600063bc197c8160e01b905095945050505050565b60006009600083815260200190815260200160002060040154905060006064600a600554846115fa919061328c565b611604919061328c565b61160e91906132fd565b905060008160055484611621919061328c565b61162b9190613258565b90506000600960008681526020019081526020016000206001016001015490506000600660009054906101000a900473ffffffffffffffffffffffffffffffffffffffff1673ffffffffffffffffffffffffffffffffffffffff1663d83a2bf333306005548961169b919061328c565b6040518463ffffffff1660e01b81526004016116b993929190612deb565b6020604051808303816000875af11580156116d8573d6000803e3d6000fd5b505050506040513d601f19601f820116820180604052508101906116fc9190613366565b90508061173e576040517f08c379a0000000000000000000000000000000000000000000000000000000008152600401611735906133df565b60405180910390fd5b600660009054906101000a900473ffffffffffffffffffffffffffffffffffffffff1673ffffffffffffffffffffffffffffffffffffffff166323b872dd33600760009054906101000a900473ffffffffffffffffffffffffffffffffffffffff16876040518463ffffffff1660e01b81526004016117bf93929190613454565b6020604051808303816000875af11580156117de573d6000803e3d6000fd5b505050506040513d601f19601f820116820180604052508101906118029190613366565b50600660009054906101000a900473ffffffffffffffffffffffffffffffffffffffff1673ffffffffffffffffffffffffffffffffffffffff16631d057bd9600760009054906101000a900473ffffffffffffffffffffffffffffffffffffffff1660028761187191906132fd565b6040518363ffffffff1660e01b815260040161188e92919061348b565b600060405180830381600087803b1580156118a857600080fd5b505af11580156118bc573d6000803e3d6000fd5b50505050600660009054906101000a900473ffffffffffffffffffffffffffffffffffffffff1673ffffffffffffffffffffffffffffffffffffffff166323b872dd33600960008a815260200190815260200160002060030160009054906101000a900473ffffffffffffffffffffffffffffffffffffffff16866040518463ffffffff1660e01b815260040161195593929190613454565b6020604051808303816000875af1158015611974573d6000803e3d6000fd5b505050506040513d601f19601f820116820180604052508101906119989190613366565b508673ffffffffffffffffffffffffffffffffffffffff166323b872dd3033856040518463ffffffff1660e01b81526004016119d693929190612deb565b600060405180830381600087803b1580156119f057600080fd5b505af1158015611a04573d6000803e3d6000fd5b5050505060016009600088815260200190815260200160002060050160006101000a81548160ff02191690836002811115611a4257611a41612941565b5b0217905550611a5160026122fb565b7f636c891e1c595c5879015e9f0767c0138ec002c115fa5425d3a585252e13a1ed8287600960008a815260200190815260200160002060030160009054906101000a900473ffffffffffffffffffffffffffffffffffffffff163389604051611abe9594939291906134b4565b60405180910390a150505050505050565b600063f23a6e6160e01b905095945050505050565b611aec612311565b600073ffffffffffffffffffffffffffffffffffffffff168173ffffffffffffffffffffffffffffffffffffffff1603611b5b576040517f08c379a0000000000000000000000000000000000000000000000000000000008152600401611b5290613579565b60405180910390fd5b611b648161239d565b50565b6000600a600083815260200190815260200160002060040154905060006064600a60055484611b96919061328c565b611ba0919061328c565b611baa91906132fd565b905060008160055484611bbd919061328c565b611bc79190613258565b90506000600a60008681526020019081526020016000206001016001015490506000600660009054906101000a900473ffffffffffffffffffffffffffffffffffffffff1673ffffffffffffffffffffffffffffffffffffffff1663d83a2bf3333060055489611c37919061328c565b6040518463ffffffff1660e01b8152600401611c5593929190612deb565b6020604051808303816000875af1158015611c74573d6000803e3d6000fd5b505050506040513d601f19601f82011682018060405250810190611c989190613366565b905080611cda576040517f08c379a0000000000000000000000000000000000000000000000000000000008152600401611cd1906133df565b60405180910390fd5b600660009054906101000a900473ffffffffffffffffffffffffffffffffffffffff1673ffffffffffffffffffffffffffffffffffffffff166323b872dd33600760009054906101000a900473ffffffffffffffffffffffffffffffffffffffff16876040518463ffffffff1660e01b8152600401611d5b93929190613454565b6020604051808303816000875af1158015611d7a573d6000803e3d6000fd5b505050506040513d601f19601f82011682018060405250810190611d9e9190613366565b50600660009054906101000a900473ffffffffffffffffffffffffffffffffffffffff1673ffffffffffffffffffffffffffffffffffffffff16631d057bd9600760009054906101000a900473ffffffffffffffffffffffffffffffffffffffff16600287611e0d91906132fd565b6040518363ffffffff1660e01b8152600401611e2a92919061348b565b600060405180830381600087803b158015611e4457600080fd5b505af1158015611e58573d6000803e3d6000fd5b50505050600660009054906101000a900473ffffffffffffffffffffffffffffffffffffffff1673ffffffffffffffffffffffffffffffffffffffff166323b872dd33600a60008a815260200190815260200160002060030160009054906101000a900473ffffffffffffffffffffffffffffffffffffffff16866040518463ffffffff1660e01b8152600401611ef193929190613454565b6020604051808303816000875af1158015611f10573d6000803e3d6000fd5b505050506040513d601f19601f82011682018060405250810190611f349190613366565b508673ffffffffffffffffffffffffffffffffffffffff1663f242432a30338560016040518563ffffffff1660e01b8152600401611f759493929190613084565b600060405180830381600087803b158015611f8f57600080fd5b505af1158015611fa3573d6000803e3d6000fd5b505050506001600a600088815260200190815260200160002060050160006101000a81548160ff02191690836002811115611fe157611fe0612941565b5b0217905550611ff060046122fb565b7f636c891e1c595c5879015e9f0767c0138ec002c115fa5425d3a585252e13a1ed8287600a60008a815260200190815260200160002060030160009054906101000a900473ffffffffffffffffffffffffffffffffffffffff16338960405161205d9594939291906134b4565b60405180910390a150505050505050565b6060600061207c600161238f565b9050600061208a600261238f565b612094600161238f565b61209e9190613258565b90506000808267ffffffffffffffff8111156120bd576120bc6125b9565b5b6040519080825280602002602001820160405280156120f657816020015b6120e3612469565b8152602001906001900390816120db5790505b5090506000600190505b8481116122f0576000600281111561211b5761211a612941565b5b6009600083815260200190815260200160002060050160009054906101000a900460ff16600281111561215157612150612941565b5b036122dd576000600960008381526020019081526020016000206000015490506000600960008381526020019081526020016000209050806040518060a001604052908160008201548152602001600182016040518060400160405290816000820160009054906101000a900473ffffffffffffffffffffffffffffffffffffffff1673ffffffffffffffffffffffffffffffffffffffff1673ffffffffffffffffffffffffffffffffffffffff16815260200160018201548152505081526020016003820160009054906101000a900473ffffffffffffffffffffffffffffffffffffffff1673ffffffffffffffffffffffffffffffffffffffff1673ffffffffffffffffffffffffffffffffffffffff168152602001600482015481526020016005820160009054906101000a900460ff16600281111561229757612296612941565b5b60028111156122a9576122a8612941565b5b815250508486815181106122c0576122bf613229565b5b60200260200101819052506001856122d891906131ad565b945050505b80806122e8906131e1565b915050612100565b508094505050505090565b6001816000016000828254019250508190555050565b612319612461565b73ffffffffffffffffffffffffffffffffffffffff16612337610f36565b73ffffffffffffffffffffffffffffffffffffffff161461238d576040517f08c379a0000000000000000000000000000000000000000000000000000000008152600401612384906135e5565b60405180910390fd5b565b600081600001549050919050565b60008060009054906101000a900473ffffffffffffffffffffffffffffffffffffffff169050816000806101000a81548173ffffffffffffffffffffffffffffffffffffffff021916908373ffffffffffffffffffffffffffffffffffffffff1602179055508173ffffffffffffffffffffffffffffffffffffffff168173ffffffffffffffffffffffffffffffffffffffff167f8be0079c531659141344cd1fd0a4f28419497f9722a3daafe3b4186f6b6457e060405160405180910390a35050565b600033905090565b6040518060a00160405280600081526020016124836124c6565b8152602001600073ffffffffffffffffffffffffffffffffffffffff16815260200160008152602001600060028111156124c0576124bf612941565b5b81525090565b6040518060400160405280600073ffffffffffffffffffffffffffffffffffffffff168152602001600081525090565b6000604051905090565b600080fd5b600080fd5b600073ffffffffffffffffffffffffffffffffffffffff82169050919050565b60006125358261250a565b9050919050565b6125458161252a565b811461255057600080fd5b50565b6000813590506125628161253c565b92915050565b6000819050919050565b61257b81612568565b811461258657600080fd5b50565b60008135905061259881612572565b92915050565b600080fd5b600080fd5b6000601f19601f8301169050919050565b7f4e487b7100000000000000000000000000000000000000000000000000000000600052604160045260246000fd5b6125f1826125a8565b810181811067ffffffffffffffff821117156126105761260f6125b9565b5b80604052505050565b60006126236124f6565b905061262f82826125e8565b919050565b600067ffffffffffffffff82111561264f5761264e6125b9565b5b612658826125a8565b9050602081019050919050565b82818337600083830152505050565b600061268761268284612634565b612619565b9050828152602081018484840111156126a3576126a26125a3565b5b6126ae848285612665565b509392505050565b600082601f8301126126cb576126ca61259e565b5b81356126db848260208601612674565b91505092915050565b600080600080608085870312156126fe576126fd612500565b5b600061270c87828801612553565b945050602061271d87828801612553565b935050604061272e87828801612589565b925050606085013567ffffffffffffffff81111561274f5761274e612505565b5b61275b878288016126b6565b91505092959194509250565b60007fffffffff0000000000000000000000000000000000000000000000000000000082169050919050565b61279c81612767565b82525050565b60006020820190506127b76000830184612793565b92915050565b600080604083850312156127d4576127d3612500565b5b60006127e285828601612553565b92505060206127f385828601612589565b9150509250929050565b60006020828403121561281357612812612500565b5b600061282184828501612553565b91505092915050565b60008060006060848603121561284357612842612500565b5b600061285186828701612553565b935050602061286286828701612589565b925050604061287386828701612589565b9150509250925092565b6128868161252a565b82525050565b60006020820190506128a1600083018461287d565b92915050565b600081519050919050565b600082825260208201905092915050565b6000819050602082019050919050565b6128dc81612568565b82525050565b6128eb8161252a565b82525050565b60408201600082015161290760008501826128e2565b50602082015161291a60208501826128d3565b50505050565b600061292b8261250a565b9050919050565b61293b81612920565b82525050565b7f4e487b7100000000000000000000000000000000000000000000000000000000600052602160045260246000fd5b6003811061298157612980612941565b5b50565b600081905061299282612970565b919050565b60006129a282612984565b9050919050565b6129b281612997565b82525050565b60c0820160008201516129ce60008501826128d3565b5060208201516129e160208501826128f1565b5060408201516129f46060850182612932565b506060820151612a0760808501826128d3565b506080820151612a1a60a08501826129a9565b50505050565b6000612a2c83836129b8565b60c08301905092915050565b6000602082019050919050565b6000612a50826128a7565b612a5a81856128b2565b9350612a65836128c3565b8060005b83811015612a96578151612a7d8882612a20565b9750612a8883612a38565b925050600181019050612a69565b5085935050505092915050565b60006020820190508181036000830152612abd8184612a45565b905092915050565b600067ffffffffffffffff821115612ae057612adf6125b9565b5b602082029050602081019050919050565b600080fd5b6000612b09612b0484612ac5565b612619565b90508083825260208201905060208402830185811115612b2c57612b2b612af1565b5b835b81811015612b555780612b418882612589565b845260208401935050602081019050612b2e565b5050509392505050565b600082601f830112612b7457612b7361259e565b5b8135612b84848260208601612af6565b91505092915050565b600080600080600060a08688031215612ba957612ba8612500565b5b6000612bb788828901612553565b9550506020612bc888828901612553565b945050604086013567ffffffffffffffff811115612be957612be8612505565b5b612bf588828901612b5f565b935050606086013567ffffffffffffffff811115612c1657612c15612505565b5b612c2288828901612b5f565b925050608086013567ffffffffffffffff811115612c4357612c42612505565b5b612c4f888289016126b6565b9150509295509295909350565b600080600080600060a08688031215612c7857612c77612500565b5b6000612c8688828901612553565b9550506020612c9788828901612553565b9450506040612ca888828901612589565b9350506060612cb988828901612589565b925050608086013567ffffffffffffffff811115612cda57612cd9612505565b5b612ce6888289016126b6565b9150509295509295909350565b600082825260208201905092915050565b7f6f6e6c792073656c6c65722063616e2063616e63656c00000000000000000000600082015250565b6000612d3a601683612cf3565b9150612d4582612d04565b602082019050919050565b60006020820190508181036000830152612d6981612d2d565b9050919050565b7f6974656d206973206e6f74206f6e2073616c6500000000000000000000000000600082015250565b6000612da6601383612cf3565b9150612db182612d70565b602082019050919050565b60006020820190508181036000830152612dd581612d99565b9050919050565b612de581612568565b82525050565b6000606082019050612e00600083018661287d565b612e0d602083018561287d565b612e1a6040830184612ddc565b949350505050565b6000606082019050612e376000830186612ddc565b612e446020830185612ddc565b612e51604083018461287d565b949350505050565b7f57524954455f4f4e434521000000000000000000000000000000000000000000600082015250565b6000612e8f600b83612cf3565b9150612e9a82612e59565b602082019050919050565b60006020820190508181036000830152612ebe81612e82565b9050919050565b6000604082019050612eda600083018561287d565b612ee76020830184612ddc565b9392505050565b600081519050612efd81612572565b92915050565b600060208284031215612f1957612f18612500565b5b6000612f2784828501612eee565b91505092915050565b7f6f6e6c79206f776e6572732063616e2073656c6c206974656d73000000000000600082015250565b6000612f66601a83612cf3565b9150612f7182612f30565b602082019050919050565b60006020820190508181036000830152612f9581612f59565b9050919050565b7f5072696365206d7573742062652061626f7665207a65726f0000000000000000600082015250565b6000612fd2601883612cf3565b9150612fdd82612f9c565b602082019050919050565b6000602082019050818103600083015261300181612fc5565b9050919050565b6000819050919050565b6000819050919050565b600061303761303261302d84613008565b613012565b612568565b9050919050565b6130478161301c565b82525050565b600082825260208201905092915050565b50565b600061306e60008361304d565b91506130798261305e565b600082019050919050565b600060a082019050613099600083018761287d565b6130a6602083018661287d565b6130b36040830185612ddc565b6130c0606083018461303e565b81810360808301526130d181613061565b905095945050505050565b60006080820190506130f16000830187612ddc565b6130fe6020830186612ddc565b61310b604083018561287d565b6131186060830184612ddc565b95945050505050565b60006020820190506131366000830184612ddc565b92915050565b60008151905061314b8161253c565b92915050565b60006020828403121561316757613166612500565b5b60006131758482850161313c565b91505092915050565b7f4e487b7100000000000000000000000000000000000000000000000000000000600052601160045260246000fd5b60006131b882612568565b91506131c383612568565b92508282019050808211156131db576131da61317e565b5b92915050565b60006131ec82612568565b91507fffffffffffffffffffffffffffffffffffffffffffffffffffffffffffffffff820361321e5761321d61317e565b5b600182019050919050565b7f4e487b7100000000000000000000000000000000000000000000000000000000600052603260045260246000fd5b600061326382612568565b915061326e83612568565b92508282039050818111156132865761328561317e565b5b92915050565b600061329782612568565b91506132a283612568565b92508282026132b081612568565b915082820484148315176132c7576132c661317e565b5b5092915050565b7f4e487b7100000000000000000000000000000000000000000000000000000000600052601260045260246000fd5b600061330882612568565b915061331383612568565b925082613323576133226132ce565b5b828204905092915050565b60008115159050919050565b6133438161332e565b811461334e57600080fd5b50565b6000815190506133608161333a565b92915050565b60006020828403121561337c5761337b612500565b5b600061338a84828501613351565b91505092915050565b7f496e637265617365436f6e7472616374204661696c0000000000000000000000600082015250565b60006133c9601583612cf3565b91506133d482613393565b602082019050919050565b600060208201905081810360008301526133f8816133bc565b9050919050565b600061341a6134156134108461250a565b613012565b61250a565b9050919050565b600061342c826133ff565b9050919050565b600061343e82613421565b9050919050565b61344e81613433565b82525050565b6000606082019050613469600083018661287d565b6134766020830185613445565b6134836040830184612ddc565b949350505050565b60006040820190506134a06000830185613445565b6134ad6020830184612ddc565b9392505050565b600060a0820190506134c96000830188612ddc565b6134d66020830187612ddc565b6134e36040830186613445565b6134f0606083018561287d565b6134fd6080830184612ddc565b9695505050505050565b7f4f776e61626c653a206e6577206f776e657220697320746865207a65726f206160008201527f6464726573730000000000000000000000000000000000000000000000000000602082015250565b6000613563602683612cf3565b915061356e82613507565b604082019050919050565b6000602082019050818103600083015261359281613556565b9050919050565b7f4f776e61626c653a2063616c6c6572206973206e6f7420746865206f776e6572600082015250565b60006135cf602083612cf3565b91506135da82613599565b602082019050919050565b600060208201905081810360008301526135fe816135c2565b905091905056fea2646970667358221220226d05928d5e8e98225b08228f4a38212744acd34642fbc92ac9e821cf1b49fb64736f6c63430008110033",
  "immutableReferences": {},
  "source": "// SPDX-License-Identifier: MIT\npragma solidity ^0.8.0;\n\nimport \"@openzeppelin/contracts/token/ERC721/ERC721.sol\";\nimport \"@openzeppelin/contracts/token/ERC1155/ERC1155.sol\";\nimport \"@openzeppelin/contracts/token/ERC1155/IERC1155Receiver.sol\";\nimport \"@openzeppelin/contracts/access/Ownable.sol\";\nimport \"@openzeppelin/contracts/utils/Counters.sol\";\nimport \"./JetToken.sol\";\nimport \"./JetrisUser.sol\";\n\ncontract JetrisMarket is Ownable {\n    using Counters for Counters.Counter;\n    Counters.Counter private _charIds;\n    Counters.Counter private _charSoldOrCanceled;\n    Counters.Counter private _jtemIds;\n    Counters.Counter private _jtemSoldOrCanceled;\n    uint256 decimals = 10**18;\n    JetToken private token;\n    address payable private treasuryWallet;\n    address payable private userContract;\n    constructor (\n        address _tokenContractAddress,\n        address payable _treasuryWallet\n    ) {\n        _setToken(_tokenContractAddress);\n        treasuryWallet = _treasuryWallet;\n    }\n\n    mapping(uint256 => MarketItem) idMarketChar;\n    mapping(uint256 => MarketItem) idMarketJtem;\n\n    enum ItemStatus {  \n        ON_SALE, SOLD, SALE_CANCELED\n    }\n\n    struct Token {\n        address contractAddr;\n        uint256 tokenId;\n    }\n\n    struct MarketItem {\n        uint256 itemId;\n        Token token;\n        address payable seller;\n        uint256 price;\n        ItemStatus itemStatus;\n    }\n\n    event ItemCreated (\n        uint256 tokenId,\n        uint256 itemId,\n        address seller,\n        uint256 price\n    );\n\n    event ItemSold (\n        uint256 tokenId,\n        uint256 itemId,\n        address seller,\n        address buyer,\n        uint256 price\n    );\n\n    event SaleCanceled (\n        uint256 tokenId,\n        uint256 itemId,\n        address seller\n    );\n\n    function setUserContractAddress(address _userContract) external onlyOwner {\n        require(address(userContract) == address(0), \"WRITE_ONCE!\");\n        userContract = payable(_userContract);\n    }\n\n    function _setToken(address _tokenAddress) private onlyOwner returns (bool) {\n        require(_tokenAddress != address(0x0));\n        token = JetToken(_tokenAddress);\n        return true;\n    }\n\n    function sell(\n        address _contractAddr,\n        uint256 _tokenId,\n        uint256 _price\n    ) public {\n        require(msg.sender == ERC721(_contractAddr).ownerOf(_tokenId),  \"only owners can sell items\");\n        require(_price > 0, \"Price must be above zero\");\n\n        _charIds.increment();\n        uint256 itemId = _charIds.current();\n\n        idMarketChar[itemId] = MarketItem({\n            itemId: itemId,\n            token: Token({\n                contractAddr: _contractAddr,\n                tokenId: _tokenId\n            }),\n            seller: payable(msg.sender),\n            price: _price,\n            itemStatus: ItemStatus.ON_SALE\n        });\n\n        ERC721(_contractAddr).transferFrom(msg.sender, address(this), _tokenId);\n\n        emit ItemCreated(\n            _tokenId,\n            itemId,\n            msg.sender,\n            _price\n        );\n    }\n\n    function sellJtem(\n        address _contractAddr,\n        uint256 _tokenId,\n        uint256 _price\n    ) public {\n        require(ERC1155(_contractAddr).balanceOf(msg.sender, _tokenId)!=0,  \"only owners can sell items\");\n        require(_price > 0, \"Price must be above zero\");\n\n        _jtemIds.increment();\n        uint256 itemId = _jtemIds.current();\n\n        idMarketJtem[itemId] = MarketItem({\n            itemId: itemId,\n            token: Token({\n                contractAddr: _contractAddr,\n                tokenId: _tokenId\n            }),\n            seller: payable(msg.sender),\n            price: _price,\n            itemStatus: ItemStatus.ON_SALE\n        });\n\n        ERC1155(_contractAddr).safeTransferFrom(msg.sender, address(this), _tokenId, 1, \"\");\n\n        emit ItemCreated(\n            _tokenId,\n            itemId,\n            msg.sender,\n            _price\n        );\n    }\n\n    function saleCancel(\n        address _contractAddr,\n        uint256 _itemId\n    ) public {\n        require(msg.sender == idMarketChar[_itemId].seller, \"only seller can cancel\");\n        require(ItemStatus.ON_SALE == idMarketChar[_itemId].itemStatus, \"item is not on sale\");\n\n        uint tokenId = idMarketChar[_itemId].token.tokenId;\n\n        ERC721(_contractAddr).transferFrom(address(this), msg.sender, tokenId);\n\n        idMarketChar[_itemId].itemStatus = ItemStatus.SALE_CANCELED;\n        _charSoldOrCanceled.increment();\n        \n\n        emit SaleCanceled(\n            tokenId,\n            _itemId,\n            msg.sender\n        );\n    }\n\n    function saleCancelJtem(\n        address _contractAddr,\n        uint256 _itemId\n    ) public {\n        require(msg.sender == idMarketJtem[_itemId].seller, \"only seller can cancel\");\n        require(ItemStatus.ON_SALE == idMarketJtem[_itemId].itemStatus, \"item is not on sale\");\n\n        uint tokenId = idMarketJtem[_itemId].token.tokenId;\n\n        ERC1155(_contractAddr).safeTransferFrom(address(this), msg.sender, tokenId, 1, \"\");\n\n        idMarketJtem[_itemId].itemStatus = ItemStatus.SALE_CANCELED;\n        _jtemSoldOrCanceled.increment();\n        \n\n        emit SaleCanceled(\n            tokenId,\n            _itemId,\n            msg.sender\n        );\n    }\n\n    function buy(\n        address _contractAddr,\n        uint256 _itemId\n    ) public {\n        uint price = idMarketChar[_itemId].price;\n        uint fee = price * decimals * 10 / 100;\n        uint grant = price * decimals - fee;\n        uint tokenId = idMarketChar[_itemId].token.tokenId;\n\n        bool success = token.increaseContractAllowance(\n            msg.sender,\n            address(this),\n            price * decimals\n        );\n        require(success, \"IncreaseContract Fail\");\n        // treasury\n        token.transferFrom(msg.sender, treasuryWallet, fee);\n        token.marketBurn(treasuryWallet, fee/2);\n        // grant seller\n        token.transferFrom(msg.sender, idMarketChar[_itemId].seller, grant);\n\n        ERC721(_contractAddr).transferFrom(address(this), msg.sender, tokenId);\n        idMarketChar[_itemId].itemStatus = ItemStatus.SOLD;\n        _charSoldOrCanceled.increment();\n\n        emit ItemSold(\n            tokenId,\n            _itemId,\n            idMarketChar[_itemId].seller,\n            msg.sender,\n            price\n        );\n    }\n\n    function buyJtem(\n        address _contractAddr,\n        uint256 _itemId\n    ) public {\n        uint price = idMarketJtem[_itemId].price;\n        uint fee = price * decimals * 10 / 100;\n        uint grant = price * decimals - fee;\n        uint tokenId = idMarketJtem[_itemId].token.tokenId;\n\n        bool success = token.increaseContractAllowance(\n            msg.sender,\n            address(this),\n            price * decimals\n        );\n        require(success, \"IncreaseContract Fail\");\n        // treasury\n        token.transferFrom(msg.sender, treasuryWallet, fee);\n        token.marketBurn(treasuryWallet, fee/2);\n        // grant seller\n        token.transferFrom(msg.sender, idMarketJtem[_itemId].seller, grant);\n\n        ERC1155(_contractAddr).safeTransferFrom(address(this), msg.sender, tokenId, 1, \"\");\n        idMarketJtem[_itemId].itemStatus = ItemStatus.SOLD;\n        _jtemSoldOrCanceled.increment();\n\n        emit ItemSold(\n            tokenId,\n            _itemId,\n            idMarketJtem[_itemId].seller,\n            msg.sender,\n            price\n        );\n    }\n\n    function fetchCharOnSale() public view returns (MarketItem[] memory) {\n        uint itemCount = _charIds.current();\n        uint unsoldItemCount = _charIds.current() - _charSoldOrCanceled.current();\n        uint currentIndex = 0;\n\n        MarketItem[] memory items =  new MarketItem[](unsoldItemCount);\n\n        for (uint i = 1; i <= itemCount; i++) {\n            if (idMarketChar[i].itemStatus == ItemStatus.ON_SALE) {\n                uint currentId = idMarketChar[i].itemId;\n                MarketItem storage currentItem = idMarketChar[currentId];\n                items[currentIndex] = currentItem;\n                currentIndex += 1;\n            }\n        }\n        return items;\n    }\n\n    function fetchJtemOnSale() public view returns (MarketItem[] memory) {\n        uint itemCount = _jtemIds.current();\n        uint unsoldItemCount = _jtemIds.current() - _jtemSoldOrCanceled.current();\n        uint currentIndex = 0;\n\n        MarketItem[] memory items =  new MarketItem[](unsoldItemCount);\n\n        for (uint i = 1; i <= itemCount; i++) {\n            if (idMarketJtem[i].itemStatus == ItemStatus.ON_SALE) {\n                uint currentId = idMarketJtem[i].itemId;\n                MarketItem storage currentItem = idMarketJtem[currentId];\n                items[currentIndex] = currentItem;\n                currentIndex += 1;\n            }\n        }\n        return items;\n    }\n\n    function fetchMyItemsOnSale() public view returns (MarketItem[] memory) {\n        uint totalItemCount = _charIds.current();\n\n        uint itemCount = 0;\n        uint currentIndex = 0;\n\n        for (uint i = 1; i <= totalItemCount; i++) {\n            if (\n                idMarketChar[i].itemStatus == ItemStatus.ON_SALE\n                && idMarketChar[i].seller == msg.sender\n            ) {\n                itemCount += 1;\n            }\n        }\n\n        MarketItem[] memory items = new MarketItem[](itemCount);\n        for (uint i = 1; i <= totalItemCount; i++) {\n            if (\n                idMarketChar[i].itemStatus == ItemStatus.ON_SALE\n                && idMarketChar[i].seller == msg.sender\n            ) {\n                uint currentId = idMarketChar[i].itemId;\n                MarketItem storage currentItem = idMarketChar[currentId];\n                items[currentIndex] = currentItem;\n                currentIndex += 1;\n            }\n        }\n        return items;\n    }\n\n    function onERC1155Received(address, address, uint256, uint256, bytes memory) public virtual returns (bytes4) {\n        return this.onERC1155Received.selector;\n    }\n\n    function onERC1155BatchReceived(address, address, uint256[] memory, uint256[] memory, bytes memory) public virtual returns (bytes4) {\n        return this.onERC1155BatchReceived.selector;\n    }\n\n    function onERC721Received(address, address, uint256, bytes memory) public virtual returns (bytes4) {\n        return this.onERC721Received.selector;\n    }\n}\n",
  "sourcePath": "C:\\Users\\user\\Desktop\\project3\\BEB-06-FINAL-06\\contract\\contracts\\JetrisMarket.sol",
  "compiler": {
    "name": "solc",
    "version": "0.8.17+commit.8df45f5f.Emscripten.clang"
  },
  "schemaVersion": "3.4.10",
  "updatedAt": "2022-11-29T14:59:18.663Z",
  "networkType": "ethereum",
  "devdoc": {
    "kind": "dev",
    "methods": {
      "owner()": {
        "details": "Returns the address of the current owner."
      },
      "renounceOwnership()": {
        "details": "Leaves the contract without owner. It will not be possible to call `onlyOwner` functions anymore. Can only be called by the current owner. NOTE: Renouncing ownership will leave the contract without an owner, thereby removing any functionality that is only available to the owner."
      },
      "transferOwnership(address)": {
        "details": "Transfers ownership of the contract to a new account (`newOwner`). Can only be called by the current owner."
      }
    },
    "version": 1
  },
  "userdoc": {
    "kind": "user",
    "methods": {},
    "version": 1
  }
}