{
  "contractName": "LiquidityPool",
  "abi": [
    {
      "inputs": [],
      "stateMutability": "nonpayable",
      "type": "constructor"
    },
    {
      "anonymous": false,
      "inputs": [
        {
          "indexed": true,
          "internalType": "address",
          "name": "_account",
          "type": "address"
        },
        {
          "indexed": false,
          "internalType": "uint256",
          "name": "_amount",
          "type": "uint256"
        }
      ],
      "name": "Claimed",
      "type": "event"
    },
    {
      "anonymous": false,
      "inputs": [
        {
          "indexed": true,
          "internalType": "address",
          "name": "_account",
          "type": "address"
        }
      ],
      "name": "LiquidityAdded",
      "type": "event"
    },
    {
      "anonymous": false,
      "inputs": [
        {
          "indexed": true,
          "internalType": "address",
          "name": "_account",
          "type": "address"
        }
      ],
      "name": "LiquidityRemoved",
      "type": "event"
    },
    {
      "anonymous": false,
      "inputs": [
        {
          "indexed": true,
          "internalType": "address",
          "name": "previousOwner",
          "type": "address"
        },
        {
          "indexed": true,
          "internalType": "address",
          "name": "newOwner",
          "type": "address"
        }
      ],
      "name": "OwnershipTransferred",
      "type": "event"
    },
    {
      "anonymous": false,
      "inputs": [
        {
          "indexed": true,
          "internalType": "address",
          "name": "_account",
          "type": "address"
        },
        {
          "indexed": false,
          "internalType": "uint256",
          "name": "_ethTraded",
          "type": "uint256"
        },
        {
          "indexed": false,
          "internalType": "uint256",
          "name": "_jtTraded",
          "type": "uint256"
        }
      ],
      "name": "TradedTokens",
      "type": "event"
    },
    {
      "inputs": [],
      "name": "APR",
      "outputs": [
        {
          "internalType": "uint32",
          "name": "",
          "type": "uint32"
        }
      ],
      "stateMutability": "view",
      "type": "function"
    },
    {
      "inputs": [],
      "name": "decimals",
      "outputs": [
        {
          "internalType": "uint256",
          "name": "",
          "type": "uint256"
        }
      ],
      "stateMutability": "view",
      "type": "function"
    },
    {
      "inputs": [
        {
          "internalType": "address",
          "name": "",
          "type": "address"
        }
      ],
      "name": "depositeInfos",
      "outputs": [
        {
          "internalType": "uint256",
          "name": "claimedTime",
          "type": "uint256"
        },
        {
          "internalType": "uint256",
          "name": "amount",
          "type": "uint256"
        },
        {
          "internalType": "uint32",
          "name": "state",
          "type": "uint32"
        }
      ],
      "stateMutability": "view",
      "type": "function"
    },
    {
      "inputs": [],
      "name": "owner",
      "outputs": [
        {
          "internalType": "address",
          "name": "",
          "type": "address"
        }
      ],
      "stateMutability": "view",
      "type": "function"
    },
    {
      "inputs": [],
      "name": "renounceOwnership",
      "outputs": [],
      "stateMutability": "nonpayable",
      "type": "function"
    },
    {
      "inputs": [
        {
          "internalType": "address",
          "name": "newOwner",
          "type": "address"
        }
      ],
      "name": "transferOwnership",
      "outputs": [],
      "stateMutability": "nonpayable",
      "type": "function"
    },
    {
      "inputs": [],
      "name": "setFundedReserve",
      "outputs": [],
      "stateMutability": "nonpayable",
      "type": "function"
    },
    {
      "inputs": [
        {
          "internalType": "contract LPT",
          "name": "_lpToken",
          "type": "address"
        }
      ],
      "name": "setLPTAddress",
      "outputs": [],
      "stateMutability": "nonpayable",
      "type": "function"
    },
    {
      "inputs": [
        {
          "internalType": "contract JetToken",
          "name": "_jtToken",
          "type": "address"
        }
      ],
      "name": "setJtCoinAddress",
      "outputs": [],
      "stateMutability": "nonpayable",
      "type": "function"
    },
    {
      "inputs": [
        {
          "internalType": "contract Jet2Token",
          "name": "_jet2",
          "type": "address"
        }
      ],
      "name": "setJet2CoinAddress",
      "outputs": [],
      "stateMutability": "nonpayable",
      "type": "function"
    },
    {
      "inputs": [],
      "name": "getReserves",
      "outputs": [
        {
          "internalType": "uint256",
          "name": "",
          "type": "uint256"
        },
        {
          "internalType": "uint256",
          "name": "",
          "type": "uint256"
        }
      ],
      "stateMutability": "view",
      "type": "function"
    },
    {
      "inputs": [
        {
          "internalType": "address",
          "name": "account",
          "type": "address"
        },
        {
          "internalType": "uint256",
          "name": "_jtAmount",
          "type": "uint256"
        }
      ],
      "name": "swap",
      "outputs": [],
      "stateMutability": "payable",
      "type": "function"
    },
    {
      "inputs": [
        {
          "internalType": "uint256",
          "name": "jtAmount",
          "type": "uint256"
        },
        {
          "internalType": "address",
          "name": "account",
          "type": "address"
        }
      ],
      "name": "deposit",
      "outputs": [],
      "stateMutability": "payable",
      "type": "function"
    },
    {
      "inputs": [
        {
          "internalType": "address",
          "name": "account",
          "type": "address"
        }
      ],
      "name": "withdraw",
      "outputs": [],
      "stateMutability": "nonpayable",
      "type": "function"
    },
    {
      "inputs": [],
      "name": "setDepositeInfo",
      "outputs": [],
      "stateMutability": "nonpayable",
      "type": "function"
    },
    {
      "inputs": [],
      "name": "claimReward",
      "outputs": [
        {
          "internalType": "bool",
          "name": "",
          "type": "bool"
        }
      ],
      "stateMutability": "nonpayable",
      "type": "function"
    },
    {
      "inputs": [],
      "name": "claimableReward",
      "outputs": [
        {
          "internalType": "uint256",
          "name": "",
          "type": "uint256"
        }
      ],
      "stateMutability": "view",
      "type": "function"
    }
  ],
  "bytecode": "0x6080604052670de0b6b3a764000060085561023b600960006101000a81548163ffffffff021916908363ffffffff1602179055506301e13380600960046101000a81548163ffffffff021916908363ffffffff16021790555062015180600960086101000a81548163ffffffff021916908363ffffffff1602179055503480156200008957600080fd5b50620000aa6200009e620000c060201b60201c565b620000c860201b60201c565b600060048190555060006005819055506200018c565b600033905090565b60008060009054906101000a900473ffffffffffffffffffffffffffffffffffffffff169050816000806101000a81548173ffffffffffffffffffffffffffffffffffffffff021916908373ffffffffffffffffffffffffffffffffffffffff1602179055508173ffffffffffffffffffffffffffffffffffffffff168173ffffffffffffffffffffffffffffffffffffffff167f8be0079c531659141344cd1fd0a4f28419497f9722a3daafe3b4186f6b6457e060405160405180910390a35050565b612940806200019c6000396000f3fe6080604052600436106100fe5760003560e01c8063b88a802f11610095578063e7181edc11610064578063e7181edc146102bc578063f0d3659b146102e7578063f2fde38b14610326578063f31655881461034f578063f63d19c514610366576100fe565b8063b88a802f14610221578063bd30558e1461024c578063d004f0f714610277578063d8a3a90714610293576100fe565b806351cff8d9116100d157806351cff8d91461019a5780636e553f65146101c3578063715018a6146101df5780638da5cb5b146101f6576100fe565b806301b8c3d3146101035780630902f1ac1461012c5780632770d90114610158578063313ce5671461016f575b600080fd5b34801561010f57600080fd5b5061012a60048036038101906101259190611f8e565b61038f565b005b34801561013857600080fd5b5061014161046c565b60405161014f929190611fd4565b60405180910390f35b34801561016457600080fd5b5061016d61047d565b005b34801561017b57600080fd5b5061018461057a565b6040516101919190611ffd565b60405180910390f35b3480156101a657600080fd5b506101c160048036038101906101bc9190612044565b610580565b005b6101dd60048036038101906101d8919061209d565b610c01565b005b3480156101eb57600080fd5b506101f46110f3565b005b34801561020257600080fd5b5061020b611107565b60405161021891906120ec565b60405180910390f35b34801561022d57600080fd5b50610236611130565b6040516102439190612122565b60405180910390f35b34801561025857600080fd5b506102616113f9565b60405161026e919061215c565b60405180910390f35b610291600480360381019061028c9190612177565b61140f565b005b34801561029f57600080fd5b506102ba60048036038101906102b591906121f5565b611832565b005b3480156102c857600080fd5b506102d161190f565b6040516102de9190611ffd565b60405180910390f35b3480156102f357600080fd5b5061030e60048036038101906103099190612044565b611aae565b60405161031d93929190612222565b60405180910390f35b34801561033257600080fd5b5061034d60048036038101906103489190612044565b611ae8565b005b34801561035b57600080fd5b50610364611b6b565b005b34801561037257600080fd5b5061038d60048036038101906103889190612297565b611bb4565b005b610397611c91565b600073ffffffffffffffffffffffffffffffffffffffff16600360009054906101000a900473ffffffffffffffffffffffffffffffffffffffff1673ffffffffffffffffffffffffffffffffffffffff1614610428576040517f08c379a000000000000000000000000000000000000000000000000000000000815260040161041f90612321565b60405180910390fd5b80600360006101000a81548173ffffffffffffffffffffffffffffffffffffffff021916908373ffffffffffffffffffffffffffffffffffffffff16021790555050565b600080600454600554915091509091565b600260009054906101000a900473ffffffffffffffffffffffffffffffffffffffff1673ffffffffffffffffffffffffffffffffffffffff163373ffffffffffffffffffffffffffffffffffffffff161461050d576040517f08c379a00000000000000000000000000000000000000000000000000000000081526004016105049061238d565b60405180910390fd5b6000600454141580156105235750600060055414155b610562576040517f08c379a0000000000000000000000000000000000000000000000000000000008152600401610559906123f9565b60405180910390fd5b6005546004546105729190612448565b600781905550565b60085481565b6000600160009054906101000a900473ffffffffffffffffffffffffffffffffffffffff1673ffffffffffffffffffffffffffffffffffffffff166370a08231836040518263ffffffff1660e01b81526004016105dd91906120ec565b602060405180830381865afa1580156105fa573d6000803e3d6000fd5b505050506040513d601f19601f8201168201806040525081019061061e919061249f565b905060008103610663576040517f08c379a000000000000000000000000000000000000000000000000000000000815260040161065a90612518565b60405180910390fd5b6000600160009054906101000a900473ffffffffffffffffffffffffffffffffffffffff1673ffffffffffffffffffffffffffffffffffffffff166318160ddd6040518163ffffffff1660e01b8152600401602060405180830381865afa1580156106d2573d6000803e3d6000fd5b505050506040513d601f19601f820116820180604052508101906106f6919061249f565b9050600081836004546107099190612448565b6107139190612567565b9050600082846005546107269190612448565b6107309190612567565b90506001600a60008773ffffffffffffffffffffffffffffffffffffffff1673ffffffffffffffffffffffffffffffffffffffff16815260200190815260200160002060020160009054906101000a900463ffffffff1663ffffffff160361095c576000600960089054906101000a900463ffffffff1663ffffffff16600960049054906101000a900463ffffffff1663ffffffff166064600960009054906101000a900463ffffffff1663ffffffff16600a60008b73ffffffffffffffffffffffffffffffffffffffff1673ffffffffffffffffffffffffffffffffffffffff1681526020019081526020016000206001015461082e9190612448565b6108389190612567565b6108429190612567565b61084c9190612567565b9050600081600a60008973ffffffffffffffffffffffffffffffffffffffff1673ffffffffffffffffffffffffffffffffffffffff168152602001908152602001600020600001544261089f9190612598565b6108a99190612448565b9050600360009054906101000a900473ffffffffffffffffffffffffffffffffffffffff1673ffffffffffffffffffffffffffffffffffffffff1663a9059cbb88612710846108f89190612448565b6040518363ffffffff1660e01b81526004016109159291906125cc565b6020604051808303816000875af1158015610934573d6000803e3d6000fd5b505050506040513d601f19601f820116820180604052508101906109589190612621565b5050505b600a60008673ffffffffffffffffffffffffffffffffffffffff1673ffffffffffffffffffffffffffffffffffffffff16815260200190815260200160002060008082016000905560018201600090556002820160006101000a81549063ffffffff02191690555050600160009054906101000a900473ffffffffffffffffffffffffffffffffffffffff1673ffffffffffffffffffffffffffffffffffffffff16639dc29fac86866040518363ffffffff1660e01b8152600401610a229291906125cc565b600060405180830381600087803b158015610a3c57600080fd5b505af1158015610a50573d6000803e3d6000fd5b5050505060008573ffffffffffffffffffffffffffffffffffffffff1683604051610a7a9061267f565b60006040518083038185875af1925050503d8060008114610ab7576040519150601f19603f3d011682016040523d82523d6000602084013e610abc565b606091505b505090506000600260009054906101000a900473ffffffffffffffffffffffffffffffffffffffff1673ffffffffffffffffffffffffffffffffffffffff1663a9059cbb88856040518363ffffffff1660e01b8152600401610b1f9291906125cc565b6020604051808303816000875af1158015610b3e573d6000803e3d6000fd5b505050506040513d601f19601f82011682018060405250810190610b629190612621565b9050818015610b6e5750805b610bad576040517f08c379a0000000000000000000000000000000000000000000000000000000008152600401610ba4906126e0565b60405180910390fd5b8673ffffffffffffffffffffffffffffffffffffffff167f5dab48db0770e220c3226a459b19d38e7438c27b1b8dac1fab1434686d2319cd60405160405180910390a2610bf8611d0f565b50505050505050565b600080600160009054906101000a900473ffffffffffffffffffffffffffffffffffffffff1673ffffffffffffffffffffffffffffffffffffffff166318160ddd6040518163ffffffff1660e01b8152600401602060405180830381865afa158015610c71573d6000803e3d6000fd5b505050506040513d601f19601f82011682018060405250810190610c95919061249f565b905060003490506000821115610ce657610cdf6004548383610cb79190612448565b610cc19190612567565b6005548488610cd09190612448565b610cda9190612567565b611dba565b9250610cfd565b610cfa8582610cf59190612448565b611dd3565b92505b600160009054906101000a900473ffffffffffffffffffffffffffffffffffffffff1673ffffffffffffffffffffffffffffffffffffffff166340c10f1985856040518363ffffffff1660e01b8152600401610d5a9291906125cc565b600060405180830381600087803b158015610d7457600080fd5b505af1158015610d88573d6000803e3d6000fd5b505050506001600a60008673ffffffffffffffffffffffffffffffffffffffff1673ffffffffffffffffffffffffffffffffffffffff16815260200190815260200160002060020160009054906101000a900463ffffffff1663ffffffff1603610fb5576000600960089054906101000a900463ffffffff1663ffffffff16600960049054906101000a900463ffffffff1663ffffffff166064600960009054906101000a900463ffffffff1663ffffffff16600a60008a73ffffffffffffffffffffffffffffffffffffffff1673ffffffffffffffffffffffffffffffffffffffff16815260200190815260200160002060010154610e889190612448565b610e929190612567565b610e9c9190612567565b610ea69190612567565b9050600081600a60008873ffffffffffffffffffffffffffffffffffffffff1673ffffffffffffffffffffffffffffffffffffffff1681526020019081526020016000206000015442610ef99190612598565b610f039190612448565b9050600360009054906101000a900473ffffffffffffffffffffffffffffffffffffffff1673ffffffffffffffffffffffffffffffffffffffff1663a9059cbb87606484610f519190612448565b6040518363ffffffff1660e01b8152600401610f6e9291906125cc565b6020604051808303816000875af1158015610f8d573d6000803e3d6000fd5b505050506040513d601f19601f82011682018060405250810190610fb19190612621565b5050505b604051806060016040528042815260200184600a60008873ffffffffffffffffffffffffffffffffffffffff1673ffffffffffffffffffffffffffffffffffffffff168152602001908152602001600020600101546110149190612700565b8152602001600163ffffffff16815250600a60008673ffffffffffffffffffffffffffffffffffffffff1673ffffffffffffffffffffffffffffffffffffffff168152602001908152602001600020600082015181600001556020820151816001015560408201518160020160006101000a81548163ffffffff021916908363ffffffff1602179055509050508373ffffffffffffffffffffffffffffffffffffffff167f88bbeecffcce070d5609ad08df49df93f0d53002ef3544dd5287e6b621eaff6f60405160405180910390a26110ec611d0f565b5050505050565b6110fb611c91565b6111056000611e4d565b565b60008060009054906101000a900473ffffffffffffffffffffffffffffffffffffffff16905090565b60006001600a60003373ffffffffffffffffffffffffffffffffffffffff1673ffffffffffffffffffffffffffffffffffffffff16815260200190815260200160002060020160009054906101000a900463ffffffff1663ffffffff16146111cd576040517f08c379a00000000000000000000000000000000000000000000000000000000081526004016111c490612780565b60405180910390fd5b6000600a60003373ffffffffffffffffffffffffffffffffffffffff1673ffffffffffffffffffffffffffffffffffffffff168152602001908152602001600020600001544261121d9190612598565b90506000600960089054906101000a900463ffffffff1663ffffffff16600960049054906101000a900463ffffffff1663ffffffff166064600960009054906101000a900463ffffffff1663ffffffff16600a60003373ffffffffffffffffffffffffffffffffffffffff1673ffffffffffffffffffffffffffffffffffffffff168152602001908152602001600020600101546112bb9190612448565b6112c59190612567565b6112cf9190612567565b6112d99190612567565b9050600082826112e99190612448565b9050600360009054906101000a900473ffffffffffffffffffffffffffffffffffffffff1673ffffffffffffffffffffffffffffffffffffffff1663a9059cbb33612710846113389190612448565b6040518363ffffffff1660e01b81526004016113559291906125cc565b6020604051808303816000875af1158015611374573d6000803e3d6000fd5b505050506040513d601f19601f820116820180604052508101906113989190612621565b506113a1611b6b565b3373ffffffffffffffffffffffffffffffffffffffff167fd8138f8a3f377c5259ca548e70e4c2de94f129f5a11036a15b69513cba2b426a826040516113e79190611ffd565b60405180910390a26001935050505090565b600960009054906101000a900463ffffffff1681565b60006005546004546114219190612448565b905060008060008060085490506000340361161c576000600260009054906101000a900473ffffffffffffffffffffffffffffffffffffffff1673ffffffffffffffffffffffffffffffffffffffff166370a08231306040518263ffffffff1660e01b815260040161149391906120ec565b602060405180830381865afa1580156114b0573d6000803e3d6000fd5b505050506040513d601f19601f820116820180604052508101906114d4919061249f565b9050600060648860016114e79190612448565b6114f19190612567565b886114fc9190612598565b905060008160055461150e9190612700565b90506000826005546115209190612700565b8961152b9190612567565b90508060045461153b9190612598565b9750606488600161154c9190612448565b6115569190612567565b965086886115649190612598565b955060008b73ffffffffffffffffffffffffffffffffffffffff168760405161158c9061267f565b60006040518083038185875af1925050503d80600081146115c9576040519150601f19603f3d011682016040523d82523d6000602084013e6115ce565b606091505b5050905080611612576040517f08c379a0000000000000000000000000000000000000000000000000000000008152600401611609906127ec565b60405180910390fd5b50505050506117d1565b60003460045461162c9190612700565b866116379190612567565b9050806005546116479190612598565b945060648560016116589190612448565b6116629190612567565b935083856116709190612598565b9250600260009054906101000a900473ffffffffffffffffffffffffffffffffffffffff1673ffffffffffffffffffffffffffffffffffffffff1663a9059cbb89856040518363ffffffff1660e01b81526004016116cf9291906125cc565b6020604051808303816000875af11580156116ee573d6000803e3d6000fd5b505050506040513d601f19601f820116820180604052508101906117129190612621565b506064600a846117229190612448565b61172c9190612567565b9150600360009054906101000a900473ffffffffffffffffffffffffffffffffffffffff1673ffffffffffffffffffffffffffffffffffffffff1663a9059cbb89846040518363ffffffff1660e01b815260040161178b9291906125cc565b6020604051808303816000875af11580156117aa573d6000803e3d6000fd5b505050506040513d601f19601f820116820180604052508101906117ce9190612621565b50505b8673ffffffffffffffffffffffffffffffffffffffff167f967ed1bc358366a7e3e3031a0fbee32b45feb1c201d99d020380f99d03d932d13488604051611819929190611fd4565b60405180910390a2611829611d0f565b50505050505050565b61183a611c91565b600073ffffffffffffffffffffffffffffffffffffffff16600260009054906101000a900473ffffffffffffffffffffffffffffffffffffffff1673ffffffffffffffffffffffffffffffffffffffff16146118cb576040517f08c379a00000000000000000000000000000000000000000000000000000000081526004016118c290612321565b60405180910390fd5b80600260006101000a81548173ffffffffffffffffffffffffffffffffffffffff021916908373ffffffffffffffffffffffffffffffffffffffff16021790555050565b60006001600a60003373ffffffffffffffffffffffffffffffffffffffff1673ffffffffffffffffffffffffffffffffffffffff16815260200190815260200160002060020160009054906101000a900463ffffffff1663ffffffff1603611aa6576000600a60003373ffffffffffffffffffffffffffffffffffffffff1673ffffffffffffffffffffffffffffffffffffffff16815260200190815260200160002060000154426119c19190612598565b90506000600960089054906101000a900463ffffffff1663ffffffff16600960049054906101000a900463ffffffff1663ffffffff166064600960009054906101000a900463ffffffff1663ffffffff16600a60003373ffffffffffffffffffffffffffffffffffffffff1673ffffffffffffffffffffffffffffffffffffffff16815260200190815260200160002060010154611a5f9190612448565b611a699190612567565b611a739190612567565b611a7d9190612567565b905060008282611a8d9190612448565b9050606481611a9c9190612448565b9350505050611aab565b600090505b90565b600a6020528060005260406000206000915090508060000154908060010154908060020160009054906101000a900463ffffffff16905083565b611af0611c91565b600073ffffffffffffffffffffffffffffffffffffffff168173ffffffffffffffffffffffffffffffffffffffff1603611b5f576040517f08c379a0000000000000000000000000000000000000000000000000000000008152600401611b569061287e565b60405180910390fd5b611b6881611e4d565b50565b42600a60003373ffffffffffffffffffffffffffffffffffffffff1673ffffffffffffffffffffffffffffffffffffffff16815260200190815260200160002060000181905550565b611bbc611c91565b600073ffffffffffffffffffffffffffffffffffffffff16600160009054906101000a900473ffffffffffffffffffffffffffffffffffffffff1673ffffffffffffffffffffffffffffffffffffffff1614611c4d576040517f08c379a0000000000000000000000000000000000000000000000000000000008152600401611c4490612321565b60405180910390fd5b80600160006101000a81548173ffffffffffffffffffffffffffffffffffffffff021916908373ffffffffffffffffffffffffffffffffffffffff16021790555050565b611c99611f11565b73ffffffffffffffffffffffffffffffffffffffff16611cb7611107565b73ffffffffffffffffffffffffffffffffffffffff1614611d0d576040517f08c379a0000000000000000000000000000000000000000000000000000000008152600401611d04906128ea565b60405180910390fd5b565b47600481905550600260009054906101000a900473ffffffffffffffffffffffffffffffffffffffff1673ffffffffffffffffffffffffffffffffffffffff166370a08231306040518263ffffffff1660e01b8152600401611d7191906120ec565b602060405180830381865afa158015611d8e573d6000803e3d6000fd5b505050506040513d601f19601f82011682018060405250810190611db2919061249f565b600581905550565b6000818310611dc95781611dcb565b825b905092915050565b60006003821115611e3a5781905060006001600284611df29190612567565b611dfc9190612700565b90505b81811015611e34578091506002818285611e199190612567565b611e239190612700565b611e2d9190612567565b9050611dff565b50611e48565b60008214611e4757600190505b5b919050565b60008060009054906101000a900473ffffffffffffffffffffffffffffffffffffffff169050816000806101000a81548173ffffffffffffffffffffffffffffffffffffffff021916908373ffffffffffffffffffffffffffffffffffffffff1602179055508173ffffffffffffffffffffffffffffffffffffffff168173ffffffffffffffffffffffffffffffffffffffff167f8be0079c531659141344cd1fd0a4f28419497f9722a3daafe3b4186f6b6457e060405160405180910390a35050565b600033905090565b600080fd5b600073ffffffffffffffffffffffffffffffffffffffff82169050919050565b6000611f4982611f1e565b9050919050565b6000611f5b82611f3e565b9050919050565b611f6b81611f50565b8114611f7657600080fd5b50565b600081359050611f8881611f62565b92915050565b600060208284031215611fa457611fa3611f19565b5b6000611fb284828501611f79565b91505092915050565b6000819050919050565b611fce81611fbb565b82525050565b6000604082019050611fe96000830185611fc5565b611ff66020830184611fc5565b9392505050565b60006020820190506120126000830184611fc5565b92915050565b61202181611f3e565b811461202c57600080fd5b50565b60008135905061203e81612018565b92915050565b60006020828403121561205a57612059611f19565b5b60006120688482850161202f565b91505092915050565b61207a81611fbb565b811461208557600080fd5b50565b60008135905061209781612071565b92915050565b600080604083850312156120b4576120b3611f19565b5b60006120c285828601612088565b92505060206120d38582860161202f565b9150509250929050565b6120e681611f3e565b82525050565b600060208201905061210160008301846120dd565b92915050565b60008115159050919050565b61211c81612107565b82525050565b60006020820190506121376000830184612113565b92915050565b600063ffffffff82169050919050565b6121568161213d565b82525050565b6000602082019050612171600083018461214d565b92915050565b6000806040838503121561218e5761218d611f19565b5b600061219c8582860161202f565b92505060206121ad85828601612088565b9150509250929050565b60006121c282611f3e565b9050919050565b6121d2816121b7565b81146121dd57600080fd5b50565b6000813590506121ef816121c9565b92915050565b60006020828403121561220b5761220a611f19565b5b6000612219848285016121e0565b91505092915050565b60006060820190506122376000830186611fc5565b6122446020830185611fc5565b612251604083018461214d565b949350505050565b600061226482611f3e565b9050919050565b61227481612259565b811461227f57600080fd5b50565b6000813590506122918161226b565b92915050565b6000602082840312156122ad576122ac611f19565b5b60006122bb84828501612282565b91505092915050565b600082825260208201905092915050565b7f57524954455f4f4e434500000000000000000000000000000000000000000000600082015250565b600061230b600a836122c4565b9150612316826122d5565b602082019050919050565b6000602082019050818103600083015261233a816122fe565b9050919050565b7f4a6f6e4d61746e675f4f4e4c5900000000000000000000000000000000000000600082015250565b6000612377600d836122c4565b915061238282612341565b602082019050919050565b600060208201905081810360008301526123a68161236a565b9050919050565b7f5245534552564520414d4f554e5420454d505459000000000000000000000000600082015250565b60006123e36014836122c4565b91506123ee826123ad565b602082019050919050565b60006020820190508181036000830152612412816123d6565b9050919050565b7f4e487b7100000000000000000000000000000000000000000000000000000000600052601160045260246000fd5b600061245382611fbb565b915061245e83611fbb565b925082820261246c81611fbb565b9150828204841483151761248357612482612419565b5b5092915050565b60008151905061249981612071565b92915050565b6000602082840312156124b5576124b4611f19565b5b60006124c38482850161248a565b91505092915050565b7f4e4f5f415641494c41424c455f544f4b454e5300000000000000000000000000600082015250565b60006125026013836122c4565b915061250d826124cc565b602082019050919050565b60006020820190508181036000830152612531816124f5565b9050919050565b7f4e487b7100000000000000000000000000000000000000000000000000000000600052601260045260246000fd5b600061257282611fbb565b915061257d83611fbb565b92508261258d5761258c612538565b5b828204905092915050565b60006125a382611fbb565b91506125ae83611fbb565b92508282039050818111156125c6576125c5612419565b5b92915050565b60006040820190506125e160008301856120dd565b6125ee6020830184611fc5565b9392505050565b6125fe81612107565b811461260957600080fd5b50565b60008151905061261b816125f5565b92915050565b60006020828403121561263757612636611f19565b5b60006126458482850161260c565b91505092915050565b600081905092915050565b50565b600061266960008361264e565b915061267482612659565b600082019050919050565b600061268a8261265c565b9150819050919050565b7f4641494c45445f5452414e534645520000000000000000000000000000000000600082015250565b60006126ca600f836122c4565b91506126d582612694565b602082019050919050565b600060208201905081810360008301526126f9816126bd565b9050919050565b600061270b82611fbb565b915061271683611fbb565b925082820190508082111561272e5761272d612419565b5b92915050565b7f596f7520617265206e6f74207061727469636970617465640000000000000000600082015250565b600061276a6018836122c4565b915061277582612734565b602082019050919050565b600060208201905081810360008301526127998161275d565b9050919050565b7f5452414e534645525f4641494c45440000000000000000000000000000000000600082015250565b60006127d6600f836122c4565b91506127e1826127a0565b602082019050919050565b60006020820190508181036000830152612805816127c9565b9050919050565b7f4f776e61626c653a206e6577206f776e657220697320746865207a65726f206160008201527f6464726573730000000000000000000000000000000000000000000000000000602082015250565b60006128686026836122c4565b91506128738261280c565b604082019050919050565b600060208201905081810360008301526128978161285b565b9050919050565b7f4f776e61626c653a2063616c6c6572206973206e6f7420746865206f776e6572600082015250565b60006128d46020836122c4565b91506128df8261289e565b602082019050919050565b60006020820190508181036000830152612903816128c7565b905091905056fea2646970667358221220f82ac8be81e7470c15f7d50166964e291ba3b0c5447ec09ca894764e497fc64064736f6c63430008110033",
  "immutableReferences": {},
  "source": "//SPDX-License-Identifier: Unlicense\npragma solidity ^0.8.0;\n\nimport \"./LPT.sol\";\nimport \"./JetToken.sol\";\nimport \"./Jet2Token.sol\";\nimport \"@openzeppelin/contracts/utils/math/Math.sol\";\nimport \"@uniswap/lib/contracts/libraries/Babylonian.sol\";\nimport \"@openzeppelin/contracts/access/Ownable.sol\";\n\n// indexed ->        search ,    \n// unchecked ->      overflow   ->        \n//                \n//    unchecked     \n/*\n      (Swap)\n      \n    JT token = 10000 \n    ETH token = 20\n     LiquidityPool Reserve   ,    \n    A 100 JT  ETH   \n       10000*20 = 200000  \n     A JT100   \n      10100  10100*20 = 202000  \n    \n        200000 \n    202000  JT ETH   \n     \n      x * 10100 = 200000    ( x  eth  )\n     x   x = 200000/10100    \n    x = 19.8019082 eth        (eth)reserve - x = 0.921980918 \n       eth 0.921980918  (   ) \n*/\ncontract LiquidityPool is Ownable {\n    event LiquidityAdded(address indexed _account);\n    event LiquidityRemoved(address indexed _account);\n    event TradedTokens(address indexed _account,uint256 _ethTraded,uint256 _jtTraded);\n    event Claimed(address indexed _account, uint256 _amount);\n\n    struct DepositeInfo {        \n        uint256 claimedTime; \n        uint256 amount; \n        uint32 state;\n    }\n\n\n    LPT lpToken; //  lp  \n    JetToken jtToken;\n    Jet2Token jet2;\n    \n    uint256 ethReserve; //   \n    uint256 jtReserve;  //  jt \n    uint32 lastBlockTimestamp;\n    uint256 totalReserve; //   \n    uint256 public decimals = 10**18;\n    uint32 public APR = 571; // \n    uint32 private yearsDuration = 31536000;\n    uint32 private dayDuration = 86400;\n    mapping(address => DepositeInfo) public depositeInfos; \n\n    constructor () {\n        ethReserve=0;\n        jtReserve=0;\n    }\n\n    modifier JonMatngOnly() {\n        require(msg.sender == address(jtToken), \"JonMatng_ONLY\");\n        _;\n    }\n    // set funded reserve \n    function setFundedReserve() JonMatngOnly public {\n        require(ethReserve != 0 && jtReserve != 0,\"RESERVE AMOUNT EMPTY\");\n        totalReserve = ethReserve*jtReserve;\n    }\n\n    // lpt   \n    function setLPTAddress(LPT _lpToken) external onlyOwner {\n        require(address(lpToken) == address(0), \"WRITE_ONCE\");\n        lpToken = _lpToken;\n    }\n\n    //  jt   \n    function setJtCoinAddress(JetToken _jtToken) external onlyOwner {\n        require(address(jtToken) == address(0), \"WRITE_ONCE\");\n        jtToken = _jtToken;\n    }\n    // jet2    \n    function setJet2CoinAddress(Jet2Token _jet2) external onlyOwner(){\n        require(address(jet2) == address(0), \"WRITE_ONCE\");\n        jet2 = _jet2;\n    }\n\n    //    \n    function getReserves() external view returns (uint256, uint256) {\n        return (ethReserve, jtReserve);\n    }\n\n    //pool swap!\n    function swap(address account, uint256 _jtAmount) external payable {\n        uint256 product = ethReserve * jtReserve; //  \n        uint256 amountToTransfer;\n        uint256 amountToTake;\n        uint256 totalAmountToTransfer;\n        uint256 Commission = decimals; //\n\n        // jt -> eth, jttoken == 0\n        if (msg.value == 0) \n        {\n            uint256 currentJTBalance = jtToken.balanceOf(address(this)); //      \n            uint256 _jtAmountMinusTax = _jtAmount - ((1 * _jtAmount) / 100); // (  - ) \n            uint256 addedBalance = jtReserve + _jtAmountMinusTax; //  jt + (  - ) =   \n            //require(addedBalance == currentJTBalance, \"DID_NOT_TRANSFER\");\n\n            uint256 x = product / (jtReserve + _jtAmountMinusTax); //  product   \n            amountToTransfer = ethReserve - x; //   eth \n            amountToTake = (1 * amountToTransfer) / 100; //  \n            totalAmountToTransfer = amountToTransfer - amountToTake; //   -  =  get eth \n\n            //     //  \n            // https://kushgoyal.com/ethereum-solidity-how-use-call-delegatecall/ ->  \n            (bool success, ) = account.call{value: totalAmountToTransfer}(\"\");\n            require(success, \"TRANSFER_FAILED\");\n        } else { // eth -> jt, jttoken > 0 msg.value > 0  \n\n            uint256 y = product / (ethReserve + msg.value);\n            amountToTransfer = jtReserve - y;\n            amountToTake = (1 * amountToTransfer) / 100;\n            totalAmountToTransfer = amountToTransfer - amountToTake;\n\n            jtToken.transfer(account, totalAmountToTransfer);\n\n            Commission = (totalAmountToTransfer * 10) / 100;\n            jet2.transfer(account , Commission);\n        }\n        emit TradedTokens(account, msg.value, _jtAmount);\n        _update();\n    }\n\n    // pool  \n    function deposit(uint256 jtAmount, address account) external payable \n    {\n        uint256 liquidity; //  \n        uint256 totalSupply = lpToken.totalSupply(); // lp erc\n        uint256 ethAmount = msg.value; //\n\n        if (totalSupply > 0) {\n            liquidity = Math.min(\n                (ethAmount * totalSupply) / ethReserve,\n                (jtAmount * totalSupply) / jtReserve\n            );\n        } else { // x\n            liquidity = Babylonian.sqrt(ethAmount * jtAmount);\n        }\n\n        lpToken.mint(account, liquidity); // transfer user => \n        if(depositeInfos[account].state == 1){\n            uint256 jt2Aomount = (depositeInfos[account].amount * APR / 100) / yearsDuration / dayDuration; \n            uint256 claimableAmount = (block.timestamp - depositeInfos[account].claimedTime) * jt2Aomount;\n            jet2.transfer(account , claimableAmount * 100);\n        }\n\n        depositeInfos[account] = DepositeInfo({\n            claimedTime: block.timestamp,\n            amount: (depositeInfos[account].amount + liquidity),\n            state: 1 \n        });\n\n        emit LiquidityAdded(account);\n        _update();\n    }\n\n    //lp \n    function withdraw(address account) external \n    {\n        uint256 liquidity = lpToken.balanceOf(account); //  lp   \n        require(liquidity != 0, \"NO_AVAILABLE_TOKENS\");\n\n        uint256 totalSupply = lpToken.totalSupply();\n        //  \n        uint256 ethAmount = (ethReserve * liquidity) / totalSupply;\n        uint256 jtAmount = (jtReserve * liquidity) / totalSupply;\n\n        if(depositeInfos[account].state == 1){\n            uint256 jt2Aomount = (depositeInfos[account].amount * APR / 100) / yearsDuration / dayDuration; \n            uint256 claimableAmount = (block.timestamp - depositeInfos[account].claimedTime) * jt2Aomount;\n            jet2.transfer(account , claimableAmount * 10000);\n          \n        }\n        delete depositeInfos[account];\n        // \n        lpToken.burn(account, liquidity); // account  , lpt   \n\n        //    \n        (bool ethTransferSuccess, ) = account.call{value: ethAmount}(\"\");\n        bool jtTransferSuccess = jtToken.transfer(account, jtAmount);\n\n        require(ethTransferSuccess && jtTransferSuccess, \"FAILED_TRANSFER\");\n        emit LiquidityRemoved(account);\n        _update();\n    }\n\n    \n    function setDepositeInfo() public {\n        depositeInfos[msg.sender].claimedTime = block.timestamp;\n    }\n\n    // LP \n    function claimReward() external returns (bool){\n        require(depositeInfos[msg.sender].state == 1, \"You are not participated\");\n\n        uint256 stakingDuration = block.timestamp - depositeInfos[msg.sender].claimedTime; //     \n        uint256 persecondAmount = (depositeInfos[msg.sender].amount * APR / 100) / yearsDuration / dayDuration; //   \n        uint256 claimableAmount = persecondAmount * stakingDuration; //  \n\n        jet2.transfer(msg.sender, claimableAmount * 10000); //jt2:jt \n        setDepositeInfo(); //    \n        emit Claimed(msg.sender, claimableAmount);\n        return true;\n    }\n\n    // LP   \n    function claimableReward() public view returns(uint256) \n    {\n        if(depositeInfos[msg.sender].state == 1){\n            uint256 stakingDuration = block.timestamp - depositeInfos[msg.sender].claimedTime; //     \n            uint256 persecondAmount = (depositeInfos[msg.sender].amount * APR / 100) / yearsDuration / dayDuration; //   \n            uint256 claimableAmount = persecondAmount * stakingDuration; //  \n            return (claimableAmount * 100);\n        }else{\n            return 0;\n        }\n    }\n\n    // ,     \n    function _update() private {\n        ethReserve = address(this).balance; //    eth \n        jtReserve = jtToken.balanceOf(address(this)); // jt    \n\n    }\n}",
  "sourcePath": "C:\\Users\\user\\Desktop\\project3\\BEB-06-FINAL-06\\contract\\contracts\\LiquidityPool.sol",
  "compiler": {
    "name": "solc",
    "version": "0.8.17+commit.8df45f5f.Emscripten.clang"
  },
  "schemaVersion": "3.4.10",
  "updatedAt": "2022-11-29T14:59:18.745Z",
  "networkType": "ethereum",
  "devdoc": {
    "kind": "dev",
    "methods": {
      "owner()": {
        "details": "Returns the address of the current owner."
      },
      "renounceOwnership()": {
        "details": "Leaves the contract without owner. It will not be possible to call `onlyOwner` functions anymore. Can only be called by the current owner. NOTE: Renouncing ownership will leave the contract without an owner, thereby removing any functionality that is only available to the owner."
      },
      "transferOwnership(address)": {
        "details": "Transfers ownership of the contract to a new account (`newOwner`). Can only be called by the current owner."
      }
    },
    "version": 1
  },
  "userdoc": {
    "kind": "user",
    "methods": {},
    "version": 1
  }
}